{
	"data": {
		"bytecode": {
			"linkReferences": {},
			"object": "608060405260008055667c585087238000600a55600b80546001600160a01b0319908116909155666a94d74f430000600c55600d8054680202020000000000006001600160481b0319909116179055600f8054909116730be1a47ada1a649ffae7f3927afd10568297a7a81790553480156200007a57600080fd5b5060408051808201825260088082526715195cdd109d5b1b60c21b6020808401829052845180860190955291845290830152906003620000bb8382620001da565b506004620000ca8282620001da565b5050600060015550620000dd33620000e3565b620002a6565b600980546001600160a01b038381166001600160a01b0319831681179093556040519116919082907f8be0079c531659141344cd1fd0a4f28419497f9722a3daafe3b4186f6b6457e090600090a35050565b634e487b7160e01b600052604160045260246000fd5b600181811c908216806200016057607f821691505b6020821081036200018157634e487b7160e01b600052602260045260246000fd5b50919050565b601f821115620001d557600081815260208120601f850160051c81016020861015620001b05750805b601f850160051c820191505b81811015620001d157828155600101620001bc565b5050505b505050565b81516001600160401b03811115620001f657620001f662000135565b6200020e816200020784546200014b565b8462000187565b602080601f8311600181146200024657600084156200022d5750858301515b600019600386901b1c1916600185901b178555620001d1565b600085815260208120601f198616915b82811015620002775788860151825594840194600190910190840162000256565b5085821015620002965787850151600019600388901b60f8161c191681555b5050505050600190811b01905550565b612ee280620002b66000396000f3fe6080604052600436106103075760003560e01c80635d82cf6e1161019a578063a22cb465116100e1578063c87b56dd1161008a578063e1911d7011610064578063e1911d701461085c578063e985e9c514610871578063f2fde38b146108ba57600080fd5b8063c87b56dd146107fc578063d2e21b131461081c578063dc33e6811461083c57600080fd5b8063b88d4fde116100bb578063b88d4fde146107b5578063becd61d8146107c8578063c50497ae146107dd57600080fd5b8063a22cb4651461076c578063ad570dd51461078c578063b079fe74146107a257600080fd5b80637ac3c02f116101435780638c1b346f1161011d5780638c1b346f146107195780638da5cb5b1461073957806395d89b411461075757600080fd5b80637ac3c02f146106c05780638342083a146106d55780638535923f146106f957600080fd5b80636c19e783116101745780636c19e7831461066b57806370a082311461068b578063715018a6146106ab57600080fd5b80635d82cf6e14610615578063611f3f10146106355780636352211e1461064b57600080fd5b806322fa3dfa1161025e5780633d272294116102075780634312dc7c116101e15780634312dc7c146105c057806346f0975a146105e0578063557ed1ba1461060057600080fd5b80633d2722941461056d57806342842e0e1461058d57806342966c68146105a057600080fd5b80632a51a8e2116102385780632a51a8e21461050c57806332cb6b0c1461053157806333171b931461054d57600080fd5b806322fa3dfa146104c657806323b872dd146104e657806325d82002146104f957600080fd5b8063095ea7b3116102c057806318f0c43e1161029a57806318f0c43e146104405780631a6eedb4146104785780631d5a7e96146104b157600080fd5b8063095ea7b3146103dd578063144a79e3146103f057806318160ddd1461041d57600080fd5b806302fe5305116102f157806302fe53051461036357806306fdde0314610383578063081812fc146103a557600080fd5b8062f714ce1461030c57806301ffc9a71461032e575b600080fd5b34801561031857600080fd5b5061032c6103273660046127a9565b6108da565b005b34801561033a57600080fd5b5061034e610349366004612803565b6109e7565b60405190151581526020015b60405180910390f35b34801561036f57600080fd5b5061032c61037e366004612820565b610acc565b34801561038f57600080fd5b50610398610b26565b60405161035a91906128e2565b3480156103b157600080fd5b506103c56103c03660046128f5565b610bb8565b6040516001600160a01b03909116815260200161035a565b61032c6103eb36600461290e565b610c15565b3480156103fc57600080fd5b50610406610fff81565b60405165ffffffffffff909116815260200161035a565b34801561042957600080fd5b50600254600154035b60405190815260200161035a565b34801561044c57600080fd5b50600d546104669068010000000000000000900460ff1681565b60405160ff909116815260200161035a565b34801561048457600080fd5b50610498610493366004612938565b610d3f565b60405167ffffffffffffffff909116815260200161035a565b3480156104bd57600080fd5b50600054610432565b3480156104d257600080fd5b506104986104e1366004612938565b610d7a565b61032c6104f4366004612953565b610da2565b61032c610507366004612a61565b610ffe565b34801561051857600080fd5b50600d5461046690670100000000000000900460ff1681565b34801561053d57600080fd5b5061043267016345785d89ffff81565b34801561055957600080fd5b5061032c610568366004612938565b611324565b34801561057957600080fd5b5061032c6105883660046128f5565b6113ce565b61032c61059b366004612953565b61144a565b3480156105ac57600080fd5b5061032c6105bb3660046128f5565b61146a565b3480156105cc57600080fd5b5061032c6105db366004612aaf565b6114e3565b3480156105ec57600080fd5b50600f546103c5906001600160a01b031681565b34801561060c57600080fd5b506104326115f3565b34801561062157600080fd5b5061032c6106303660046128f5565b6115fc565b34801561064157600080fd5b50610432600a5481565b34801561065757600080fd5b506103c56106663660046128f5565b611678565b34801561067757600080fd5b5061032c610686366004612938565b611683565b34801561069757600080fd5b506104326106a6366004612938565b61172d565b3480156106b757600080fd5b5061032c611795565b3480156106cc57600080fd5b506103c56117a9565b3480156106e157600080fd5b50600d54610466906601000000000000900460ff1681565b34801561070557600080fd5b50610498610714366004612938565b6117c3565b34801561072557600080fd5b50600b546103c5906001600160a01b031681565b34801561074557600080fd5b506009546001600160a01b03166103c5565b34801561076357600080fd5b506103986117eb565b34801561077857600080fd5b5061032c610787366004612ad9565b6117fa565b34801561079857600080fd5b50610432600c5481565b61032c6107b0366004612b15565b6118c0565b61032c6107c3366004612b30565b611b37565b3480156107d457600080fd5b50610406600f81565b3480156107e957600080fd5b50600d546104069065ffffffffffff1681565b34801561080857600080fd5b506103986108173660046128f5565b611b94565b34801561082857600080fd5b5061032c6108373660046128f5565b611c31565b34801561084857600080fd5b50610432610857366004612938565b611c70565b34801561086857600080fd5b50610398611c9b565b34801561087d57600080fd5b5061034e61088c366004612b98565b6001600160a01b03918216600090815260086020908152604080832093909416825291909152205460ff1690565b3480156108c657600080fd5b5061032c6108d5366004612938565b611d29565b6108e2611dd3565b478281101561091d576040517f9abc749100000000000000000000000000000000000000000000000000000000815260040160405180910390fd5b6000826001600160a01b03168460405160006040518083038185875af1925050503d806000811461096a576040519150601f19603f3d011682016040523d82523d6000602084013e61096f565b606091505b50509050826001600160a01b0316847f8353ffcac0876ad14e226d9783c04540bfebf13871e868157d2a391cad98e91860405160405180910390a3806109e1576040517f27fcd9d100000000000000000000000000000000000000000000000000000000815260040160405180910390fd5b50505050565b60007f01ffc9a7000000000000000000000000000000000000000000000000000000007fffffffff0000000000000000000000000000000000000000000000000000000083161480610a7a57507f80ac58cd000000000000000000000000000000000000000000000000000000007fffffffff000000000000000000000000000000000000000000000000000000008316145b80610ac657507f5b5e139f000000000000000000000000000000000000000000000000000000007fffffffff000000000000000000000000000000000000000000000000000000008316145b92915050565b610ad4611dd3565b600e610ae1828483612c5b565b508181604051610af2929190612d58565b604051908190038120907f562bf0237fa5139edc73ec903039c3a552e19ae62cc8292da62afeea43024b0a90600090a25050565b606060038054610b3590612bc2565b80601f0160208091040260200160405190810160405280929190818152602001828054610b6190612bc2565b8015610bae5780601f10610b8357610100808354040283529160200191610bae565b820191906000526020600020905b815481529060010190602001808311610b9157829003601f168201915b5050505050905090565b6000610bc382611e47565b610bf9576040517fcf4700e400000000000000000000000000000000000000000000000000000000815260040160405180910390fd5b506000908152600760205260409020546001600160a01b031690565b600054421015610c51576040517fcfe89eac00000000000000000000000000000000000000000000000000000000815260040160405180910390fd5b6000610c5c82611678565b9050336001600160a01b03821614610ccb576001600160a01b038116600090815260086020908152604080832033845290915290205460ff16610ccb576040517fcfb3b94200000000000000000000000000000000000000000000000000000000815260040160405180910390fd5b60008281526007602052604080822080547fffffffffffffffffffffffff0000000000000000000000000000000000000000166001600160a01b0387811691821790925591518593918516917f8c5be1e5ebec7d5bd14f71427d1e84f3dd0314c0f7b2291e5b200ac8c7c3b92591a4505050565b6000600f6008610d67846001600160a01b031660009081526006602052604090205460c01c90565b67ffffffffffffffff16901c1692915050565b6000600f6004610d67846001600160a01b031660009081526006602052604090205460c01c90565b6000610dad82611e88565b9050836001600160a01b0316816001600160a01b031614610dfa576040517fa114810000000000000000000000000000000000000000000000000000000000815260040160405180910390fd5b60008281526007602052604090208054610e268187335b6001600160a01b039081169116811491141790565b610e87576001600160a01b038616600090815260086020908152604080832033845290915290205460ff16610e87576040517f59c896be00000000000000000000000000000000000000000000000000000000815260040160405180910390fd5b6001600160a01b038516610ec7576040517fea553b3400000000000000000000000000000000000000000000000000000000815260040160405180910390fd5b8015610ed257600082555b6001600160a01b0386811660009081526006602052604080822080547fffffffffffffffffffffffffffffffffffffffffffffffffffffffffffffffff019055918716808252919020805460010190554260a01b177c0200000000000000000000000000000000000000000000000000000000176000858152600560205260408120919091557c020000000000000000000000000000000000000000000000000000000084169003610fb457600184016000818152600560205260408120549003610fb2576001548114610fb25760008181526005602052604090208490555b505b83856001600160a01b0316876001600160a01b03167fddf252ad1be2c89b69c2b068fc378daa952ba7f163c4a11628f55a4df523b3ef60405160405180910390a45b505050505050565b323314611037576040517f7df1f81700000000000000000000000000000000000000000000000000000000815260040160405180910390fd5b8165ffffffffffff16600003611079576040517fccfad01800000000000000000000000000000000000000000000000000000000815260040160405180910390fd5b600d5467016345785d89ffff9061109990849065ffffffffffff16612d97565b65ffffffffffff1611156110d9576040517f2370216f00000000000000000000000000000000000000000000000000000000815260040160405180910390fd5b604080513360601b7fffffffffffffffffffffffffffffffffffffffff000000000000000000000000166020808301919091528251601481840301815260349092019092528051910120600f546001600160a01b03166111398284611f3f565b6001600160a01b031614611179576040517f8baa579f00000000000000000000000000000000000000000000000000000000815260040160405180910390fd5b33600090815260066020526040902054600d5460c082901c9160c41c600f169060ff670100000000000000909104166111ba65ffffffffffff871683612dbd565b67ffffffffffffffff1611156111fc576040517f26f890c400000000000000000000000000000000000000000000000000000000815260040160405180910390fd5b600c546112119065ffffffffffff8716612dde565b34101561124a576040517f356680b700000000000000000000000000000000000000000000000000000000815260040160405180910390fd5b61125c338665ffffffffffff16611f63565b600061127465fffffffffff0600488901b1684612dbd565b60405190915065ffffffffffff8716907ffe6e1ca872550191491b4763e196b78cd7b14cb2c5c8802a23eb6f8b81a16c7e90600090a2336000908152600660205260409020805477ffffffffffffffffffffffffffffffffffffffffffffffff1660c083901b179055600d80548791906000906112fa90849065ffffffffffff16612d97565b92506101000a81548165ffffffffffff021916908365ffffffffffff160217905550505050505050565b61132c611dd3565b6001600160a01b03811661136c576040517f2f0b133000000000000000000000000000000000000000000000000000000000815260040160405180910390fd5b600b80547fffffffffffffffffffffffff0000000000000000000000000000000000000000166001600160a01b0383169081179091556040517f27f7e73b60c62b7dcdd339f618e0bc4c1269544da183d9931c927facdbe801a290600090a250565b6113d6611dd3565b662386f26fc10000811015611417576040517f9713e00b00000000000000000000000000000000000000000000000000000000815260040160405180910390fd5b600c81905560405181907f7d4366e70f76342b93de4f6d6a7db9ce74705441e46d25d0aea894b430d28b3990600090a250565b61146583838360405180602001604052806000815250611b37565b505050565b6114743382612094565b6114aa576040517fb5b5504400000000000000000000000000000000000000000000000000000000815260040160405180910390fd5b6114b5816001612113565b60405181907fb90306ad06b2a6ff86ddc9327db583062895ef6540e62dc50add009db5b356eb90600090a250565b6114eb611dd3565b600d5468010000000000000000900460ff1665ffffffffffff8216111561153e576040517f2370216f00000000000000000000000000000000000000000000000000000000815260040160405180910390fd5b600d5467016345785d89ffff9061155e90839065ffffffffffff16612d97565b65ffffffffffff16111561159e576040517f2370216f00000000000000000000000000000000000000000000000000000000815260040160405180910390fd5b6115b0828265ffffffffffff16611f63565b600d80548291906000906115cd90849065ffffffffffff16612d97565b92506101000a81548165ffffffffffff021916908365ffffffffffff1602179055505050565b60008042610ac6565b611604611dd3565b662386f26fc10000811015611645576040517f9713e00b00000000000000000000000000000000000000000000000000000000815260040160405180910390fd5b600a81905560405181907fda25869ecc04491e922bb8c554c6ef8967b063207ae489515c67ace4e304b32790600090a250565b6000610ac682611e88565b61168b611dd3565b6001600160a01b0381166116cb576040517f4501a91900000000000000000000000000000000000000000000000000000000815260040160405180910390fd5b600f80547fffffffffffffffffffffffff0000000000000000000000000000000000000000166001600160a01b0383169081179091556040517f6ea2fb3867a79708e9bd062b37ea354558c90c22f74c1f3061e0a2b4b8d6f38c90600090a250565b60006001600160a01b03821661176f576040517f8f4eb60400000000000000000000000000000000000000000000000000000000815260040160405180910390fd5b506001600160a01b031660009081526006602052604090205467ffffffffffffffff1690565b61179d611dd3565b6117a760006122c6565b565b60006117b3611dd3565b50600f546001600160a01b031690565b6000600f600c610d67846001600160a01b031660009081526006602052604090205460c01c90565b606060048054610b3590612bc2565b600054421015611836576040517fcfe89eac00000000000000000000000000000000000000000000000000000000815260040160405180910390fd5b3360008181526008602090815260408083206001600160a01b0387168085529083529281902080547fffffffffffffffffffffffffffffffffffffffffffffffffffffffffffffff001686151590811790915590519081529192917f17307eab39ab6107e8899845ad3d59bd9653f200f220920489ca2b5937696c31910160405180910390a35050565b3233146118f9576040517f7df1f81700000000000000000000000000000000000000000000000000000000815260040160405180910390fd5b600d54819067016345785d89ffff9061191b90839065ffffffffffff16612d97565b65ffffffffffff161115611990576040517f08c379a000000000000000000000000000000000000000000000000000000000815260206004820152601460248201527f4d617820737570706c792065786365656465642100000000000000000000000060448201526064015b60405180910390fd5b8165ffffffffffff166000036119d2576040517fccfad01800000000000000000000000000000000000000000000000000000000815260040160405180910390fd5b600d5467016345785d89ffff906119f290849065ffffffffffff16612d97565b65ffffffffffff161115611a32576040517f2370216f00000000000000000000000000000000000000000000000000000000815260040160405180910390fd5b600b546001600160a01b031615611a8757600b546001600160a01b03163314611a87576040517f2f0b133000000000000000000000000000000000000000000000000000000000815260040160405180910390fd5b600a54611a9c9065ffffffffffff8416612dde565b341015611ad5576040517f356680b700000000000000000000000000000000000000000000000000000000815260040160405180910390fd5b611ae7338365ffffffffffff16611f63565b60405165ffffffffffff8316907ffe6e1ca872550191491b4763e196b78cd7b14cb2c5c8802a23eb6f8b81a16c7e90600090a2600d80548391906000906115cd90849065ffffffffffff16612d97565b611b42848484610da2565b6001600160a01b0383163b156109e157611b5e84848484612330565b6109e1576040517fd1a57ed600000000000000000000000000000000000000000000000000000000815260040160405180910390fd5b6060611b9f82611e47565b611bd5576040517fa14c4b5000000000000000000000000000000000000000000000000000000000815260040160405180910390fd5b6000611bdf61247e565b90508051600003611bff5760405180602001604052806000815250611c2a565b80611c098461248d565b604051602001611c1a929190612df5565b6040516020818303038152906040525b9392505050565b611c39611dd3565b611c4281600055565b60405181907f01533478951372138a2194c99334f1967a30665da490f70902df4770beee356790600090a250565b6001600160a01b0381166000908152600660205260408082205467ffffffffffffffff911c16610ac6565b600e8054611ca890612bc2565b80601f0160208091040260200160405190810160405280929190818152602001828054611cd490612bc2565b8015611d215780601f10611cf657610100808354040283529160200191611d21565b820191906000526020600020905b815481529060010190602001808311611d0457829003601f168201915b505050505081565b611d31611dd3565b6001600160a01b038116611dc7576040517f08c379a000000000000000000000000000000000000000000000000000000000815260206004820152602660248201527f4f776e61626c653a206e6577206f776e657220697320746865207a65726f206160448201527f64647265737300000000000000000000000000000000000000000000000000006064820152608401611987565b611dd0816122c6565b50565b6009546001600160a01b031633146117a7576040517f08c379a000000000000000000000000000000000000000000000000000000000815260206004820181905260248201527f4f776e61626c653a2063616c6c6572206973206e6f7420746865206f776e65726044820152606401611987565b600060015482108015610ac65750506000908152600560205260409020547c0100000000000000000000000000000000000000000000000000000000161590565b600081600154811015611f0d57600081815260056020526040812054907c010000000000000000000000000000000000000000000000000000000082169003611f0b575b80600003611c2a57507fffffffffffffffffffffffffffffffffffffffffffffffffffffffffffffffff01600081815260056020526040902054611ecc565b505b6040517fdf2d9b4200000000000000000000000000000000000000000000000000000000815260040160405180910390fd5b6000806000611f4e85856124d1565b91509150611f5b81612516565b509392505050565b6001546000829003611fa1576040517fb562e8dd00000000000000000000000000000000000000000000000000000000815260040160405180910390fd5b6001600160a01b03831660008181526006602090815260408083208054680100000000000000018802019055848352600590915281206001851460e11b4260a01b178317905582840190839083907fddf252ad1be2c89b69c2b068fc378daa952ba7f163c4a11628f55a4df523b3ef8180a4600183015b81811461205057808360007fddf252ad1be2c89b69c2b068fc378daa952ba7f163c4a11628f55a4df523b3ef600080a4600101612018565b508160000361208b576040517f2e07630000000000000000000000000000000000000000000000000000000000815260040160405180910390fd5b60015550505050565b6000806120a083611678565b9050806001600160a01b0316846001600160a01b031614806120e757506001600160a01b0380821660009081526008602090815260408083209388168352929052205460ff165b8061210b5750836001600160a01b031661210084610bb8565b6001600160a01b0316145b949350505050565b600061211e83611e88565b90508060008061213c86600090815260076020526040902080549091565b9150915084156121b257612151818433610e11565b6121b2576001600160a01b038316600090815260086020908152604080832033845290915290205460ff166121b2576040517f59c896be00000000000000000000000000000000000000000000000000000000815260040160405180910390fd5b80156121bd57600082555b6001600160a01b038316600081815260066020526040902080546fffffffffffffffffffffffffffffffff0190554260a01b177c0300000000000000000000000000000000000000000000000000000000176000878152600560205260408120919091557c02000000000000000000000000000000000000000000000000000000008516900361227d5760018601600081815260056020526040812054900361227b57600154811461227b5760008181526005602052604090208590555b505b60405186906000906001600160a01b038616907fddf252ad1be2c89b69c2b068fc378daa952ba7f163c4a11628f55a4df523b3ef908390a4505060028054600101905550505050565b600980546001600160a01b038381167fffffffffffffffffffffffff0000000000000000000000000000000000000000831681179093556040519116919082907f8be0079c531659141344cd1fd0a4f28419497f9722a3daafe3b4186f6b6457e090600090a35050565b6040517f150b7a020000000000000000000000000000000000000000000000000000000081526000906001600160a01b0385169063150b7a029061237e903390899088908890600401612e24565b6020604051808303816000875af19250505080156123b9575060408051601f3d908101601f191682019092526123b691810190612e60565b60015b612430573d8080156123e7576040519150601f19603f3d011682016040523d82523d6000602084013e6123ec565b606091505b508051600003612428576040517fd1a57ed600000000000000000000000000000000000000000000000000000000815260040160405180910390fd5b805181602001fd5b7fffffffff00000000000000000000000000000000000000000000000000000000167f150b7a0200000000000000000000000000000000000000000000000000000000149050949350505050565b6060600e8054610b3590612bc2565b606060a06040510180604052602081039150506000815280825b600183039250600a81066030018353600a9004806124a75750819003601f19909101908152919050565b60008082516041036125075760208301516040840151606085015160001a6124fb878285856126c9565b9450945050505061250f565b506000905060025b9250929050565b600081600481111561252a5761252a612e7d565b036125325750565b600181600481111561254657612546612e7d565b036125ad576040517f08c379a000000000000000000000000000000000000000000000000000000000815260206004820152601860248201527f45434453413a20696e76616c6964207369676e617475726500000000000000006044820152606401611987565b60028160048111156125c1576125c1612e7d565b03612628576040517f08c379a000000000000000000000000000000000000000000000000000000000815260206004820152601f60248201527f45434453413a20696e76616c6964207369676e6174757265206c656e677468006044820152606401611987565b600381600481111561263c5761263c612e7d565b03611dd0576040517f08c379a000000000000000000000000000000000000000000000000000000000815260206004820152602260248201527f45434453413a20696e76616c6964207369676e6174757265202773272076616c60448201527f75650000000000000000000000000000000000000000000000000000000000006064820152608401611987565b6000807f7fffffffffffffffffffffffffffffff5d576e7357a4501ddfe92f46681b20a08311156127005750600090506003612784565b6040805160008082526020820180845289905260ff881692820192909252606081018690526080810185905260019060a0016020604051602081039080840390855afa158015612754573d6000803e3d6000fd5b5050604051601f1901519150506001600160a01b03811661277d57600060019250925050612784565b9150600090505b94509492505050565b80356001600160a01b03811681146127a457600080fd5b919050565b600080604083850312156127bc57600080fd5b823591506127cc6020840161278d565b90509250929050565b7fffffffff0000000000000000000000000000000000000000000000000000000081168114611dd057600080fd5b60006020828403121561281557600080fd5b8135611c2a816127d5565b6000806020838503121561283357600080fd5b823567ffffffffffffffff8082111561284b57600080fd5b818501915085601f83011261285f57600080fd5b81358181111561286e57600080fd5b86602082850101111561288057600080fd5b60209290920196919550909350505050565b60005b838110156128ad578181015183820152602001612895565b50506000910152565b600081518084526128ce816020860160208601612892565b601f01601f19169290920160200192915050565b602081526000611c2a60208301846128b6565b60006020828403121561290757600080fd5b5035919050565b6000806040838503121561292157600080fd5b61292a8361278d565b946020939093013593505050565b60006020828403121561294a57600080fd5b611c2a8261278d565b60008060006060848603121561296857600080fd5b6129718461278d565b925061297f6020850161278d565b9150604084013590509250925092565b803565ffffffffffff811681146127a457600080fd5b7f4e487b7100000000000000000000000000000000000000000000000000000000600052604160045260246000fd5b600082601f8301126129e557600080fd5b813567ffffffffffffffff80821115612a0057612a006129a5565b604051601f8301601f19908116603f01168101908282118183101715612a2857612a286129a5565b81604052838152866020858801011115612a4157600080fd5b836020870160208301376000602085830101528094505050505092915050565b60008060408385031215612a7457600080fd5b612a7d8361298f565b9150602083013567ffffffffffffffff811115612a9957600080fd5b612aa5858286016129d4565b9150509250929050565b60008060408385031215612ac257600080fd5b612acb8361278d565b91506127cc6020840161298f565b60008060408385031215612aec57600080fd5b612af58361278d565b915060208301358015158114612b0a57600080fd5b809150509250929050565b600060208284031215612b2757600080fd5b611c2a8261298f565b60008060008060808587031215612b4657600080fd5b612b4f8561278d565b9350612b5d6020860161278d565b925060408501359150606085013567ffffffffffffffff811115612b8057600080fd5b612b8c878288016129d4565b91505092959194509250565b60008060408385031215612bab57600080fd5b612bb48361278d565b91506127cc6020840161278d565b600181811c90821680612bd657607f821691505b602082108103612c0f577f4e487b7100000000000000000000000000000000000000000000000000000000600052602260045260246000fd5b50919050565b601f82111561146557600081815260208120601f850160051c81016020861015612c3c5750805b601f850160051c820191505b81811015610ff657828155600101612c48565b67ffffffffffffffff831115612c7357612c736129a5565b612c8783612c818354612bc2565b83612c15565b6000601f841160018114612cd95760008515612ca35750838201355b7fffffffffffffffffffffffffffffffffffffffffffffffffffffffffffffffff600387901b1c1916600186901b178355612d51565b600083815260209020601f19861690835b82811015612d0a5786850135825560209485019460019092019101612cea565b5086821015612d45577fffffffffffffffffffffffffffffffffffffffffffffffffffffffffffffffff60f88860031b161c19848701351681555b505060018560011b0183555b5050505050565b8183823760009101908152919050565b7f4e487b7100000000000000000000000000000000000000000000000000000000600052601160045260246000fd5b65ffffffffffff818116838216019080821115612db657612db6612d68565b5092915050565b67ffffffffffffffff818116838216019080821115612db657612db6612d68565b8082028115828204841417610ac657610ac6612d68565b60008351612e07818460208801612892565b835190830190612e1b818360208801612892565b01949350505050565b60006001600160a01b03808716835280861660208401525083604083015260806060830152612e5660808301846128b6565b9695505050505050565b600060208284031215612e7257600080fd5b8151611c2a816127d5565b7f4e487b7100000000000000000000000000000000000000000000000000000000600052602160045260246000fdfea26469706673582212204bcc02870dddf9d8b75767311681f7bde726c326259f1b71dc04d121bf76f21964736f6c63430008110033",
			"opcodes": "PUSH1 0x80 PUSH1 0x40 MSTORE PUSH1 0x0 DUP1 SSTORE PUSH7 0x7C585087238000 PUSH1 0xA SSTORE PUSH1 0xB DUP1 SLOAD PUSH1 0x1 PUSH1 0x1 PUSH1 0xA0 SHL SUB NOT SWAP1 DUP2 AND SWAP1 SWAP2 SSTORE PUSH7 0x6A94D74F430000 PUSH1 0xC SSTORE PUSH1 0xD DUP1 SLOAD PUSH9 0x20202000000000000 PUSH1 0x1 PUSH1 0x1 PUSH1 0x48 SHL SUB NOT SWAP1 SWAP2 AND OR SWAP1 SSTORE PUSH1 0xF DUP1 SLOAD SWAP1 SWAP2 AND PUSH20 0xBE1A47ADA1A649FFAE7F3927AFD10568297A7A8 OR SWAP1 SSTORE CALLVALUE DUP1 ISZERO PUSH3 0x7A JUMPI PUSH1 0x0 DUP1 REVERT JUMPDEST POP PUSH1 0x40 DUP1 MLOAD DUP1 DUP3 ADD DUP3 MSTORE PUSH1 0x8 DUP1 DUP3 MSTORE PUSH8 0x15195CDD109D5B1B PUSH1 0xC2 SHL PUSH1 0x20 DUP1 DUP5 ADD DUP3 SWAP1 MSTORE DUP5 MLOAD DUP1 DUP7 ADD SWAP1 SWAP6 MSTORE SWAP2 DUP5 MSTORE SWAP1 DUP4 ADD MSTORE SWAP1 PUSH1 0x3 PUSH3 0xBB DUP4 DUP3 PUSH3 0x1DA JUMP JUMPDEST POP PUSH1 0x4 PUSH3 0xCA DUP3 DUP3 PUSH3 0x1DA JUMP JUMPDEST POP POP PUSH1 0x0 PUSH1 0x1 SSTORE POP PUSH3 0xDD CALLER PUSH3 0xE3 JUMP JUMPDEST PUSH3 0x2A6 JUMP JUMPDEST PUSH1 0x9 DUP1 SLOAD PUSH1 0x1 PUSH1 0x1 PUSH1 0xA0 SHL SUB DUP4 DUP2 AND PUSH1 0x1 PUSH1 0x1 PUSH1 0xA0 SHL SUB NOT DUP4 AND DUP2 OR SWAP1 SWAP4 SSTORE PUSH1 0x40 MLOAD SWAP2 AND SWAP2 SWAP1 DUP3 SWAP1 PUSH32 0x8BE0079C531659141344CD1FD0A4F28419497F9722A3DAAFE3B4186F6B6457E0 SWAP1 PUSH1 0x0 SWAP1 LOG3 POP POP JUMP JUMPDEST PUSH4 0x4E487B71 PUSH1 0xE0 SHL PUSH1 0x0 MSTORE PUSH1 0x41 PUSH1 0x4 MSTORE PUSH1 0x24 PUSH1 0x0 REVERT JUMPDEST PUSH1 0x1 DUP2 DUP2 SHR SWAP1 DUP3 AND DUP1 PUSH3 0x160 JUMPI PUSH1 0x7F DUP3 AND SWAP2 POP JUMPDEST PUSH1 0x20 DUP3 LT DUP2 SUB PUSH3 0x181 JUMPI PUSH4 0x4E487B71 PUSH1 0xE0 SHL PUSH1 0x0 MSTORE PUSH1 0x22 PUSH1 0x4 MSTORE PUSH1 0x24 PUSH1 0x0 REVERT JUMPDEST POP SWAP2 SWAP1 POP JUMP JUMPDEST PUSH1 0x1F DUP3 GT ISZERO PUSH3 0x1D5 JUMPI PUSH1 0x0 DUP2 DUP2 MSTORE PUSH1 0x20 DUP2 KECCAK256 PUSH1 0x1F DUP6 ADD PUSH1 0x5 SHR DUP2 ADD PUSH1 0x20 DUP7 LT ISZERO PUSH3 0x1B0 JUMPI POP DUP1 JUMPDEST PUSH1 0x1F DUP6 ADD PUSH1 0x5 SHR DUP3 ADD SWAP2 POP JUMPDEST DUP2 DUP2 LT ISZERO PUSH3 0x1D1 JUMPI DUP3 DUP2 SSTORE PUSH1 0x1 ADD PUSH3 0x1BC JUMP JUMPDEST POP POP POP JUMPDEST POP POP POP JUMP JUMPDEST DUP2 MLOAD PUSH1 0x1 PUSH1 0x1 PUSH1 0x40 SHL SUB DUP2 GT ISZERO PUSH3 0x1F6 JUMPI PUSH3 0x1F6 PUSH3 0x135 JUMP JUMPDEST PUSH3 0x20E DUP2 PUSH3 0x207 DUP5 SLOAD PUSH3 0x14B JUMP JUMPDEST DUP5 PUSH3 0x187 JUMP JUMPDEST PUSH1 0x20 DUP1 PUSH1 0x1F DUP4 GT PUSH1 0x1 DUP2 EQ PUSH3 0x246 JUMPI PUSH1 0x0 DUP5 ISZERO PUSH3 0x22D JUMPI POP DUP6 DUP4 ADD MLOAD JUMPDEST PUSH1 0x0 NOT PUSH1 0x3 DUP7 SWAP1 SHL SHR NOT AND PUSH1 0x1 DUP6 SWAP1 SHL OR DUP6 SSTORE PUSH3 0x1D1 JUMP JUMPDEST PUSH1 0x0 DUP6 DUP2 MSTORE PUSH1 0x20 DUP2 KECCAK256 PUSH1 0x1F NOT DUP7 AND SWAP2 JUMPDEST DUP3 DUP2 LT ISZERO PUSH3 0x277 JUMPI DUP9 DUP7 ADD MLOAD DUP3 SSTORE SWAP5 DUP5 ADD SWAP5 PUSH1 0x1 SWAP1 SWAP2 ADD SWAP1 DUP5 ADD PUSH3 0x256 JUMP JUMPDEST POP DUP6 DUP3 LT ISZERO PUSH3 0x296 JUMPI DUP8 DUP6 ADD MLOAD PUSH1 0x0 NOT PUSH1 0x3 DUP9 SWAP1 SHL PUSH1 0xF8 AND SHR NOT AND DUP2 SSTORE JUMPDEST POP POP POP POP POP PUSH1 0x1 SWAP1 DUP2 SHL ADD SWAP1 SSTORE POP JUMP JUMPDEST PUSH2 0x2EE2 DUP1 PUSH3 0x2B6 PUSH1 0x0 CODECOPY PUSH1 0x0 RETURN INVALID PUSH1 0x80 PUSH1 0x40 MSTORE PUSH1 0x4 CALLDATASIZE LT PUSH2 0x307 JUMPI PUSH1 0x0 CALLDATALOAD PUSH1 0xE0 SHR DUP1 PUSH4 0x5D82CF6E GT PUSH2 0x19A JUMPI DUP1 PUSH4 0xA22CB465 GT PUSH2 0xE1 JUMPI DUP1 PUSH4 0xC87B56DD GT PUSH2 0x8A JUMPI DUP1 PUSH4 0xE1911D70 GT PUSH2 0x64 JUMPI DUP1 PUSH4 0xE1911D70 EQ PUSH2 0x85C JUMPI DUP1 PUSH4 0xE985E9C5 EQ PUSH2 0x871 JUMPI DUP1 PUSH4 0xF2FDE38B EQ PUSH2 0x8BA JUMPI PUSH1 0x0 DUP1 REVERT JUMPDEST DUP1 PUSH4 0xC87B56DD EQ PUSH2 0x7FC JUMPI DUP1 PUSH4 0xD2E21B13 EQ PUSH2 0x81C JUMPI DUP1 PUSH4 0xDC33E681 EQ PUSH2 0x83C JUMPI PUSH1 0x0 DUP1 REVERT JUMPDEST DUP1 PUSH4 0xB88D4FDE GT PUSH2 0xBB JUMPI DUP1 PUSH4 0xB88D4FDE EQ PUSH2 0x7B5 JUMPI DUP1 PUSH4 0xBECD61D8 EQ PUSH2 0x7C8 JUMPI DUP1 PUSH4 0xC50497AE EQ PUSH2 0x7DD JUMPI PUSH1 0x0 DUP1 REVERT JUMPDEST DUP1 PUSH4 0xA22CB465 EQ PUSH2 0x76C JUMPI DUP1 PUSH4 0xAD570DD5 EQ PUSH2 0x78C JUMPI DUP1 PUSH4 0xB079FE74 EQ PUSH2 0x7A2 JUMPI PUSH1 0x0 DUP1 REVERT JUMPDEST DUP1 PUSH4 0x7AC3C02F GT PUSH2 0x143 JUMPI DUP1 PUSH4 0x8C1B346F GT PUSH2 0x11D JUMPI DUP1 PUSH4 0x8C1B346F EQ PUSH2 0x719 JUMPI DUP1 PUSH4 0x8DA5CB5B EQ PUSH2 0x739 JUMPI DUP1 PUSH4 0x95D89B41 EQ PUSH2 0x757 JUMPI PUSH1 0x0 DUP1 REVERT JUMPDEST DUP1 PUSH4 0x7AC3C02F EQ PUSH2 0x6C0 JUMPI DUP1 PUSH4 0x8342083A EQ PUSH2 0x6D5 JUMPI DUP1 PUSH4 0x8535923F EQ PUSH2 0x6F9 JUMPI PUSH1 0x0 DUP1 REVERT JUMPDEST DUP1 PUSH4 0x6C19E783 GT PUSH2 0x174 JUMPI DUP1 PUSH4 0x6C19E783 EQ PUSH2 0x66B JUMPI DUP1 PUSH4 0x70A08231 EQ PUSH2 0x68B JUMPI DUP1 PUSH4 0x715018A6 EQ PUSH2 0x6AB JUMPI PUSH1 0x0 DUP1 REVERT JUMPDEST DUP1 PUSH4 0x5D82CF6E EQ PUSH2 0x615 JUMPI DUP1 PUSH4 0x611F3F10 EQ PUSH2 0x635 JUMPI DUP1 PUSH4 0x6352211E EQ PUSH2 0x64B JUMPI PUSH1 0x0 DUP1 REVERT JUMPDEST DUP1 PUSH4 0x22FA3DFA GT PUSH2 0x25E JUMPI DUP1 PUSH4 0x3D272294 GT PUSH2 0x207 JUMPI DUP1 PUSH4 0x4312DC7C GT PUSH2 0x1E1 JUMPI DUP1 PUSH4 0x4312DC7C EQ PUSH2 0x5C0 JUMPI DUP1 PUSH4 0x46F0975A EQ PUSH2 0x5E0 JUMPI DUP1 PUSH4 0x557ED1BA EQ PUSH2 0x600 JUMPI PUSH1 0x0 DUP1 REVERT JUMPDEST DUP1 PUSH4 0x3D272294 EQ PUSH2 0x56D JUMPI DUP1 PUSH4 0x42842E0E EQ PUSH2 0x58D JUMPI DUP1 PUSH4 0x42966C68 EQ PUSH2 0x5A0 JUMPI PUSH1 0x0 DUP1 REVERT JUMPDEST DUP1 PUSH4 0x2A51A8E2 GT PUSH2 0x238 JUMPI DUP1 PUSH4 0x2A51A8E2 EQ PUSH2 0x50C JUMPI DUP1 PUSH4 0x32CB6B0C EQ PUSH2 0x531 JUMPI DUP1 PUSH4 0x33171B93 EQ PUSH2 0x54D JUMPI PUSH1 0x0 DUP1 REVERT JUMPDEST DUP1 PUSH4 0x22FA3DFA EQ PUSH2 0x4C6 JUMPI DUP1 PUSH4 0x23B872DD EQ PUSH2 0x4E6 JUMPI DUP1 PUSH4 0x25D82002 EQ PUSH2 0x4F9 JUMPI PUSH1 0x0 DUP1 REVERT JUMPDEST DUP1 PUSH4 0x95EA7B3 GT PUSH2 0x2C0 JUMPI DUP1 PUSH4 0x18F0C43E GT PUSH2 0x29A JUMPI DUP1 PUSH4 0x18F0C43E EQ PUSH2 0x440 JUMPI DUP1 PUSH4 0x1A6EEDB4 EQ PUSH2 0x478 JUMPI DUP1 PUSH4 0x1D5A7E96 EQ PUSH2 0x4B1 JUMPI PUSH1 0x0 DUP1 REVERT JUMPDEST DUP1 PUSH4 0x95EA7B3 EQ PUSH2 0x3DD JUMPI DUP1 PUSH4 0x144A79E3 EQ PUSH2 0x3F0 JUMPI DUP1 PUSH4 0x18160DDD EQ PUSH2 0x41D JUMPI PUSH1 0x0 DUP1 REVERT JUMPDEST DUP1 PUSH4 0x2FE5305 GT PUSH2 0x2F1 JUMPI DUP1 PUSH4 0x2FE5305 EQ PUSH2 0x363 JUMPI DUP1 PUSH4 0x6FDDE03 EQ PUSH2 0x383 JUMPI DUP1 PUSH4 0x81812FC EQ PUSH2 0x3A5 JUMPI PUSH1 0x0 DUP1 REVERT JUMPDEST DUP1 PUSH3 0xF714CE EQ PUSH2 0x30C JUMPI DUP1 PUSH4 0x1FFC9A7 EQ PUSH2 0x32E JUMPI JUMPDEST PUSH1 0x0 DUP1 REVERT JUMPDEST CALLVALUE DUP1 ISZERO PUSH2 0x318 JUMPI PUSH1 0x0 DUP1 REVERT JUMPDEST POP PUSH2 0x32C PUSH2 0x327 CALLDATASIZE PUSH1 0x4 PUSH2 0x27A9 JUMP JUMPDEST PUSH2 0x8DA JUMP JUMPDEST STOP JUMPDEST CALLVALUE DUP1 ISZERO PUSH2 0x33A JUMPI PUSH1 0x0 DUP1 REVERT JUMPDEST POP PUSH2 0x34E PUSH2 0x349 CALLDATASIZE PUSH1 0x4 PUSH2 0x2803 JUMP JUMPDEST PUSH2 0x9E7 JUMP JUMPDEST PUSH1 0x40 MLOAD SWAP1 ISZERO ISZERO DUP2 MSTORE PUSH1 0x20 ADD JUMPDEST PUSH1 0x40 MLOAD DUP1 SWAP2 SUB SWAP1 RETURN JUMPDEST CALLVALUE DUP1 ISZERO PUSH2 0x36F JUMPI PUSH1 0x0 DUP1 REVERT JUMPDEST POP PUSH2 0x32C PUSH2 0x37E CALLDATASIZE PUSH1 0x4 PUSH2 0x2820 JUMP JUMPDEST PUSH2 0xACC JUMP JUMPDEST CALLVALUE DUP1 ISZERO PUSH2 0x38F JUMPI PUSH1 0x0 DUP1 REVERT JUMPDEST POP PUSH2 0x398 PUSH2 0xB26 JUMP JUMPDEST PUSH1 0x40 MLOAD PUSH2 0x35A SWAP2 SWAP1 PUSH2 0x28E2 JUMP JUMPDEST CALLVALUE DUP1 ISZERO PUSH2 0x3B1 JUMPI PUSH1 0x0 DUP1 REVERT JUMPDEST POP PUSH2 0x3C5 PUSH2 0x3C0 CALLDATASIZE PUSH1 0x4 PUSH2 0x28F5 JUMP JUMPDEST PUSH2 0xBB8 JUMP JUMPDEST PUSH1 0x40 MLOAD PUSH1 0x1 PUSH1 0x1 PUSH1 0xA0 SHL SUB SWAP1 SWAP2 AND DUP2 MSTORE PUSH1 0x20 ADD PUSH2 0x35A JUMP JUMPDEST PUSH2 0x32C PUSH2 0x3EB CALLDATASIZE PUSH1 0x4 PUSH2 0x290E JUMP JUMPDEST PUSH2 0xC15 JUMP JUMPDEST CALLVALUE DUP1 ISZERO PUSH2 0x3FC JUMPI PUSH1 0x0 DUP1 REVERT JUMPDEST POP PUSH2 0x406 PUSH2 0xFFF DUP2 JUMP JUMPDEST PUSH1 0x40 MLOAD PUSH6 0xFFFFFFFFFFFF SWAP1 SWAP2 AND DUP2 MSTORE PUSH1 0x20 ADD PUSH2 0x35A JUMP JUMPDEST CALLVALUE DUP1 ISZERO PUSH2 0x429 JUMPI PUSH1 0x0 DUP1 REVERT JUMPDEST POP PUSH1 0x2 SLOAD PUSH1 0x1 SLOAD SUB JUMPDEST PUSH1 0x40 MLOAD SWAP1 DUP2 MSTORE PUSH1 0x20 ADD PUSH2 0x35A JUMP JUMPDEST CALLVALUE DUP1 ISZERO PUSH2 0x44C JUMPI PUSH1 0x0 DUP1 REVERT JUMPDEST POP PUSH1 0xD SLOAD PUSH2 0x466 SWAP1 PUSH9 0x10000000000000000 SWAP1 DIV PUSH1 0xFF AND DUP2 JUMP JUMPDEST PUSH1 0x40 MLOAD PUSH1 0xFF SWAP1 SWAP2 AND DUP2 MSTORE PUSH1 0x20 ADD PUSH2 0x35A JUMP JUMPDEST CALLVALUE DUP1 ISZERO PUSH2 0x484 JUMPI PUSH1 0x0 DUP1 REVERT JUMPDEST POP PUSH2 0x498 PUSH2 0x493 CALLDATASIZE PUSH1 0x4 PUSH2 0x2938 JUMP JUMPDEST PUSH2 0xD3F JUMP JUMPDEST PUSH1 0x40 MLOAD PUSH8 0xFFFFFFFFFFFFFFFF SWAP1 SWAP2 AND DUP2 MSTORE PUSH1 0x20 ADD PUSH2 0x35A JUMP JUMPDEST CALLVALUE DUP1 ISZERO PUSH2 0x4BD JUMPI PUSH1 0x0 DUP1 REVERT JUMPDEST POP PUSH1 0x0 SLOAD PUSH2 0x432 JUMP JUMPDEST CALLVALUE DUP1 ISZERO PUSH2 0x4D2 JUMPI PUSH1 0x0 DUP1 REVERT JUMPDEST POP PUSH2 0x498 PUSH2 0x4E1 CALLDATASIZE PUSH1 0x4 PUSH2 0x2938 JUMP JUMPDEST PUSH2 0xD7A JUMP JUMPDEST PUSH2 0x32C PUSH2 0x4F4 CALLDATASIZE PUSH1 0x4 PUSH2 0x2953 JUMP JUMPDEST PUSH2 0xDA2 JUMP JUMPDEST PUSH2 0x32C PUSH2 0x507 CALLDATASIZE PUSH1 0x4 PUSH2 0x2A61 JUMP JUMPDEST PUSH2 0xFFE JUMP JUMPDEST CALLVALUE DUP1 ISZERO PUSH2 0x518 JUMPI PUSH1 0x0 DUP1 REVERT JUMPDEST POP PUSH1 0xD SLOAD PUSH2 0x466 SWAP1 PUSH8 0x100000000000000 SWAP1 DIV PUSH1 0xFF AND DUP2 JUMP JUMPDEST CALLVALUE DUP1 ISZERO PUSH2 0x53D JUMPI PUSH1 0x0 DUP1 REVERT JUMPDEST POP PUSH2 0x432 PUSH8 0x16345785D89FFFF DUP2 JUMP JUMPDEST CALLVALUE DUP1 ISZERO PUSH2 0x559 JUMPI PUSH1 0x0 DUP1 REVERT JUMPDEST POP PUSH2 0x32C PUSH2 0x568 CALLDATASIZE PUSH1 0x4 PUSH2 0x2938 JUMP JUMPDEST PUSH2 0x1324 JUMP JUMPDEST CALLVALUE DUP1 ISZERO PUSH2 0x579 JUMPI PUSH1 0x0 DUP1 REVERT JUMPDEST POP PUSH2 0x32C PUSH2 0x588 CALLDATASIZE PUSH1 0x4 PUSH2 0x28F5 JUMP JUMPDEST PUSH2 0x13CE JUMP JUMPDEST PUSH2 0x32C PUSH2 0x59B CALLDATASIZE PUSH1 0x4 PUSH2 0x2953 JUMP JUMPDEST PUSH2 0x144A JUMP JUMPDEST CALLVALUE DUP1 ISZERO PUSH2 0x5AC JUMPI PUSH1 0x0 DUP1 REVERT JUMPDEST POP PUSH2 0x32C PUSH2 0x5BB CALLDATASIZE PUSH1 0x4 PUSH2 0x28F5 JUMP JUMPDEST PUSH2 0x146A JUMP JUMPDEST CALLVALUE DUP1 ISZERO PUSH2 0x5CC JUMPI PUSH1 0x0 DUP1 REVERT JUMPDEST POP PUSH2 0x32C PUSH2 0x5DB CALLDATASIZE PUSH1 0x4 PUSH2 0x2AAF JUMP JUMPDEST PUSH2 0x14E3 JUMP JUMPDEST CALLVALUE DUP1 ISZERO PUSH2 0x5EC JUMPI PUSH1 0x0 DUP1 REVERT JUMPDEST POP PUSH1 0xF SLOAD PUSH2 0x3C5 SWAP1 PUSH1 0x1 PUSH1 0x1 PUSH1 0xA0 SHL SUB AND DUP2 JUMP JUMPDEST CALLVALUE DUP1 ISZERO PUSH2 0x60C JUMPI PUSH1 0x0 DUP1 REVERT JUMPDEST POP PUSH2 0x432 PUSH2 0x15F3 JUMP JUMPDEST CALLVALUE DUP1 ISZERO PUSH2 0x621 JUMPI PUSH1 0x0 DUP1 REVERT JUMPDEST POP PUSH2 0x32C PUSH2 0x630 CALLDATASIZE PUSH1 0x4 PUSH2 0x28F5 JUMP JUMPDEST PUSH2 0x15FC JUMP JUMPDEST CALLVALUE DUP1 ISZERO PUSH2 0x641 JUMPI PUSH1 0x0 DUP1 REVERT JUMPDEST POP PUSH2 0x432 PUSH1 0xA SLOAD DUP2 JUMP JUMPDEST CALLVALUE DUP1 ISZERO PUSH2 0x657 JUMPI PUSH1 0x0 DUP1 REVERT JUMPDEST POP PUSH2 0x3C5 PUSH2 0x666 CALLDATASIZE PUSH1 0x4 PUSH2 0x28F5 JUMP JUMPDEST PUSH2 0x1678 JUMP JUMPDEST CALLVALUE DUP1 ISZERO PUSH2 0x677 JUMPI PUSH1 0x0 DUP1 REVERT JUMPDEST POP PUSH2 0x32C PUSH2 0x686 CALLDATASIZE PUSH1 0x4 PUSH2 0x2938 JUMP JUMPDEST PUSH2 0x1683 JUMP JUMPDEST CALLVALUE DUP1 ISZERO PUSH2 0x697 JUMPI PUSH1 0x0 DUP1 REVERT JUMPDEST POP PUSH2 0x432 PUSH2 0x6A6 CALLDATASIZE PUSH1 0x4 PUSH2 0x2938 JUMP JUMPDEST PUSH2 0x172D JUMP JUMPDEST CALLVALUE DUP1 ISZERO PUSH2 0x6B7 JUMPI PUSH1 0x0 DUP1 REVERT JUMPDEST POP PUSH2 0x32C PUSH2 0x1795 JUMP JUMPDEST CALLVALUE DUP1 ISZERO PUSH2 0x6CC JUMPI PUSH1 0x0 DUP1 REVERT JUMPDEST POP PUSH2 0x3C5 PUSH2 0x17A9 JUMP JUMPDEST CALLVALUE DUP1 ISZERO PUSH2 0x6E1 JUMPI PUSH1 0x0 DUP1 REVERT JUMPDEST POP PUSH1 0xD SLOAD PUSH2 0x466 SWAP1 PUSH7 0x1000000000000 SWAP1 DIV PUSH1 0xFF AND DUP2 JUMP JUMPDEST CALLVALUE DUP1 ISZERO PUSH2 0x705 JUMPI PUSH1 0x0 DUP1 REVERT JUMPDEST POP PUSH2 0x498 PUSH2 0x714 CALLDATASIZE PUSH1 0x4 PUSH2 0x2938 JUMP JUMPDEST PUSH2 0x17C3 JUMP JUMPDEST CALLVALUE DUP1 ISZERO PUSH2 0x725 JUMPI PUSH1 0x0 DUP1 REVERT JUMPDEST POP PUSH1 0xB SLOAD PUSH2 0x3C5 SWAP1 PUSH1 0x1 PUSH1 0x1 PUSH1 0xA0 SHL SUB AND DUP2 JUMP JUMPDEST CALLVALUE DUP1 ISZERO PUSH2 0x745 JUMPI PUSH1 0x0 DUP1 REVERT JUMPDEST POP PUSH1 0x9 SLOAD PUSH1 0x1 PUSH1 0x1 PUSH1 0xA0 SHL SUB AND PUSH2 0x3C5 JUMP JUMPDEST CALLVALUE DUP1 ISZERO PUSH2 0x763 JUMPI PUSH1 0x0 DUP1 REVERT JUMPDEST POP PUSH2 0x398 PUSH2 0x17EB JUMP JUMPDEST CALLVALUE DUP1 ISZERO PUSH2 0x778 JUMPI PUSH1 0x0 DUP1 REVERT JUMPDEST POP PUSH2 0x32C PUSH2 0x787 CALLDATASIZE PUSH1 0x4 PUSH2 0x2AD9 JUMP JUMPDEST PUSH2 0x17FA JUMP JUMPDEST CALLVALUE DUP1 ISZERO PUSH2 0x798 JUMPI PUSH1 0x0 DUP1 REVERT JUMPDEST POP PUSH2 0x432 PUSH1 0xC SLOAD DUP2 JUMP JUMPDEST PUSH2 0x32C PUSH2 0x7B0 CALLDATASIZE PUSH1 0x4 PUSH2 0x2B15 JUMP JUMPDEST PUSH2 0x18C0 JUMP JUMPDEST PUSH2 0x32C PUSH2 0x7C3 CALLDATASIZE PUSH1 0x4 PUSH2 0x2B30 JUMP JUMPDEST PUSH2 0x1B37 JUMP JUMPDEST CALLVALUE DUP1 ISZERO PUSH2 0x7D4 JUMPI PUSH1 0x0 DUP1 REVERT JUMPDEST POP PUSH2 0x406 PUSH1 0xF DUP2 JUMP JUMPDEST CALLVALUE DUP1 ISZERO PUSH2 0x7E9 JUMPI PUSH1 0x0 DUP1 REVERT JUMPDEST POP PUSH1 0xD SLOAD PUSH2 0x406 SWAP1 PUSH6 0xFFFFFFFFFFFF AND DUP2 JUMP JUMPDEST CALLVALUE DUP1 ISZERO PUSH2 0x808 JUMPI PUSH1 0x0 DUP1 REVERT JUMPDEST POP PUSH2 0x398 PUSH2 0x817 CALLDATASIZE PUSH1 0x4 PUSH2 0x28F5 JUMP JUMPDEST PUSH2 0x1B94 JUMP JUMPDEST CALLVALUE DUP1 ISZERO PUSH2 0x828 JUMPI PUSH1 0x0 DUP1 REVERT JUMPDEST POP PUSH2 0x32C PUSH2 0x837 CALLDATASIZE PUSH1 0x4 PUSH2 0x28F5 JUMP JUMPDEST PUSH2 0x1C31 JUMP JUMPDEST CALLVALUE DUP1 ISZERO PUSH2 0x848 JUMPI PUSH1 0x0 DUP1 REVERT JUMPDEST POP PUSH2 0x432 PUSH2 0x857 CALLDATASIZE PUSH1 0x4 PUSH2 0x2938 JUMP JUMPDEST PUSH2 0x1C70 JUMP JUMPDEST CALLVALUE DUP1 ISZERO PUSH2 0x868 JUMPI PUSH1 0x0 DUP1 REVERT JUMPDEST POP PUSH2 0x398 PUSH2 0x1C9B JUMP JUMPDEST CALLVALUE DUP1 ISZERO PUSH2 0x87D JUMPI PUSH1 0x0 DUP1 REVERT JUMPDEST POP PUSH2 0x34E PUSH2 0x88C CALLDATASIZE PUSH1 0x4 PUSH2 0x2B98 JUMP JUMPDEST PUSH1 0x1 PUSH1 0x1 PUSH1 0xA0 SHL SUB SWAP2 DUP3 AND PUSH1 0x0 SWAP1 DUP2 MSTORE PUSH1 0x8 PUSH1 0x20 SWAP1 DUP2 MSTORE PUSH1 0x40 DUP1 DUP4 KECCAK256 SWAP4 SWAP1 SWAP5 AND DUP3 MSTORE SWAP2 SWAP1 SWAP2 MSTORE KECCAK256 SLOAD PUSH1 0xFF AND SWAP1 JUMP JUMPDEST CALLVALUE DUP1 ISZERO PUSH2 0x8C6 JUMPI PUSH1 0x0 DUP1 REVERT JUMPDEST POP PUSH2 0x32C PUSH2 0x8D5 CALLDATASIZE PUSH1 0x4 PUSH2 0x2938 JUMP JUMPDEST PUSH2 0x1D29 JUMP JUMPDEST PUSH2 0x8E2 PUSH2 0x1DD3 JUMP JUMPDEST SELFBALANCE DUP3 DUP2 LT ISZERO PUSH2 0x91D JUMPI PUSH1 0x40 MLOAD PUSH32 0x9ABC749100000000000000000000000000000000000000000000000000000000 DUP2 MSTORE PUSH1 0x4 ADD PUSH1 0x40 MLOAD DUP1 SWAP2 SUB SWAP1 REVERT JUMPDEST PUSH1 0x0 DUP3 PUSH1 0x1 PUSH1 0x1 PUSH1 0xA0 SHL SUB AND DUP5 PUSH1 0x40 MLOAD PUSH1 0x0 PUSH1 0x40 MLOAD DUP1 DUP4 SUB DUP2 DUP6 DUP8 GAS CALL SWAP3 POP POP POP RETURNDATASIZE DUP1 PUSH1 0x0 DUP2 EQ PUSH2 0x96A JUMPI PUSH1 0x40 MLOAD SWAP2 POP PUSH1 0x1F NOT PUSH1 0x3F RETURNDATASIZE ADD AND DUP3 ADD PUSH1 0x40 MSTORE RETURNDATASIZE DUP3 MSTORE RETURNDATASIZE PUSH1 0x0 PUSH1 0x20 DUP5 ADD RETURNDATACOPY PUSH2 0x96F JUMP JUMPDEST PUSH1 0x60 SWAP2 POP JUMPDEST POP POP SWAP1 POP DUP3 PUSH1 0x1 PUSH1 0x1 PUSH1 0xA0 SHL SUB AND DUP5 PUSH32 0x8353FFCAC0876AD14E226D9783C04540BFEBF13871E868157D2A391CAD98E918 PUSH1 0x40 MLOAD PUSH1 0x40 MLOAD DUP1 SWAP2 SUB SWAP1 LOG3 DUP1 PUSH2 0x9E1 JUMPI PUSH1 0x40 MLOAD PUSH32 0x27FCD9D100000000000000000000000000000000000000000000000000000000 DUP2 MSTORE PUSH1 0x4 ADD PUSH1 0x40 MLOAD DUP1 SWAP2 SUB SWAP1 REVERT JUMPDEST POP POP POP POP JUMP JUMPDEST PUSH1 0x0 PUSH32 0x1FFC9A700000000000000000000000000000000000000000000000000000000 PUSH32 0xFFFFFFFF00000000000000000000000000000000000000000000000000000000 DUP4 AND EQ DUP1 PUSH2 0xA7A JUMPI POP PUSH32 0x80AC58CD00000000000000000000000000000000000000000000000000000000 PUSH32 0xFFFFFFFF00000000000000000000000000000000000000000000000000000000 DUP4 AND EQ JUMPDEST DUP1 PUSH2 0xAC6 JUMPI POP PUSH32 0x5B5E139F00000000000000000000000000000000000000000000000000000000 PUSH32 0xFFFFFFFF00000000000000000000000000000000000000000000000000000000 DUP4 AND EQ JUMPDEST SWAP3 SWAP2 POP POP JUMP JUMPDEST PUSH2 0xAD4 PUSH2 0x1DD3 JUMP JUMPDEST PUSH1 0xE PUSH2 0xAE1 DUP3 DUP5 DUP4 PUSH2 0x2C5B JUMP JUMPDEST POP DUP2 DUP2 PUSH1 0x40 MLOAD PUSH2 0xAF2 SWAP3 SWAP2 SWAP1 PUSH2 0x2D58 JUMP JUMPDEST PUSH1 0x40 MLOAD SWAP1 DUP2 SWAP1 SUB DUP2 KECCAK256 SWAP1 PUSH32 0x562BF0237FA5139EDC73EC903039C3A552E19AE62CC8292DA62AFEEA43024B0A SWAP1 PUSH1 0x0 SWAP1 LOG2 POP POP JUMP JUMPDEST PUSH1 0x60 PUSH1 0x3 DUP1 SLOAD PUSH2 0xB35 SWAP1 PUSH2 0x2BC2 JUMP JUMPDEST DUP1 PUSH1 0x1F ADD PUSH1 0x20 DUP1 SWAP2 DIV MUL PUSH1 0x20 ADD PUSH1 0x40 MLOAD SWAP1 DUP2 ADD PUSH1 0x40 MSTORE DUP1 SWAP3 SWAP2 SWAP1 DUP2 DUP2 MSTORE PUSH1 0x20 ADD DUP3 DUP1 SLOAD PUSH2 0xB61 SWAP1 PUSH2 0x2BC2 JUMP JUMPDEST DUP1 ISZERO PUSH2 0xBAE JUMPI DUP1 PUSH1 0x1F LT PUSH2 0xB83 JUMPI PUSH2 0x100 DUP1 DUP4 SLOAD DIV MUL DUP4 MSTORE SWAP2 PUSH1 0x20 ADD SWAP2 PUSH2 0xBAE JUMP JUMPDEST DUP3 ADD SWAP2 SWAP1 PUSH1 0x0 MSTORE PUSH1 0x20 PUSH1 0x0 KECCAK256 SWAP1 JUMPDEST DUP2 SLOAD DUP2 MSTORE SWAP1 PUSH1 0x1 ADD SWAP1 PUSH1 0x20 ADD DUP1 DUP4 GT PUSH2 0xB91 JUMPI DUP3 SWAP1 SUB PUSH1 0x1F AND DUP3 ADD SWAP2 JUMPDEST POP POP POP POP POP SWAP1 POP SWAP1 JUMP JUMPDEST PUSH1 0x0 PUSH2 0xBC3 DUP3 PUSH2 0x1E47 JUMP JUMPDEST PUSH2 0xBF9 JUMPI PUSH1 0x40 MLOAD PUSH32 0xCF4700E400000000000000000000000000000000000000000000000000000000 DUP2 MSTORE PUSH1 0x4 ADD PUSH1 0x40 MLOAD DUP1 SWAP2 SUB SWAP1 REVERT JUMPDEST POP PUSH1 0x0 SWAP1 DUP2 MSTORE PUSH1 0x7 PUSH1 0x20 MSTORE PUSH1 0x40 SWAP1 KECCAK256 SLOAD PUSH1 0x1 PUSH1 0x1 PUSH1 0xA0 SHL SUB AND SWAP1 JUMP JUMPDEST PUSH1 0x0 SLOAD TIMESTAMP LT ISZERO PUSH2 0xC51 JUMPI PUSH1 0x40 MLOAD PUSH32 0xCFE89EAC00000000000000000000000000000000000000000000000000000000 DUP2 MSTORE PUSH1 0x4 ADD PUSH1 0x40 MLOAD DUP1 SWAP2 SUB SWAP1 REVERT JUMPDEST PUSH1 0x0 PUSH2 0xC5C DUP3 PUSH2 0x1678 JUMP JUMPDEST SWAP1 POP CALLER PUSH1 0x1 PUSH1 0x1 PUSH1 0xA0 SHL SUB DUP3 AND EQ PUSH2 0xCCB JUMPI PUSH1 0x1 PUSH1 0x1 PUSH1 0xA0 SHL SUB DUP2 AND PUSH1 0x0 SWAP1 DUP2 MSTORE PUSH1 0x8 PUSH1 0x20 SWAP1 DUP2 MSTORE PUSH1 0x40 DUP1 DUP4 KECCAK256 CALLER DUP5 MSTORE SWAP1 SWAP2 MSTORE SWAP1 KECCAK256 SLOAD PUSH1 0xFF AND PUSH2 0xCCB JUMPI PUSH1 0x40 MLOAD PUSH32 0xCFB3B94200000000000000000000000000000000000000000000000000000000 DUP2 MSTORE PUSH1 0x4 ADD PUSH1 0x40 MLOAD DUP1 SWAP2 SUB SWAP1 REVERT JUMPDEST PUSH1 0x0 DUP3 DUP2 MSTORE PUSH1 0x7 PUSH1 0x20 MSTORE PUSH1 0x40 DUP1 DUP3 KECCAK256 DUP1 SLOAD PUSH32 0xFFFFFFFFFFFFFFFFFFFFFFFF0000000000000000000000000000000000000000 AND PUSH1 0x1 PUSH1 0x1 PUSH1 0xA0 SHL SUB DUP8 DUP2 AND SWAP2 DUP3 OR SWAP1 SWAP3 SSTORE SWAP2 MLOAD DUP6 SWAP4 SWAP2 DUP6 AND SWAP2 PUSH32 0x8C5BE1E5EBEC7D5BD14F71427D1E84F3DD0314C0F7B2291E5B200AC8C7C3B925 SWAP2 LOG4 POP POP POP JUMP JUMPDEST PUSH1 0x0 PUSH1 0xF PUSH1 0x8 PUSH2 0xD67 DUP5 PUSH1 0x1 PUSH1 0x1 PUSH1 0xA0 SHL SUB AND PUSH1 0x0 SWAP1 DUP2 MSTORE PUSH1 0x6 PUSH1 0x20 MSTORE PUSH1 0x40 SWAP1 KECCAK256 SLOAD PUSH1 0xC0 SHR SWAP1 JUMP JUMPDEST PUSH8 0xFFFFFFFFFFFFFFFF AND SWAP1 SHR AND SWAP3 SWAP2 POP POP JUMP JUMPDEST PUSH1 0x0 PUSH1 0xF PUSH1 0x4 PUSH2 0xD67 DUP5 PUSH1 0x1 PUSH1 0x1 PUSH1 0xA0 SHL SUB AND PUSH1 0x0 SWAP1 DUP2 MSTORE PUSH1 0x6 PUSH1 0x20 MSTORE PUSH1 0x40 SWAP1 KECCAK256 SLOAD PUSH1 0xC0 SHR SWAP1 JUMP JUMPDEST PUSH1 0x0 PUSH2 0xDAD DUP3 PUSH2 0x1E88 JUMP JUMPDEST SWAP1 POP DUP4 PUSH1 0x1 PUSH1 0x1 PUSH1 0xA0 SHL SUB AND DUP2 PUSH1 0x1 PUSH1 0x1 PUSH1 0xA0 SHL SUB AND EQ PUSH2 0xDFA JUMPI PUSH1 0x40 MLOAD PUSH32 0xA114810000000000000000000000000000000000000000000000000000000000 DUP2 MSTORE PUSH1 0x4 ADD PUSH1 0x40 MLOAD DUP1 SWAP2 SUB SWAP1 REVERT JUMPDEST PUSH1 0x0 DUP3 DUP2 MSTORE PUSH1 0x7 PUSH1 0x20 MSTORE PUSH1 0x40 SWAP1 KECCAK256 DUP1 SLOAD PUSH2 0xE26 DUP2 DUP8 CALLER JUMPDEST PUSH1 0x1 PUSH1 0x1 PUSH1 0xA0 SHL SUB SWAP1 DUP2 AND SWAP2 AND DUP2 EQ SWAP2 EQ OR SWAP1 JUMP JUMPDEST PUSH2 0xE87 JUMPI PUSH1 0x1 PUSH1 0x1 PUSH1 0xA0 SHL SUB DUP7 AND PUSH1 0x0 SWAP1 DUP2 MSTORE PUSH1 0x8 PUSH1 0x20 SWAP1 DUP2 MSTORE PUSH1 0x40 DUP1 DUP4 KECCAK256 CALLER DUP5 MSTORE SWAP1 SWAP2 MSTORE SWAP1 KECCAK256 SLOAD PUSH1 0xFF AND PUSH2 0xE87 JUMPI PUSH1 0x40 MLOAD PUSH32 0x59C896BE00000000000000000000000000000000000000000000000000000000 DUP2 MSTORE PUSH1 0x4 ADD PUSH1 0x40 MLOAD DUP1 SWAP2 SUB SWAP1 REVERT JUMPDEST PUSH1 0x1 PUSH1 0x1 PUSH1 0xA0 SHL SUB DUP6 AND PUSH2 0xEC7 JUMPI PUSH1 0x40 MLOAD PUSH32 0xEA553B3400000000000000000000000000000000000000000000000000000000 DUP2 MSTORE PUSH1 0x4 ADD PUSH1 0x40 MLOAD DUP1 SWAP2 SUB SWAP1 REVERT JUMPDEST DUP1 ISZERO PUSH2 0xED2 JUMPI PUSH1 0x0 DUP3 SSTORE JUMPDEST PUSH1 0x1 PUSH1 0x1 PUSH1 0xA0 SHL SUB DUP7 DUP2 AND PUSH1 0x0 SWAP1 DUP2 MSTORE PUSH1 0x6 PUSH1 0x20 MSTORE PUSH1 0x40 DUP1 DUP3 KECCAK256 DUP1 SLOAD PUSH32 0xFFFFFFFFFFFFFFFFFFFFFFFFFFFFFFFFFFFFFFFFFFFFFFFFFFFFFFFFFFFFFFFF ADD SWAP1 SSTORE SWAP2 DUP8 AND DUP1 DUP3 MSTORE SWAP2 SWAP1 KECCAK256 DUP1 SLOAD PUSH1 0x1 ADD SWAP1 SSTORE TIMESTAMP PUSH1 0xA0 SHL OR PUSH29 0x200000000000000000000000000000000000000000000000000000000 OR PUSH1 0x0 DUP6 DUP2 MSTORE PUSH1 0x5 PUSH1 0x20 MSTORE PUSH1 0x40 DUP2 KECCAK256 SWAP2 SWAP1 SWAP2 SSTORE PUSH29 0x200000000000000000000000000000000000000000000000000000000 DUP5 AND SWAP1 SUB PUSH2 0xFB4 JUMPI PUSH1 0x1 DUP5 ADD PUSH1 0x0 DUP2 DUP2 MSTORE PUSH1 0x5 PUSH1 0x20 MSTORE PUSH1 0x40 DUP2 KECCAK256 SLOAD SWAP1 SUB PUSH2 0xFB2 JUMPI PUSH1 0x1 SLOAD DUP2 EQ PUSH2 0xFB2 JUMPI PUSH1 0x0 DUP2 DUP2 MSTORE PUSH1 0x5 PUSH1 0x20 MSTORE PUSH1 0x40 SWAP1 KECCAK256 DUP5 SWAP1 SSTORE JUMPDEST POP JUMPDEST DUP4 DUP6 PUSH1 0x1 PUSH1 0x1 PUSH1 0xA0 SHL SUB AND DUP8 PUSH1 0x1 PUSH1 0x1 PUSH1 0xA0 SHL SUB AND PUSH32 0xDDF252AD1BE2C89B69C2B068FC378DAA952BA7F163C4A11628F55A4DF523B3EF PUSH1 0x40 MLOAD PUSH1 0x40 MLOAD DUP1 SWAP2 SUB SWAP1 LOG4 JUMPDEST POP POP POP POP POP POP JUMP JUMPDEST ORIGIN CALLER EQ PUSH2 0x1037 JUMPI PUSH1 0x40 MLOAD PUSH32 0x7DF1F81700000000000000000000000000000000000000000000000000000000 DUP2 MSTORE PUSH1 0x4 ADD PUSH1 0x40 MLOAD DUP1 SWAP2 SUB SWAP1 REVERT JUMPDEST DUP2 PUSH6 0xFFFFFFFFFFFF AND PUSH1 0x0 SUB PUSH2 0x1079 JUMPI PUSH1 0x40 MLOAD PUSH32 0xCCFAD01800000000000000000000000000000000000000000000000000000000 DUP2 MSTORE PUSH1 0x4 ADD PUSH1 0x40 MLOAD DUP1 SWAP2 SUB SWAP1 REVERT JUMPDEST PUSH1 0xD SLOAD PUSH8 0x16345785D89FFFF SWAP1 PUSH2 0x1099 SWAP1 DUP5 SWAP1 PUSH6 0xFFFFFFFFFFFF AND PUSH2 0x2D97 JUMP JUMPDEST PUSH6 0xFFFFFFFFFFFF AND GT ISZERO PUSH2 0x10D9 JUMPI PUSH1 0x40 MLOAD PUSH32 0x2370216F00000000000000000000000000000000000000000000000000000000 DUP2 MSTORE PUSH1 0x4 ADD PUSH1 0x40 MLOAD DUP1 SWAP2 SUB SWAP1 REVERT JUMPDEST PUSH1 0x40 DUP1 MLOAD CALLER PUSH1 0x60 SHL PUSH32 0xFFFFFFFFFFFFFFFFFFFFFFFFFFFFFFFFFFFFFFFF000000000000000000000000 AND PUSH1 0x20 DUP1 DUP4 ADD SWAP2 SWAP1 SWAP2 MSTORE DUP3 MLOAD PUSH1 0x14 DUP2 DUP5 SUB ADD DUP2 MSTORE PUSH1 0x34 SWAP1 SWAP3 ADD SWAP1 SWAP3 MSTORE DUP1 MLOAD SWAP2 ADD KECCAK256 PUSH1 0xF SLOAD PUSH1 0x1 PUSH1 0x1 PUSH1 0xA0 SHL SUB AND PUSH2 0x1139 DUP3 DUP5 PUSH2 0x1F3F JUMP JUMPDEST PUSH1 0x1 PUSH1 0x1 PUSH1 0xA0 SHL SUB AND EQ PUSH2 0x1179 JUMPI PUSH1 0x40 MLOAD PUSH32 0x8BAA579F00000000000000000000000000000000000000000000000000000000 DUP2 MSTORE PUSH1 0x4 ADD PUSH1 0x40 MLOAD DUP1 SWAP2 SUB SWAP1 REVERT JUMPDEST CALLER PUSH1 0x0 SWAP1 DUP2 MSTORE PUSH1 0x6 PUSH1 0x20 MSTORE PUSH1 0x40 SWAP1 KECCAK256 SLOAD PUSH1 0xD SLOAD PUSH1 0xC0 DUP3 SWAP1 SHR SWAP2 PUSH1 0xC4 SHR PUSH1 0xF AND SWAP1 PUSH1 0xFF PUSH8 0x100000000000000 SWAP1 SWAP2 DIV AND PUSH2 0x11BA PUSH6 0xFFFFFFFFFFFF DUP8 AND DUP4 PUSH2 0x2DBD JUMP JUMPDEST PUSH8 0xFFFFFFFFFFFFFFFF AND GT ISZERO PUSH2 0x11FC JUMPI PUSH1 0x40 MLOAD PUSH32 0x26F890C400000000000000000000000000000000000000000000000000000000 DUP2 MSTORE PUSH1 0x4 ADD PUSH1 0x40 MLOAD DUP1 SWAP2 SUB SWAP1 REVERT JUMPDEST PUSH1 0xC SLOAD PUSH2 0x1211 SWAP1 PUSH6 0xFFFFFFFFFFFF DUP8 AND PUSH2 0x2DDE JUMP JUMPDEST CALLVALUE LT ISZERO PUSH2 0x124A JUMPI PUSH1 0x40 MLOAD PUSH32 0x356680B700000000000000000000000000000000000000000000000000000000 DUP2 MSTORE PUSH1 0x4 ADD PUSH1 0x40 MLOAD DUP1 SWAP2 SUB SWAP1 REVERT JUMPDEST PUSH2 0x125C CALLER DUP7 PUSH6 0xFFFFFFFFFFFF AND PUSH2 0x1F63 JUMP JUMPDEST PUSH1 0x0 PUSH2 0x1274 PUSH6 0xFFFFFFFFFFF0 PUSH1 0x4 DUP9 SWAP1 SHL AND DUP5 PUSH2 0x2DBD JUMP JUMPDEST PUSH1 0x40 MLOAD SWAP1 SWAP2 POP PUSH6 0xFFFFFFFFFFFF DUP8 AND SWAP1 PUSH32 0xFE6E1CA872550191491B4763E196B78CD7B14CB2C5C8802A23EB6F8B81A16C7E SWAP1 PUSH1 0x0 SWAP1 LOG2 CALLER PUSH1 0x0 SWAP1 DUP2 MSTORE PUSH1 0x6 PUSH1 0x20 MSTORE PUSH1 0x40 SWAP1 KECCAK256 DUP1 SLOAD PUSH24 0xFFFFFFFFFFFFFFFFFFFFFFFFFFFFFFFFFFFFFFFFFFFFFFFF AND PUSH1 0xC0 DUP4 SWAP1 SHL OR SWAP1 SSTORE PUSH1 0xD DUP1 SLOAD DUP8 SWAP2 SWAP1 PUSH1 0x0 SWAP1 PUSH2 0x12FA SWAP1 DUP5 SWAP1 PUSH6 0xFFFFFFFFFFFF AND PUSH2 0x2D97 JUMP JUMPDEST SWAP3 POP PUSH2 0x100 EXP DUP2 SLOAD DUP2 PUSH6 0xFFFFFFFFFFFF MUL NOT AND SWAP1 DUP4 PUSH6 0xFFFFFFFFFFFF AND MUL OR SWAP1 SSTORE POP POP POP POP POP POP POP JUMP JUMPDEST PUSH2 0x132C PUSH2 0x1DD3 JUMP JUMPDEST PUSH1 0x1 PUSH1 0x1 PUSH1 0xA0 SHL SUB DUP2 AND PUSH2 0x136C JUMPI PUSH1 0x40 MLOAD PUSH32 0x2F0B133000000000000000000000000000000000000000000000000000000000 DUP2 MSTORE PUSH1 0x4 ADD PUSH1 0x40 MLOAD DUP1 SWAP2 SUB SWAP1 REVERT JUMPDEST PUSH1 0xB DUP1 SLOAD PUSH32 0xFFFFFFFFFFFFFFFFFFFFFFFF0000000000000000000000000000000000000000 AND PUSH1 0x1 PUSH1 0x1 PUSH1 0xA0 SHL SUB DUP4 AND SWAP1 DUP2 OR SWAP1 SWAP2 SSTORE PUSH1 0x40 MLOAD PUSH32 0x27F7E73B60C62B7DCDD339F618E0BC4C1269544DA183D9931C927FACDBE801A2 SWAP1 PUSH1 0x0 SWAP1 LOG2 POP JUMP JUMPDEST PUSH2 0x13D6 PUSH2 0x1DD3 JUMP JUMPDEST PUSH7 0x2386F26FC10000 DUP2 LT ISZERO PUSH2 0x1417 JUMPI PUSH1 0x40 MLOAD PUSH32 0x9713E00B00000000000000000000000000000000000000000000000000000000 DUP2 MSTORE PUSH1 0x4 ADD PUSH1 0x40 MLOAD DUP1 SWAP2 SUB SWAP1 REVERT JUMPDEST PUSH1 0xC DUP2 SWAP1 SSTORE PUSH1 0x40 MLOAD DUP2 SWAP1 PUSH32 0x7D4366E70F76342B93DE4F6D6A7DB9CE74705441E46D25D0AEA894B430D28B39 SWAP1 PUSH1 0x0 SWAP1 LOG2 POP JUMP JUMPDEST PUSH2 0x1465 DUP4 DUP4 DUP4 PUSH1 0x40 MLOAD DUP1 PUSH1 0x20 ADD PUSH1 0x40 MSTORE DUP1 PUSH1 0x0 DUP2 MSTORE POP PUSH2 0x1B37 JUMP JUMPDEST POP POP POP JUMP JUMPDEST PUSH2 0x1474 CALLER DUP3 PUSH2 0x2094 JUMP JUMPDEST PUSH2 0x14AA JUMPI PUSH1 0x40 MLOAD PUSH32 0xB5B5504400000000000000000000000000000000000000000000000000000000 DUP2 MSTORE PUSH1 0x4 ADD PUSH1 0x40 MLOAD DUP1 SWAP2 SUB SWAP1 REVERT JUMPDEST PUSH2 0x14B5 DUP2 PUSH1 0x1 PUSH2 0x2113 JUMP JUMPDEST PUSH1 0x40 MLOAD DUP2 SWAP1 PUSH32 0xB90306AD06B2A6FF86DDC9327DB583062895EF6540E62DC50ADD009DB5B356EB SWAP1 PUSH1 0x0 SWAP1 LOG2 POP JUMP JUMPDEST PUSH2 0x14EB PUSH2 0x1DD3 JUMP JUMPDEST PUSH1 0xD SLOAD PUSH9 0x10000000000000000 SWAP1 DIV PUSH1 0xFF AND PUSH6 0xFFFFFFFFFFFF DUP3 AND GT ISZERO PUSH2 0x153E JUMPI PUSH1 0x40 MLOAD PUSH32 0x2370216F00000000000000000000000000000000000000000000000000000000 DUP2 MSTORE PUSH1 0x4 ADD PUSH1 0x40 MLOAD DUP1 SWAP2 SUB SWAP1 REVERT JUMPDEST PUSH1 0xD SLOAD PUSH8 0x16345785D89FFFF SWAP1 PUSH2 0x155E SWAP1 DUP4 SWAP1 PUSH6 0xFFFFFFFFFFFF AND PUSH2 0x2D97 JUMP JUMPDEST PUSH6 0xFFFFFFFFFFFF AND GT ISZERO PUSH2 0x159E JUMPI PUSH1 0x40 MLOAD PUSH32 0x2370216F00000000000000000000000000000000000000000000000000000000 DUP2 MSTORE PUSH1 0x4 ADD PUSH1 0x40 MLOAD DUP1 SWAP2 SUB SWAP1 REVERT JUMPDEST PUSH2 0x15B0 DUP3 DUP3 PUSH6 0xFFFFFFFFFFFF AND PUSH2 0x1F63 JUMP JUMPDEST PUSH1 0xD DUP1 SLOAD DUP3 SWAP2 SWAP1 PUSH1 0x0 SWAP1 PUSH2 0x15CD SWAP1 DUP5 SWAP1 PUSH6 0xFFFFFFFFFFFF AND PUSH2 0x2D97 JUMP JUMPDEST SWAP3 POP PUSH2 0x100 EXP DUP2 SLOAD DUP2 PUSH6 0xFFFFFFFFFFFF MUL NOT AND SWAP1 DUP4 PUSH6 0xFFFFFFFFFFFF AND MUL OR SWAP1 SSTORE POP POP POP JUMP JUMPDEST PUSH1 0x0 DUP1 TIMESTAMP PUSH2 0xAC6 JUMP JUMPDEST PUSH2 0x1604 PUSH2 0x1DD3 JUMP JUMPDEST PUSH7 0x2386F26FC10000 DUP2 LT ISZERO PUSH2 0x1645 JUMPI PUSH1 0x40 MLOAD PUSH32 0x9713E00B00000000000000000000000000000000000000000000000000000000 DUP2 MSTORE PUSH1 0x4 ADD PUSH1 0x40 MLOAD DUP1 SWAP2 SUB SWAP1 REVERT JUMPDEST PUSH1 0xA DUP2 SWAP1 SSTORE PUSH1 0x40 MLOAD DUP2 SWAP1 PUSH32 0xDA25869ECC04491E922BB8C554C6EF8967B063207AE489515C67ACE4E304B327 SWAP1 PUSH1 0x0 SWAP1 LOG2 POP JUMP JUMPDEST PUSH1 0x0 PUSH2 0xAC6 DUP3 PUSH2 0x1E88 JUMP JUMPDEST PUSH2 0x168B PUSH2 0x1DD3 JUMP JUMPDEST PUSH1 0x1 PUSH1 0x1 PUSH1 0xA0 SHL SUB DUP2 AND PUSH2 0x16CB JUMPI PUSH1 0x40 MLOAD PUSH32 0x4501A91900000000000000000000000000000000000000000000000000000000 DUP2 MSTORE PUSH1 0x4 ADD PUSH1 0x40 MLOAD DUP1 SWAP2 SUB SWAP1 REVERT JUMPDEST PUSH1 0xF DUP1 SLOAD PUSH32 0xFFFFFFFFFFFFFFFFFFFFFFFF0000000000000000000000000000000000000000 AND PUSH1 0x1 PUSH1 0x1 PUSH1 0xA0 SHL SUB DUP4 AND SWAP1 DUP2 OR SWAP1 SWAP2 SSTORE PUSH1 0x40 MLOAD PUSH32 0x6EA2FB3867A79708E9BD062B37EA354558C90C22F74C1F3061E0A2B4B8D6F38C SWAP1 PUSH1 0x0 SWAP1 LOG2 POP JUMP JUMPDEST PUSH1 0x0 PUSH1 0x1 PUSH1 0x1 PUSH1 0xA0 SHL SUB DUP3 AND PUSH2 0x176F JUMPI PUSH1 0x40 MLOAD PUSH32 0x8F4EB60400000000000000000000000000000000000000000000000000000000 DUP2 MSTORE PUSH1 0x4 ADD PUSH1 0x40 MLOAD DUP1 SWAP2 SUB SWAP1 REVERT JUMPDEST POP PUSH1 0x1 PUSH1 0x1 PUSH1 0xA0 SHL SUB AND PUSH1 0x0 SWAP1 DUP2 MSTORE PUSH1 0x6 PUSH1 0x20 MSTORE PUSH1 0x40 SWAP1 KECCAK256 SLOAD PUSH8 0xFFFFFFFFFFFFFFFF AND SWAP1 JUMP JUMPDEST PUSH2 0x179D PUSH2 0x1DD3 JUMP JUMPDEST PUSH2 0x17A7 PUSH1 0x0 PUSH2 0x22C6 JUMP JUMPDEST JUMP JUMPDEST PUSH1 0x0 PUSH2 0x17B3 PUSH2 0x1DD3 JUMP JUMPDEST POP PUSH1 0xF SLOAD PUSH1 0x1 PUSH1 0x1 PUSH1 0xA0 SHL SUB AND SWAP1 JUMP JUMPDEST PUSH1 0x0 PUSH1 0xF PUSH1 0xC PUSH2 0xD67 DUP5 PUSH1 0x1 PUSH1 0x1 PUSH1 0xA0 SHL SUB AND PUSH1 0x0 SWAP1 DUP2 MSTORE PUSH1 0x6 PUSH1 0x20 MSTORE PUSH1 0x40 SWAP1 KECCAK256 SLOAD PUSH1 0xC0 SHR SWAP1 JUMP JUMPDEST PUSH1 0x60 PUSH1 0x4 DUP1 SLOAD PUSH2 0xB35 SWAP1 PUSH2 0x2BC2 JUMP JUMPDEST PUSH1 0x0 SLOAD TIMESTAMP LT ISZERO PUSH2 0x1836 JUMPI PUSH1 0x40 MLOAD PUSH32 0xCFE89EAC00000000000000000000000000000000000000000000000000000000 DUP2 MSTORE PUSH1 0x4 ADD PUSH1 0x40 MLOAD DUP1 SWAP2 SUB SWAP1 REVERT JUMPDEST CALLER PUSH1 0x0 DUP2 DUP2 MSTORE PUSH1 0x8 PUSH1 0x20 SWAP1 DUP2 MSTORE PUSH1 0x40 DUP1 DUP4 KECCAK256 PUSH1 0x1 PUSH1 0x1 PUSH1 0xA0 SHL SUB DUP8 AND DUP1 DUP6 MSTORE SWAP1 DUP4 MSTORE SWAP3 DUP2 SWAP1 KECCAK256 DUP1 SLOAD PUSH32 0xFFFFFFFFFFFFFFFFFFFFFFFFFFFFFFFFFFFFFFFFFFFFFFFFFFFFFFFFFFFFFF00 AND DUP7 ISZERO ISZERO SWAP1 DUP2 OR SWAP1 SWAP2 SSTORE SWAP1 MLOAD SWAP1 DUP2 MSTORE SWAP2 SWAP3 SWAP2 PUSH32 0x17307EAB39AB6107E8899845AD3D59BD9653F200F220920489CA2B5937696C31 SWAP2 ADD PUSH1 0x40 MLOAD DUP1 SWAP2 SUB SWAP1 LOG3 POP POP JUMP JUMPDEST ORIGIN CALLER EQ PUSH2 0x18F9 JUMPI PUSH1 0x40 MLOAD PUSH32 0x7DF1F81700000000000000000000000000000000000000000000000000000000 DUP2 MSTORE PUSH1 0x4 ADD PUSH1 0x40 MLOAD DUP1 SWAP2 SUB SWAP1 REVERT JUMPDEST PUSH1 0xD SLOAD DUP2 SWAP1 PUSH8 0x16345785D89FFFF SWAP1 PUSH2 0x191B SWAP1 DUP4 SWAP1 PUSH6 0xFFFFFFFFFFFF AND PUSH2 0x2D97 JUMP JUMPDEST PUSH6 0xFFFFFFFFFFFF AND GT ISZERO PUSH2 0x1990 JUMPI PUSH1 0x40 MLOAD PUSH32 0x8C379A000000000000000000000000000000000000000000000000000000000 DUP2 MSTORE PUSH1 0x20 PUSH1 0x4 DUP3 ADD MSTORE PUSH1 0x14 PUSH1 0x24 DUP3 ADD MSTORE PUSH32 0x4D617820737570706C7920657863656564656421000000000000000000000000 PUSH1 0x44 DUP3 ADD MSTORE PUSH1 0x64 ADD JUMPDEST PUSH1 0x40 MLOAD DUP1 SWAP2 SUB SWAP1 REVERT JUMPDEST DUP2 PUSH6 0xFFFFFFFFFFFF AND PUSH1 0x0 SUB PUSH2 0x19D2 JUMPI PUSH1 0x40 MLOAD PUSH32 0xCCFAD01800000000000000000000000000000000000000000000000000000000 DUP2 MSTORE PUSH1 0x4 ADD PUSH1 0x40 MLOAD DUP1 SWAP2 SUB SWAP1 REVERT JUMPDEST PUSH1 0xD SLOAD PUSH8 0x16345785D89FFFF SWAP1 PUSH2 0x19F2 SWAP1 DUP5 SWAP1 PUSH6 0xFFFFFFFFFFFF AND PUSH2 0x2D97 JUMP JUMPDEST PUSH6 0xFFFFFFFFFFFF AND GT ISZERO PUSH2 0x1A32 JUMPI PUSH1 0x40 MLOAD PUSH32 0x2370216F00000000000000000000000000000000000000000000000000000000 DUP2 MSTORE PUSH1 0x4 ADD PUSH1 0x40 MLOAD DUP1 SWAP2 SUB SWAP1 REVERT JUMPDEST PUSH1 0xB SLOAD PUSH1 0x1 PUSH1 0x1 PUSH1 0xA0 SHL SUB AND ISZERO PUSH2 0x1A87 JUMPI PUSH1 0xB SLOAD PUSH1 0x1 PUSH1 0x1 PUSH1 0xA0 SHL SUB AND CALLER EQ PUSH2 0x1A87 JUMPI PUSH1 0x40 MLOAD PUSH32 0x2F0B133000000000000000000000000000000000000000000000000000000000 DUP2 MSTORE PUSH1 0x4 ADD PUSH1 0x40 MLOAD DUP1 SWAP2 SUB SWAP1 REVERT JUMPDEST PUSH1 0xA SLOAD PUSH2 0x1A9C SWAP1 PUSH6 0xFFFFFFFFFFFF DUP5 AND PUSH2 0x2DDE JUMP JUMPDEST CALLVALUE LT ISZERO PUSH2 0x1AD5 JUMPI PUSH1 0x40 MLOAD PUSH32 0x356680B700000000000000000000000000000000000000000000000000000000 DUP2 MSTORE PUSH1 0x4 ADD PUSH1 0x40 MLOAD DUP1 SWAP2 SUB SWAP1 REVERT JUMPDEST PUSH2 0x1AE7 CALLER DUP4 PUSH6 0xFFFFFFFFFFFF AND PUSH2 0x1F63 JUMP JUMPDEST PUSH1 0x40 MLOAD PUSH6 0xFFFFFFFFFFFF DUP4 AND SWAP1 PUSH32 0xFE6E1CA872550191491B4763E196B78CD7B14CB2C5C8802A23EB6F8B81A16C7E SWAP1 PUSH1 0x0 SWAP1 LOG2 PUSH1 0xD DUP1 SLOAD DUP4 SWAP2 SWAP1 PUSH1 0x0 SWAP1 PUSH2 0x15CD SWAP1 DUP5 SWAP1 PUSH6 0xFFFFFFFFFFFF AND PUSH2 0x2D97 JUMP JUMPDEST PUSH2 0x1B42 DUP5 DUP5 DUP5 PUSH2 0xDA2 JUMP JUMPDEST PUSH1 0x1 PUSH1 0x1 PUSH1 0xA0 SHL SUB DUP4 AND EXTCODESIZE ISZERO PUSH2 0x9E1 JUMPI PUSH2 0x1B5E DUP5 DUP5 DUP5 DUP5 PUSH2 0x2330 JUMP JUMPDEST PUSH2 0x9E1 JUMPI PUSH1 0x40 MLOAD PUSH32 0xD1A57ED600000000000000000000000000000000000000000000000000000000 DUP2 MSTORE PUSH1 0x4 ADD PUSH1 0x40 MLOAD DUP1 SWAP2 SUB SWAP1 REVERT JUMPDEST PUSH1 0x60 PUSH2 0x1B9F DUP3 PUSH2 0x1E47 JUMP JUMPDEST PUSH2 0x1BD5 JUMPI PUSH1 0x40 MLOAD PUSH32 0xA14C4B5000000000000000000000000000000000000000000000000000000000 DUP2 MSTORE PUSH1 0x4 ADD PUSH1 0x40 MLOAD DUP1 SWAP2 SUB SWAP1 REVERT JUMPDEST PUSH1 0x0 PUSH2 0x1BDF PUSH2 0x247E JUMP JUMPDEST SWAP1 POP DUP1 MLOAD PUSH1 0x0 SUB PUSH2 0x1BFF JUMPI PUSH1 0x40 MLOAD DUP1 PUSH1 0x20 ADD PUSH1 0x40 MSTORE DUP1 PUSH1 0x0 DUP2 MSTORE POP PUSH2 0x1C2A JUMP JUMPDEST DUP1 PUSH2 0x1C09 DUP5 PUSH2 0x248D JUMP JUMPDEST PUSH1 0x40 MLOAD PUSH1 0x20 ADD PUSH2 0x1C1A SWAP3 SWAP2 SWAP1 PUSH2 0x2DF5 JUMP JUMPDEST PUSH1 0x40 MLOAD PUSH1 0x20 DUP2 DUP4 SUB SUB DUP2 MSTORE SWAP1 PUSH1 0x40 MSTORE JUMPDEST SWAP4 SWAP3 POP POP POP JUMP JUMPDEST PUSH2 0x1C39 PUSH2 0x1DD3 JUMP JUMPDEST PUSH2 0x1C42 DUP2 PUSH1 0x0 SSTORE JUMP JUMPDEST PUSH1 0x40 MLOAD DUP2 SWAP1 PUSH32 0x1533478951372138A2194C99334F1967A30665DA490F70902DF4770BEEE3567 SWAP1 PUSH1 0x0 SWAP1 LOG2 POP JUMP JUMPDEST PUSH1 0x1 PUSH1 0x1 PUSH1 0xA0 SHL SUB DUP2 AND PUSH1 0x0 SWAP1 DUP2 MSTORE PUSH1 0x6 PUSH1 0x20 MSTORE PUSH1 0x40 DUP1 DUP3 KECCAK256 SLOAD PUSH8 0xFFFFFFFFFFFFFFFF SWAP2 SHR AND PUSH2 0xAC6 JUMP JUMPDEST PUSH1 0xE DUP1 SLOAD PUSH2 0x1CA8 SWAP1 PUSH2 0x2BC2 JUMP JUMPDEST DUP1 PUSH1 0x1F ADD PUSH1 0x20 DUP1 SWAP2 DIV MUL PUSH1 0x20 ADD PUSH1 0x40 MLOAD SWAP1 DUP2 ADD PUSH1 0x40 MSTORE DUP1 SWAP3 SWAP2 SWAP1 DUP2 DUP2 MSTORE PUSH1 0x20 ADD DUP3 DUP1 SLOAD PUSH2 0x1CD4 SWAP1 PUSH2 0x2BC2 JUMP JUMPDEST DUP1 ISZERO PUSH2 0x1D21 JUMPI DUP1 PUSH1 0x1F LT PUSH2 0x1CF6 JUMPI PUSH2 0x100 DUP1 DUP4 SLOAD DIV MUL DUP4 MSTORE SWAP2 PUSH1 0x20 ADD SWAP2 PUSH2 0x1D21 JUMP JUMPDEST DUP3 ADD SWAP2 SWAP1 PUSH1 0x0 MSTORE PUSH1 0x20 PUSH1 0x0 KECCAK256 SWAP1 JUMPDEST DUP2 SLOAD DUP2 MSTORE SWAP1 PUSH1 0x1 ADD SWAP1 PUSH1 0x20 ADD DUP1 DUP4 GT PUSH2 0x1D04 JUMPI DUP3 SWAP1 SUB PUSH1 0x1F AND DUP3 ADD SWAP2 JUMPDEST POP POP POP POP POP DUP2 JUMP JUMPDEST PUSH2 0x1D31 PUSH2 0x1DD3 JUMP JUMPDEST PUSH1 0x1 PUSH1 0x1 PUSH1 0xA0 SHL SUB DUP2 AND PUSH2 0x1DC7 JUMPI PUSH1 0x40 MLOAD PUSH32 0x8C379A000000000000000000000000000000000000000000000000000000000 DUP2 MSTORE PUSH1 0x20 PUSH1 0x4 DUP3 ADD MSTORE PUSH1 0x26 PUSH1 0x24 DUP3 ADD MSTORE PUSH32 0x4F776E61626C653A206E6577206F776E657220697320746865207A65726F2061 PUSH1 0x44 DUP3 ADD MSTORE PUSH32 0x6464726573730000000000000000000000000000000000000000000000000000 PUSH1 0x64 DUP3 ADD MSTORE PUSH1 0x84 ADD PUSH2 0x1987 JUMP JUMPDEST PUSH2 0x1DD0 DUP2 PUSH2 0x22C6 JUMP JUMPDEST POP JUMP JUMPDEST PUSH1 0x9 SLOAD PUSH1 0x1 PUSH1 0x1 PUSH1 0xA0 SHL SUB AND CALLER EQ PUSH2 0x17A7 JUMPI PUSH1 0x40 MLOAD PUSH32 0x8C379A000000000000000000000000000000000000000000000000000000000 DUP2 MSTORE PUSH1 0x20 PUSH1 0x4 DUP3 ADD DUP2 SWAP1 MSTORE PUSH1 0x24 DUP3 ADD MSTORE PUSH32 0x4F776E61626C653A2063616C6C6572206973206E6F7420746865206F776E6572 PUSH1 0x44 DUP3 ADD MSTORE PUSH1 0x64 ADD PUSH2 0x1987 JUMP JUMPDEST PUSH1 0x0 PUSH1 0x1 SLOAD DUP3 LT DUP1 ISZERO PUSH2 0xAC6 JUMPI POP POP PUSH1 0x0 SWAP1 DUP2 MSTORE PUSH1 0x5 PUSH1 0x20 MSTORE PUSH1 0x40 SWAP1 KECCAK256 SLOAD PUSH29 0x100000000000000000000000000000000000000000000000000000000 AND ISZERO SWAP1 JUMP JUMPDEST PUSH1 0x0 DUP2 PUSH1 0x1 SLOAD DUP2 LT ISZERO PUSH2 0x1F0D JUMPI PUSH1 0x0 DUP2 DUP2 MSTORE PUSH1 0x5 PUSH1 0x20 MSTORE PUSH1 0x40 DUP2 KECCAK256 SLOAD SWAP1 PUSH29 0x100000000000000000000000000000000000000000000000000000000 DUP3 AND SWAP1 SUB PUSH2 0x1F0B JUMPI JUMPDEST DUP1 PUSH1 0x0 SUB PUSH2 0x1C2A JUMPI POP PUSH32 0xFFFFFFFFFFFFFFFFFFFFFFFFFFFFFFFFFFFFFFFFFFFFFFFFFFFFFFFFFFFFFFFF ADD PUSH1 0x0 DUP2 DUP2 MSTORE PUSH1 0x5 PUSH1 0x20 MSTORE PUSH1 0x40 SWAP1 KECCAK256 SLOAD PUSH2 0x1ECC JUMP JUMPDEST POP JUMPDEST PUSH1 0x40 MLOAD PUSH32 0xDF2D9B4200000000000000000000000000000000000000000000000000000000 DUP2 MSTORE PUSH1 0x4 ADD PUSH1 0x40 MLOAD DUP1 SWAP2 SUB SWAP1 REVERT JUMPDEST PUSH1 0x0 DUP1 PUSH1 0x0 PUSH2 0x1F4E DUP6 DUP6 PUSH2 0x24D1 JUMP JUMPDEST SWAP2 POP SWAP2 POP PUSH2 0x1F5B DUP2 PUSH2 0x2516 JUMP JUMPDEST POP SWAP4 SWAP3 POP POP POP JUMP JUMPDEST PUSH1 0x1 SLOAD PUSH1 0x0 DUP3 SWAP1 SUB PUSH2 0x1FA1 JUMPI PUSH1 0x40 MLOAD PUSH32 0xB562E8DD00000000000000000000000000000000000000000000000000000000 DUP2 MSTORE PUSH1 0x4 ADD PUSH1 0x40 MLOAD DUP1 SWAP2 SUB SWAP1 REVERT JUMPDEST PUSH1 0x1 PUSH1 0x1 PUSH1 0xA0 SHL SUB DUP4 AND PUSH1 0x0 DUP2 DUP2 MSTORE PUSH1 0x6 PUSH1 0x20 SWAP1 DUP2 MSTORE PUSH1 0x40 DUP1 DUP4 KECCAK256 DUP1 SLOAD PUSH9 0x10000000000000001 DUP9 MUL ADD SWAP1 SSTORE DUP5 DUP4 MSTORE PUSH1 0x5 SWAP1 SWAP2 MSTORE DUP2 KECCAK256 PUSH1 0x1 DUP6 EQ PUSH1 0xE1 SHL TIMESTAMP PUSH1 0xA0 SHL OR DUP4 OR SWAP1 SSTORE DUP3 DUP5 ADD SWAP1 DUP4 SWAP1 DUP4 SWAP1 PUSH32 0xDDF252AD1BE2C89B69C2B068FC378DAA952BA7F163C4A11628F55A4DF523B3EF DUP2 DUP1 LOG4 PUSH1 0x1 DUP4 ADD JUMPDEST DUP2 DUP2 EQ PUSH2 0x2050 JUMPI DUP1 DUP4 PUSH1 0x0 PUSH32 0xDDF252AD1BE2C89B69C2B068FC378DAA952BA7F163C4A11628F55A4DF523B3EF PUSH1 0x0 DUP1 LOG4 PUSH1 0x1 ADD PUSH2 0x2018 JUMP JUMPDEST POP DUP2 PUSH1 0x0 SUB PUSH2 0x208B JUMPI PUSH1 0x40 MLOAD PUSH32 0x2E07630000000000000000000000000000000000000000000000000000000000 DUP2 MSTORE PUSH1 0x4 ADD PUSH1 0x40 MLOAD DUP1 SWAP2 SUB SWAP1 REVERT JUMPDEST PUSH1 0x1 SSTORE POP POP POP POP JUMP JUMPDEST PUSH1 0x0 DUP1 PUSH2 0x20A0 DUP4 PUSH2 0x1678 JUMP JUMPDEST SWAP1 POP DUP1 PUSH1 0x1 PUSH1 0x1 PUSH1 0xA0 SHL SUB AND DUP5 PUSH1 0x1 PUSH1 0x1 PUSH1 0xA0 SHL SUB AND EQ DUP1 PUSH2 0x20E7 JUMPI POP PUSH1 0x1 PUSH1 0x1 PUSH1 0xA0 SHL SUB DUP1 DUP3 AND PUSH1 0x0 SWAP1 DUP2 MSTORE PUSH1 0x8 PUSH1 0x20 SWAP1 DUP2 MSTORE PUSH1 0x40 DUP1 DUP4 KECCAK256 SWAP4 DUP9 AND DUP4 MSTORE SWAP3 SWAP1 MSTORE KECCAK256 SLOAD PUSH1 0xFF AND JUMPDEST DUP1 PUSH2 0x210B JUMPI POP DUP4 PUSH1 0x1 PUSH1 0x1 PUSH1 0xA0 SHL SUB AND PUSH2 0x2100 DUP5 PUSH2 0xBB8 JUMP JUMPDEST PUSH1 0x1 PUSH1 0x1 PUSH1 0xA0 SHL SUB AND EQ JUMPDEST SWAP5 SWAP4 POP POP POP POP JUMP JUMPDEST PUSH1 0x0 PUSH2 0x211E DUP4 PUSH2 0x1E88 JUMP JUMPDEST SWAP1 POP DUP1 PUSH1 0x0 DUP1 PUSH2 0x213C DUP7 PUSH1 0x0 SWAP1 DUP2 MSTORE PUSH1 0x7 PUSH1 0x20 MSTORE PUSH1 0x40 SWAP1 KECCAK256 DUP1 SLOAD SWAP1 SWAP2 JUMP JUMPDEST SWAP2 POP SWAP2 POP DUP5 ISZERO PUSH2 0x21B2 JUMPI PUSH2 0x2151 DUP2 DUP5 CALLER PUSH2 0xE11 JUMP JUMPDEST PUSH2 0x21B2 JUMPI PUSH1 0x1 PUSH1 0x1 PUSH1 0xA0 SHL SUB DUP4 AND PUSH1 0x0 SWAP1 DUP2 MSTORE PUSH1 0x8 PUSH1 0x20 SWAP1 DUP2 MSTORE PUSH1 0x40 DUP1 DUP4 KECCAK256 CALLER DUP5 MSTORE SWAP1 SWAP2 MSTORE SWAP1 KECCAK256 SLOAD PUSH1 0xFF AND PUSH2 0x21B2 JUMPI PUSH1 0x40 MLOAD PUSH32 0x59C896BE00000000000000000000000000000000000000000000000000000000 DUP2 MSTORE PUSH1 0x4 ADD PUSH1 0x40 MLOAD DUP1 SWAP2 SUB SWAP1 REVERT JUMPDEST DUP1 ISZERO PUSH2 0x21BD JUMPI PUSH1 0x0 DUP3 SSTORE JUMPDEST PUSH1 0x1 PUSH1 0x1 PUSH1 0xA0 SHL SUB DUP4 AND PUSH1 0x0 DUP2 DUP2 MSTORE PUSH1 0x6 PUSH1 0x20 MSTORE PUSH1 0x40 SWAP1 KECCAK256 DUP1 SLOAD PUSH16 0xFFFFFFFFFFFFFFFFFFFFFFFFFFFFFFFF ADD SWAP1 SSTORE TIMESTAMP PUSH1 0xA0 SHL OR PUSH29 0x300000000000000000000000000000000000000000000000000000000 OR PUSH1 0x0 DUP8 DUP2 MSTORE PUSH1 0x5 PUSH1 0x20 MSTORE PUSH1 0x40 DUP2 KECCAK256 SWAP2 SWAP1 SWAP2 SSTORE PUSH29 0x200000000000000000000000000000000000000000000000000000000 DUP6 AND SWAP1 SUB PUSH2 0x227D JUMPI PUSH1 0x1 DUP7 ADD PUSH1 0x0 DUP2 DUP2 MSTORE PUSH1 0x5 PUSH1 0x20 MSTORE PUSH1 0x40 DUP2 KECCAK256 SLOAD SWAP1 SUB PUSH2 0x227B JUMPI PUSH1 0x1 SLOAD DUP2 EQ PUSH2 0x227B JUMPI PUSH1 0x0 DUP2 DUP2 MSTORE PUSH1 0x5 PUSH1 0x20 MSTORE PUSH1 0x40 SWAP1 KECCAK256 DUP6 SWAP1 SSTORE JUMPDEST POP JUMPDEST PUSH1 0x40 MLOAD DUP7 SWAP1 PUSH1 0x0 SWAP1 PUSH1 0x1 PUSH1 0x1 PUSH1 0xA0 SHL SUB DUP7 AND SWAP1 PUSH32 0xDDF252AD1BE2C89B69C2B068FC378DAA952BA7F163C4A11628F55A4DF523B3EF SWAP1 DUP4 SWAP1 LOG4 POP POP PUSH1 0x2 DUP1 SLOAD PUSH1 0x1 ADD SWAP1 SSTORE POP POP POP POP JUMP JUMPDEST PUSH1 0x9 DUP1 SLOAD PUSH1 0x1 PUSH1 0x1 PUSH1 0xA0 SHL SUB DUP4 DUP2 AND PUSH32 0xFFFFFFFFFFFFFFFFFFFFFFFF0000000000000000000000000000000000000000 DUP4 AND DUP2 OR SWAP1 SWAP4 SSTORE PUSH1 0x40 MLOAD SWAP2 AND SWAP2 SWAP1 DUP3 SWAP1 PUSH32 0x8BE0079C531659141344CD1FD0A4F28419497F9722A3DAAFE3B4186F6B6457E0 SWAP1 PUSH1 0x0 SWAP1 LOG3 POP POP JUMP JUMPDEST PUSH1 0x40 MLOAD PUSH32 0x150B7A0200000000000000000000000000000000000000000000000000000000 DUP2 MSTORE PUSH1 0x0 SWAP1 PUSH1 0x1 PUSH1 0x1 PUSH1 0xA0 SHL SUB DUP6 AND SWAP1 PUSH4 0x150B7A02 SWAP1 PUSH2 0x237E SWAP1 CALLER SWAP1 DUP10 SWAP1 DUP9 SWAP1 DUP9 SWAP1 PUSH1 0x4 ADD PUSH2 0x2E24 JUMP JUMPDEST PUSH1 0x20 PUSH1 0x40 MLOAD DUP1 DUP4 SUB DUP2 PUSH1 0x0 DUP8 GAS CALL SWAP3 POP POP POP DUP1 ISZERO PUSH2 0x23B9 JUMPI POP PUSH1 0x40 DUP1 MLOAD PUSH1 0x1F RETURNDATASIZE SWAP1 DUP2 ADD PUSH1 0x1F NOT AND DUP3 ADD SWAP1 SWAP3 MSTORE PUSH2 0x23B6 SWAP2 DUP2 ADD SWAP1 PUSH2 0x2E60 JUMP JUMPDEST PUSH1 0x1 JUMPDEST PUSH2 0x2430 JUMPI RETURNDATASIZE DUP1 DUP1 ISZERO PUSH2 0x23E7 JUMPI PUSH1 0x40 MLOAD SWAP2 POP PUSH1 0x1F NOT PUSH1 0x3F RETURNDATASIZE ADD AND DUP3 ADD PUSH1 0x40 MSTORE RETURNDATASIZE DUP3 MSTORE RETURNDATASIZE PUSH1 0x0 PUSH1 0x20 DUP5 ADD RETURNDATACOPY PUSH2 0x23EC JUMP JUMPDEST PUSH1 0x60 SWAP2 POP JUMPDEST POP DUP1 MLOAD PUSH1 0x0 SUB PUSH2 0x2428 JUMPI PUSH1 0x40 MLOAD PUSH32 0xD1A57ED600000000000000000000000000000000000000000000000000000000 DUP2 MSTORE PUSH1 0x4 ADD PUSH1 0x40 MLOAD DUP1 SWAP2 SUB SWAP1 REVERT JUMPDEST DUP1 MLOAD DUP2 PUSH1 0x20 ADD REVERT JUMPDEST PUSH32 0xFFFFFFFF00000000000000000000000000000000000000000000000000000000 AND PUSH32 0x150B7A0200000000000000000000000000000000000000000000000000000000 EQ SWAP1 POP SWAP5 SWAP4 POP POP POP POP JUMP JUMPDEST PUSH1 0x60 PUSH1 0xE DUP1 SLOAD PUSH2 0xB35 SWAP1 PUSH2 0x2BC2 JUMP JUMPDEST PUSH1 0x60 PUSH1 0xA0 PUSH1 0x40 MLOAD ADD DUP1 PUSH1 0x40 MSTORE PUSH1 0x20 DUP2 SUB SWAP2 POP POP PUSH1 0x0 DUP2 MSTORE DUP1 DUP3 JUMPDEST PUSH1 0x1 DUP4 SUB SWAP3 POP PUSH1 0xA DUP2 MOD PUSH1 0x30 ADD DUP4 MSTORE8 PUSH1 0xA SWAP1 DIV DUP1 PUSH2 0x24A7 JUMPI POP DUP2 SWAP1 SUB PUSH1 0x1F NOT SWAP1 SWAP2 ADD SWAP1 DUP2 MSTORE SWAP2 SWAP1 POP JUMP JUMPDEST PUSH1 0x0 DUP1 DUP3 MLOAD PUSH1 0x41 SUB PUSH2 0x2507 JUMPI PUSH1 0x20 DUP4 ADD MLOAD PUSH1 0x40 DUP5 ADD MLOAD PUSH1 0x60 DUP6 ADD MLOAD PUSH1 0x0 BYTE PUSH2 0x24FB DUP8 DUP3 DUP6 DUP6 PUSH2 0x26C9 JUMP JUMPDEST SWAP5 POP SWAP5 POP POP POP POP PUSH2 0x250F JUMP JUMPDEST POP PUSH1 0x0 SWAP1 POP PUSH1 0x2 JUMPDEST SWAP3 POP SWAP3 SWAP1 POP JUMP JUMPDEST PUSH1 0x0 DUP2 PUSH1 0x4 DUP2 GT ISZERO PUSH2 0x252A JUMPI PUSH2 0x252A PUSH2 0x2E7D JUMP JUMPDEST SUB PUSH2 0x2532 JUMPI POP JUMP JUMPDEST PUSH1 0x1 DUP2 PUSH1 0x4 DUP2 GT ISZERO PUSH2 0x2546 JUMPI PUSH2 0x2546 PUSH2 0x2E7D JUMP JUMPDEST SUB PUSH2 0x25AD JUMPI PUSH1 0x40 MLOAD PUSH32 0x8C379A000000000000000000000000000000000000000000000000000000000 DUP2 MSTORE PUSH1 0x20 PUSH1 0x4 DUP3 ADD MSTORE PUSH1 0x18 PUSH1 0x24 DUP3 ADD MSTORE PUSH32 0x45434453413A20696E76616C6964207369676E61747572650000000000000000 PUSH1 0x44 DUP3 ADD MSTORE PUSH1 0x64 ADD PUSH2 0x1987 JUMP JUMPDEST PUSH1 0x2 DUP2 PUSH1 0x4 DUP2 GT ISZERO PUSH2 0x25C1 JUMPI PUSH2 0x25C1 PUSH2 0x2E7D JUMP JUMPDEST SUB PUSH2 0x2628 JUMPI PUSH1 0x40 MLOAD PUSH32 0x8C379A000000000000000000000000000000000000000000000000000000000 DUP2 MSTORE PUSH1 0x20 PUSH1 0x4 DUP3 ADD MSTORE PUSH1 0x1F PUSH1 0x24 DUP3 ADD MSTORE PUSH32 0x45434453413A20696E76616C6964207369676E6174757265206C656E67746800 PUSH1 0x44 DUP3 ADD MSTORE PUSH1 0x64 ADD PUSH2 0x1987 JUMP JUMPDEST PUSH1 0x3 DUP2 PUSH1 0x4 DUP2 GT ISZERO PUSH2 0x263C JUMPI PUSH2 0x263C PUSH2 0x2E7D JUMP JUMPDEST SUB PUSH2 0x1DD0 JUMPI PUSH1 0x40 MLOAD PUSH32 0x8C379A000000000000000000000000000000000000000000000000000000000 DUP2 MSTORE PUSH1 0x20 PUSH1 0x4 DUP3 ADD MSTORE PUSH1 0x22 PUSH1 0x24 DUP3 ADD MSTORE PUSH32 0x45434453413A20696E76616C6964207369676E6174757265202773272076616C PUSH1 0x44 DUP3 ADD MSTORE PUSH32 0x7565000000000000000000000000000000000000000000000000000000000000 PUSH1 0x64 DUP3 ADD MSTORE PUSH1 0x84 ADD PUSH2 0x1987 JUMP JUMPDEST PUSH1 0x0 DUP1 PUSH32 0x7FFFFFFFFFFFFFFFFFFFFFFFFFFFFFFF5D576E7357A4501DDFE92F46681B20A0 DUP4 GT ISZERO PUSH2 0x2700 JUMPI POP PUSH1 0x0 SWAP1 POP PUSH1 0x3 PUSH2 0x2784 JUMP JUMPDEST PUSH1 0x40 DUP1 MLOAD PUSH1 0x0 DUP1 DUP3 MSTORE PUSH1 0x20 DUP3 ADD DUP1 DUP5 MSTORE DUP10 SWAP1 MSTORE PUSH1 0xFF DUP9 AND SWAP3 DUP3 ADD SWAP3 SWAP1 SWAP3 MSTORE PUSH1 0x60 DUP2 ADD DUP7 SWAP1 MSTORE PUSH1 0x80 DUP2 ADD DUP6 SWAP1 MSTORE PUSH1 0x1 SWAP1 PUSH1 0xA0 ADD PUSH1 0x20 PUSH1 0x40 MLOAD PUSH1 0x20 DUP2 SUB SWAP1 DUP1 DUP5 SUB SWAP1 DUP6 GAS STATICCALL ISZERO DUP1 ISZERO PUSH2 0x2754 JUMPI RETURNDATASIZE PUSH1 0x0 DUP1 RETURNDATACOPY RETURNDATASIZE PUSH1 0x0 REVERT JUMPDEST POP POP PUSH1 0x40 MLOAD PUSH1 0x1F NOT ADD MLOAD SWAP2 POP POP PUSH1 0x1 PUSH1 0x1 PUSH1 0xA0 SHL SUB DUP2 AND PUSH2 0x277D JUMPI PUSH1 0x0 PUSH1 0x1 SWAP3 POP SWAP3 POP POP PUSH2 0x2784 JUMP JUMPDEST SWAP2 POP PUSH1 0x0 SWAP1 POP JUMPDEST SWAP5 POP SWAP5 SWAP3 POP POP POP JUMP JUMPDEST DUP1 CALLDATALOAD PUSH1 0x1 PUSH1 0x1 PUSH1 0xA0 SHL SUB DUP2 AND DUP2 EQ PUSH2 0x27A4 JUMPI PUSH1 0x0 DUP1 REVERT JUMPDEST SWAP2 SWAP1 POP JUMP JUMPDEST PUSH1 0x0 DUP1 PUSH1 0x40 DUP4 DUP6 SUB SLT ISZERO PUSH2 0x27BC JUMPI PUSH1 0x0 DUP1 REVERT JUMPDEST DUP3 CALLDATALOAD SWAP2 POP PUSH2 0x27CC PUSH1 0x20 DUP5 ADD PUSH2 0x278D JUMP JUMPDEST SWAP1 POP SWAP3 POP SWAP3 SWAP1 POP JUMP JUMPDEST PUSH32 0xFFFFFFFF00000000000000000000000000000000000000000000000000000000 DUP2 AND DUP2 EQ PUSH2 0x1DD0 JUMPI PUSH1 0x0 DUP1 REVERT JUMPDEST PUSH1 0x0 PUSH1 0x20 DUP3 DUP5 SUB SLT ISZERO PUSH2 0x2815 JUMPI PUSH1 0x0 DUP1 REVERT JUMPDEST DUP2 CALLDATALOAD PUSH2 0x1C2A DUP2 PUSH2 0x27D5 JUMP JUMPDEST PUSH1 0x0 DUP1 PUSH1 0x20 DUP4 DUP6 SUB SLT ISZERO PUSH2 0x2833 JUMPI PUSH1 0x0 DUP1 REVERT JUMPDEST DUP3 CALLDATALOAD PUSH8 0xFFFFFFFFFFFFFFFF DUP1 DUP3 GT ISZERO PUSH2 0x284B JUMPI PUSH1 0x0 DUP1 REVERT JUMPDEST DUP2 DUP6 ADD SWAP2 POP DUP6 PUSH1 0x1F DUP4 ADD SLT PUSH2 0x285F JUMPI PUSH1 0x0 DUP1 REVERT JUMPDEST DUP2 CALLDATALOAD DUP2 DUP2 GT ISZERO PUSH2 0x286E JUMPI PUSH1 0x0 DUP1 REVERT JUMPDEST DUP7 PUSH1 0x20 DUP3 DUP6 ADD ADD GT ISZERO PUSH2 0x2880 JUMPI PUSH1 0x0 DUP1 REVERT JUMPDEST PUSH1 0x20 SWAP3 SWAP1 SWAP3 ADD SWAP7 SWAP2 SWAP6 POP SWAP1 SWAP4 POP POP POP POP JUMP JUMPDEST PUSH1 0x0 JUMPDEST DUP4 DUP2 LT ISZERO PUSH2 0x28AD JUMPI DUP2 DUP2 ADD MLOAD DUP4 DUP3 ADD MSTORE PUSH1 0x20 ADD PUSH2 0x2895 JUMP JUMPDEST POP POP PUSH1 0x0 SWAP2 ADD MSTORE JUMP JUMPDEST PUSH1 0x0 DUP2 MLOAD DUP1 DUP5 MSTORE PUSH2 0x28CE DUP2 PUSH1 0x20 DUP7 ADD PUSH1 0x20 DUP7 ADD PUSH2 0x2892 JUMP JUMPDEST PUSH1 0x1F ADD PUSH1 0x1F NOT AND SWAP3 SWAP1 SWAP3 ADD PUSH1 0x20 ADD SWAP3 SWAP2 POP POP JUMP JUMPDEST PUSH1 0x20 DUP2 MSTORE PUSH1 0x0 PUSH2 0x1C2A PUSH1 0x20 DUP4 ADD DUP5 PUSH2 0x28B6 JUMP JUMPDEST PUSH1 0x0 PUSH1 0x20 DUP3 DUP5 SUB SLT ISZERO PUSH2 0x2907 JUMPI PUSH1 0x0 DUP1 REVERT JUMPDEST POP CALLDATALOAD SWAP2 SWAP1 POP JUMP JUMPDEST PUSH1 0x0 DUP1 PUSH1 0x40 DUP4 DUP6 SUB SLT ISZERO PUSH2 0x2921 JUMPI PUSH1 0x0 DUP1 REVERT JUMPDEST PUSH2 0x292A DUP4 PUSH2 0x278D JUMP JUMPDEST SWAP5 PUSH1 0x20 SWAP4 SWAP1 SWAP4 ADD CALLDATALOAD SWAP4 POP POP POP JUMP JUMPDEST PUSH1 0x0 PUSH1 0x20 DUP3 DUP5 SUB SLT ISZERO PUSH2 0x294A JUMPI PUSH1 0x0 DUP1 REVERT JUMPDEST PUSH2 0x1C2A DUP3 PUSH2 0x278D JUMP JUMPDEST PUSH1 0x0 DUP1 PUSH1 0x0 PUSH1 0x60 DUP5 DUP7 SUB SLT ISZERO PUSH2 0x2968 JUMPI PUSH1 0x0 DUP1 REVERT JUMPDEST PUSH2 0x2971 DUP5 PUSH2 0x278D JUMP JUMPDEST SWAP3 POP PUSH2 0x297F PUSH1 0x20 DUP6 ADD PUSH2 0x278D JUMP JUMPDEST SWAP2 POP PUSH1 0x40 DUP5 ADD CALLDATALOAD SWAP1 POP SWAP3 POP SWAP3 POP SWAP3 JUMP JUMPDEST DUP1 CALLDATALOAD PUSH6 0xFFFFFFFFFFFF DUP2 AND DUP2 EQ PUSH2 0x27A4 JUMPI PUSH1 0x0 DUP1 REVERT JUMPDEST PUSH32 0x4E487B7100000000000000000000000000000000000000000000000000000000 PUSH1 0x0 MSTORE PUSH1 0x41 PUSH1 0x4 MSTORE PUSH1 0x24 PUSH1 0x0 REVERT JUMPDEST PUSH1 0x0 DUP3 PUSH1 0x1F DUP4 ADD SLT PUSH2 0x29E5 JUMPI PUSH1 0x0 DUP1 REVERT JUMPDEST DUP2 CALLDATALOAD PUSH8 0xFFFFFFFFFFFFFFFF DUP1 DUP3 GT ISZERO PUSH2 0x2A00 JUMPI PUSH2 0x2A00 PUSH2 0x29A5 JUMP JUMPDEST PUSH1 0x40 MLOAD PUSH1 0x1F DUP4 ADD PUSH1 0x1F NOT SWAP1 DUP2 AND PUSH1 0x3F ADD AND DUP2 ADD SWAP1 DUP3 DUP3 GT DUP2 DUP4 LT OR ISZERO PUSH2 0x2A28 JUMPI PUSH2 0x2A28 PUSH2 0x29A5 JUMP JUMPDEST DUP2 PUSH1 0x40 MSTORE DUP4 DUP2 MSTORE DUP7 PUSH1 0x20 DUP6 DUP9 ADD ADD GT ISZERO PUSH2 0x2A41 JUMPI PUSH1 0x0 DUP1 REVERT JUMPDEST DUP4 PUSH1 0x20 DUP8 ADD PUSH1 0x20 DUP4 ADD CALLDATACOPY PUSH1 0x0 PUSH1 0x20 DUP6 DUP4 ADD ADD MSTORE DUP1 SWAP5 POP POP POP POP POP SWAP3 SWAP2 POP POP JUMP JUMPDEST PUSH1 0x0 DUP1 PUSH1 0x40 DUP4 DUP6 SUB SLT ISZERO PUSH2 0x2A74 JUMPI PUSH1 0x0 DUP1 REVERT JUMPDEST PUSH2 0x2A7D DUP4 PUSH2 0x298F JUMP JUMPDEST SWAP2 POP PUSH1 0x20 DUP4 ADD CALLDATALOAD PUSH8 0xFFFFFFFFFFFFFFFF DUP2 GT ISZERO PUSH2 0x2A99 JUMPI PUSH1 0x0 DUP1 REVERT JUMPDEST PUSH2 0x2AA5 DUP6 DUP3 DUP7 ADD PUSH2 0x29D4 JUMP JUMPDEST SWAP2 POP POP SWAP3 POP SWAP3 SWAP1 POP JUMP JUMPDEST PUSH1 0x0 DUP1 PUSH1 0x40 DUP4 DUP6 SUB SLT ISZERO PUSH2 0x2AC2 JUMPI PUSH1 0x0 DUP1 REVERT JUMPDEST PUSH2 0x2ACB DUP4 PUSH2 0x278D JUMP JUMPDEST SWAP2 POP PUSH2 0x27CC PUSH1 0x20 DUP5 ADD PUSH2 0x298F JUMP JUMPDEST PUSH1 0x0 DUP1 PUSH1 0x40 DUP4 DUP6 SUB SLT ISZERO PUSH2 0x2AEC JUMPI PUSH1 0x0 DUP1 REVERT JUMPDEST PUSH2 0x2AF5 DUP4 PUSH2 0x278D JUMP JUMPDEST SWAP2 POP PUSH1 0x20 DUP4 ADD CALLDATALOAD DUP1 ISZERO ISZERO DUP2 EQ PUSH2 0x2B0A JUMPI PUSH1 0x0 DUP1 REVERT JUMPDEST DUP1 SWAP2 POP POP SWAP3 POP SWAP3 SWAP1 POP JUMP JUMPDEST PUSH1 0x0 PUSH1 0x20 DUP3 DUP5 SUB SLT ISZERO PUSH2 0x2B27 JUMPI PUSH1 0x0 DUP1 REVERT JUMPDEST PUSH2 0x1C2A DUP3 PUSH2 0x298F JUMP JUMPDEST PUSH1 0x0 DUP1 PUSH1 0x0 DUP1 PUSH1 0x80 DUP6 DUP8 SUB SLT ISZERO PUSH2 0x2B46 JUMPI PUSH1 0x0 DUP1 REVERT JUMPDEST PUSH2 0x2B4F DUP6 PUSH2 0x278D JUMP JUMPDEST SWAP4 POP PUSH2 0x2B5D PUSH1 0x20 DUP7 ADD PUSH2 0x278D JUMP JUMPDEST SWAP3 POP PUSH1 0x40 DUP6 ADD CALLDATALOAD SWAP2 POP PUSH1 0x60 DUP6 ADD CALLDATALOAD PUSH8 0xFFFFFFFFFFFFFFFF DUP2 GT ISZERO PUSH2 0x2B80 JUMPI PUSH1 0x0 DUP1 REVERT JUMPDEST PUSH2 0x2B8C DUP8 DUP3 DUP9 ADD PUSH2 0x29D4 JUMP JUMPDEST SWAP2 POP POP SWAP3 SWAP6 SWAP2 SWAP5 POP SWAP3 POP JUMP JUMPDEST PUSH1 0x0 DUP1 PUSH1 0x40 DUP4 DUP6 SUB SLT ISZERO PUSH2 0x2BAB JUMPI PUSH1 0x0 DUP1 REVERT JUMPDEST PUSH2 0x2BB4 DUP4 PUSH2 0x278D JUMP JUMPDEST SWAP2 POP PUSH2 0x27CC PUSH1 0x20 DUP5 ADD PUSH2 0x278D JUMP JUMPDEST PUSH1 0x1 DUP2 DUP2 SHR SWAP1 DUP3 AND DUP1 PUSH2 0x2BD6 JUMPI PUSH1 0x7F DUP3 AND SWAP2 POP JUMPDEST PUSH1 0x20 DUP3 LT DUP2 SUB PUSH2 0x2C0F JUMPI PUSH32 0x4E487B7100000000000000000000000000000000000000000000000000000000 PUSH1 0x0 MSTORE PUSH1 0x22 PUSH1 0x4 MSTORE PUSH1 0x24 PUSH1 0x0 REVERT JUMPDEST POP SWAP2 SWAP1 POP JUMP JUMPDEST PUSH1 0x1F DUP3 GT ISZERO PUSH2 0x1465 JUMPI PUSH1 0x0 DUP2 DUP2 MSTORE PUSH1 0x20 DUP2 KECCAK256 PUSH1 0x1F DUP6 ADD PUSH1 0x5 SHR DUP2 ADD PUSH1 0x20 DUP7 LT ISZERO PUSH2 0x2C3C JUMPI POP DUP1 JUMPDEST PUSH1 0x1F DUP6 ADD PUSH1 0x5 SHR DUP3 ADD SWAP2 POP JUMPDEST DUP2 DUP2 LT ISZERO PUSH2 0xFF6 JUMPI DUP3 DUP2 SSTORE PUSH1 0x1 ADD PUSH2 0x2C48 JUMP JUMPDEST PUSH8 0xFFFFFFFFFFFFFFFF DUP4 GT ISZERO PUSH2 0x2C73 JUMPI PUSH2 0x2C73 PUSH2 0x29A5 JUMP JUMPDEST PUSH2 0x2C87 DUP4 PUSH2 0x2C81 DUP4 SLOAD PUSH2 0x2BC2 JUMP JUMPDEST DUP4 PUSH2 0x2C15 JUMP JUMPDEST PUSH1 0x0 PUSH1 0x1F DUP5 GT PUSH1 0x1 DUP2 EQ PUSH2 0x2CD9 JUMPI PUSH1 0x0 DUP6 ISZERO PUSH2 0x2CA3 JUMPI POP DUP4 DUP3 ADD CALLDATALOAD JUMPDEST PUSH32 0xFFFFFFFFFFFFFFFFFFFFFFFFFFFFFFFFFFFFFFFFFFFFFFFFFFFFFFFFFFFFFFFF PUSH1 0x3 DUP8 SWAP1 SHL SHR NOT AND PUSH1 0x1 DUP7 SWAP1 SHL OR DUP4 SSTORE PUSH2 0x2D51 JUMP JUMPDEST PUSH1 0x0 DUP4 DUP2 MSTORE PUSH1 0x20 SWAP1 KECCAK256 PUSH1 0x1F NOT DUP7 AND SWAP1 DUP4 JUMPDEST DUP3 DUP2 LT ISZERO PUSH2 0x2D0A JUMPI DUP7 DUP6 ADD CALLDATALOAD DUP3 SSTORE PUSH1 0x20 SWAP5 DUP6 ADD SWAP5 PUSH1 0x1 SWAP1 SWAP3 ADD SWAP2 ADD PUSH2 0x2CEA JUMP JUMPDEST POP DUP7 DUP3 LT ISZERO PUSH2 0x2D45 JUMPI PUSH32 0xFFFFFFFFFFFFFFFFFFFFFFFFFFFFFFFFFFFFFFFFFFFFFFFFFFFFFFFFFFFFFFFF PUSH1 0xF8 DUP9 PUSH1 0x3 SHL AND SHR NOT DUP5 DUP8 ADD CALLDATALOAD AND DUP2 SSTORE JUMPDEST POP POP PUSH1 0x1 DUP6 PUSH1 0x1 SHL ADD DUP4 SSTORE JUMPDEST POP POP POP POP POP JUMP JUMPDEST DUP2 DUP4 DUP3 CALLDATACOPY PUSH1 0x0 SWAP2 ADD SWAP1 DUP2 MSTORE SWAP2 SWAP1 POP JUMP JUMPDEST PUSH32 0x4E487B7100000000000000000000000000000000000000000000000000000000 PUSH1 0x0 MSTORE PUSH1 0x11 PUSH1 0x4 MSTORE PUSH1 0x24 PUSH1 0x0 REVERT JUMPDEST PUSH6 0xFFFFFFFFFFFF DUP2 DUP2 AND DUP4 DUP3 AND ADD SWAP1 DUP1 DUP3 GT ISZERO PUSH2 0x2DB6 JUMPI PUSH2 0x2DB6 PUSH2 0x2D68 JUMP JUMPDEST POP SWAP3 SWAP2 POP POP JUMP JUMPDEST PUSH8 0xFFFFFFFFFFFFFFFF DUP2 DUP2 AND DUP4 DUP3 AND ADD SWAP1 DUP1 DUP3 GT ISZERO PUSH2 0x2DB6 JUMPI PUSH2 0x2DB6 PUSH2 0x2D68 JUMP JUMPDEST DUP1 DUP3 MUL DUP2 ISZERO DUP3 DUP3 DIV DUP5 EQ OR PUSH2 0xAC6 JUMPI PUSH2 0xAC6 PUSH2 0x2D68 JUMP JUMPDEST PUSH1 0x0 DUP4 MLOAD PUSH2 0x2E07 DUP2 DUP5 PUSH1 0x20 DUP9 ADD PUSH2 0x2892 JUMP JUMPDEST DUP4 MLOAD SWAP1 DUP4 ADD SWAP1 PUSH2 0x2E1B DUP2 DUP4 PUSH1 0x20 DUP9 ADD PUSH2 0x2892 JUMP JUMPDEST ADD SWAP5 SWAP4 POP POP POP POP JUMP JUMPDEST PUSH1 0x0 PUSH1 0x1 PUSH1 0x1 PUSH1 0xA0 SHL SUB DUP1 DUP8 AND DUP4 MSTORE DUP1 DUP7 AND PUSH1 0x20 DUP5 ADD MSTORE POP DUP4 PUSH1 0x40 DUP4 ADD MSTORE PUSH1 0x80 PUSH1 0x60 DUP4 ADD MSTORE PUSH2 0x2E56 PUSH1 0x80 DUP4 ADD DUP5 PUSH2 0x28B6 JUMP JUMPDEST SWAP7 SWAP6 POP POP POP POP POP POP JUMP JUMPDEST PUSH1 0x0 PUSH1 0x20 DUP3 DUP5 SUB SLT ISZERO PUSH2 0x2E72 JUMPI PUSH1 0x0 DUP1 REVERT JUMPDEST DUP2 MLOAD PUSH2 0x1C2A DUP2 PUSH2 0x27D5 JUMP JUMPDEST PUSH32 0x4E487B7100000000000000000000000000000000000000000000000000000000 PUSH1 0x0 MSTORE PUSH1 0x21 PUSH1 0x4 MSTORE PUSH1 0x24 PUSH1 0x0 REVERT INVALID LOG2 PUSH5 0x6970667358 0x22 SLT KECCAK256 0x4B 0xCC MUL DUP8 0xD 0xDD 0xF9 0xD8 0xB7 JUMPI PUSH8 0x311681F7BDE726C3 0x26 0x25 SWAP16 SHL PUSH18 0xDC04D121BF76F21964736F6C634300081100 CALLER "
		},
		"gasEstimates": {
			"creation": {
				"codeDepositCost": "2400400",
				"executionCost": "infinite",
				"totalCost": "infinite"
			},
			"external": {
				"ALLOW_LIST_PRICE()": "2385",
				"ALLOW_SUPPLY()": "2392",
				"DEV_LIMIT()": "2392",
				"DISTRICT_BITMASK()": "295",
				"MAX_SUPPLY()": "285",
				"METADATA_URL()": "infinite",
				"PUBLIC_ADDRESS()": "2404",
				"PUBLIC_PRICE()": "2386",
				"PUBLIC_SUPPLY()": "2414",
				"SECTION_BITMASK()": "293",
				"SUPPLY()": "2424",
				"approve(address,uint256)": "infinite",
				"balanceOf(address)": "2685",
				"burn(uint256)": "infinite",
				"devMint(address,uint48)": "infinite",
				"getApproved(uint256)": "6964",
				"getApprovedStartTime()": "2404",
				"getSigner()": "4583",
				"getTime()": "342",
				"isApprovedForAll(address,address)": "infinite",
				"name()": "infinite",
				"numberMinted(address)": "2697",
				"numberMintedFree(address)": "2703",
				"numberMintedPublic(address)": "2725",
				"numberMintedWhiteList(address)": "2682",
				"owner()": "2420",
				"ownerOf(uint256)": "infinite",
				"publicMint(uint48)": "infinite",
				"renounceOwnership()": "infinite",
				"safeTransferFrom(address,address,uint256)": "infinite",
				"safeTransferFrom(address,address,uint256,bytes)": "infinite",
				"setAllowListAddress(address)": "28006",
				"setApprovalForAll(address,bool)": "28775",
				"setApprovalTime(uint256)": "25743",
				"setPublicMintPrice(uint256)": "25740",
				"setSigner(address)": "27962",
				"setURI(string)": "infinite",
				"setWlMintPrice(uint256)": "25739",
				"signers()": "2426",
				"supportsInterface(bytes4)": "524",
				"symbol()": "infinite",
				"tokenURI(uint256)": "infinite",
				"totalSupply()": "4500",
				"transferFrom(address,address,uint256)": "infinite",
				"transferOwnership(address)": "28431",
				"whitelistMint(uint48,bytes)": "infinite",
				"withdraw(uint256,address)": "infinite"
			},
			"internal": {
				"_baseURI()": "infinite",
				"_isApprovedOrOwner(address,uint256)": "infinite"
			}
		},
		"methodIdentifiers": {
			"ALLOW_LIST_PRICE()": "ad570dd5",
			"ALLOW_SUPPLY()": "2a51a8e2",
			"DEV_LIMIT()": "18f0c43e",
			"DISTRICT_BITMASK()": "144a79e3",
			"MAX_SUPPLY()": "32cb6b0c",
			"METADATA_URL()": "e1911d70",
			"PUBLIC_ADDRESS()": "8c1b346f",
			"PUBLIC_PRICE()": "611f3f10",
			"PUBLIC_SUPPLY()": "8342083a",
			"SECTION_BITMASK()": "becd61d8",
			"SUPPLY()": "c50497ae",
			"approve(address,uint256)": "095ea7b3",
			"balanceOf(address)": "70a08231",
			"burn(uint256)": "42966c68",
			"devMint(address,uint48)": "4312dc7c",
			"getApproved(uint256)": "081812fc",
			"getApprovedStartTime()": "1d5a7e96",
			"getSigner()": "7ac3c02f",
			"getTime()": "557ed1ba",
			"isApprovedForAll(address,address)": "e985e9c5",
			"name()": "06fdde03",
			"numberMinted(address)": "dc33e681",
			"numberMintedFree(address)": "1a6eedb4",
			"numberMintedPublic(address)": "8535923f",
			"numberMintedWhiteList(address)": "22fa3dfa",
			"owner()": "8da5cb5b",
			"ownerOf(uint256)": "6352211e",
			"publicMint(uint48)": "b079fe74",
			"renounceOwnership()": "715018a6",
			"safeTransferFrom(address,address,uint256)": "42842e0e",
			"safeTransferFrom(address,address,uint256,bytes)": "b88d4fde",
			"setAllowListAddress(address)": "33171b93",
			"setApprovalForAll(address,bool)": "a22cb465",
			"setApprovalTime(uint256)": "d2e21b13",
			"setPublicMintPrice(uint256)": "5d82cf6e",
			"setSigner(address)": "6c19e783",
			"setURI(string)": "02fe5305",
			"setWlMintPrice(uint256)": "3d272294",
			"signers()": "46f0975a",
			"supportsInterface(bytes4)": "01ffc9a7",
			"symbol()": "95d89b41",
			"tokenURI(uint256)": "c87b56dd",
			"totalSupply()": "18160ddd",
			"transferFrom(address,address,uint256)": "23b872dd",
			"transferOwnership(address)": "f2fde38b",
			"whitelistMint(uint48,bytes)": "25d82002",
			"withdraw(uint256,address)": "00f714ce"
		}
	},
	"abi": [
		{
			"inputs": [],
			"stateMutability": "nonpayable",
			"type": "constructor"
		},
		{
			"inputs": [],
			"name": "ApprovalCallerNotOwnerNorApproved",
			"type": "error"
		},
		{
			"inputs": [],
			"name": "ApprovalQueryForNonexistentToken",
			"type": "error"
		},
		{
			"inputs": [],
			"name": "BalanceQueryForZeroAddress",
			"type": "error"
		},
		{
			"inputs": [],
			"name": "CallerIsContract",
			"type": "error"
		},
		{
			"inputs": [],
			"name": "CanNotApproval",
			"type": "error"
		},
		{
			"inputs": [],
			"name": "InsufficientFunds",
			"type": "error"
		},
		{
			"inputs": [],
			"name": "InvalidAllowAddress",
			"type": "error"
		},
		{
			"inputs": [],
			"name": "InvalidMintAmount",
			"type": "error"
		},
		{
			"inputs": [],
			"name": "InvalidMintPriceChange",
			"type": "error"
		},
		{
			"inputs": [],
			"name": "InvalidSignature",
			"type": "error"
		},
		{
			"inputs": [],
			"name": "InvalidSignerAddress",
			"type": "error"
		},
		{
			"inputs": [],
			"name": "InvalidWithdrawalAmount",
			"type": "error"
		},
		{
			"inputs": [],
			"name": "IsNotTokenOwnerNorApproved",
			"type": "error"
		},
		{
			"inputs": [],
			"name": "MintAmountExceedsSupply",
			"type": "error"
		},
		{
			"inputs": [],
			"name": "MintAmountExceedsUserAllowance",
			"type": "error"
		},
		{
			"inputs": [],
			"name": "MintERC2309QuantityExceedsLimit",
			"type": "error"
		},
		{
			"inputs": [],
			"name": "MintToZeroAddress",
			"type": "error"
		},
		{
			"inputs": [],
			"name": "MintZeroQuantity",
			"type": "error"
		},
		{
			"inputs": [],
			"name": "OwnerQueryForNonexistentToken",
			"type": "error"
		},
		{
			"inputs": [],
			"name": "OwnershipNotInitializedForExtraData",
			"type": "error"
		},
		{
			"inputs": [],
			"name": "TransferCallerNotOwnerNorApproved",
			"type": "error"
		},
		{
			"inputs": [],
			"name": "TransferFromIncorrectOwner",
			"type": "error"
		},
		{
			"inputs": [],
			"name": "TransferToNonERC721ReceiverImplementer",
			"type": "error"
		},
		{
			"inputs": [],
			"name": "TransferToZeroAddress",
			"type": "error"
		},
		{
			"inputs": [],
			"name": "URIQueryForNonexistentToken",
			"type": "error"
		},
		{
			"inputs": [],
			"name": "WithdrawalFailed",
			"type": "error"
		},
		{
			"anonymous": false,
			"inputs": [
				{
					"indexed": true,
					"internalType": "address",
					"name": "owner",
					"type": "address"
				},
				{
					"indexed": true,
					"internalType": "address",
					"name": "approved",
					"type": "address"
				},
				{
					"indexed": true,
					"internalType": "uint256",
					"name": "tokenId",
					"type": "uint256"
				}
			],
			"name": "Approval",
			"type": "event"
		},
		{
			"anonymous": false,
			"inputs": [
				{
					"indexed": true,
					"internalType": "address",
					"name": "owner",
					"type": "address"
				},
				{
					"indexed": true,
					"internalType": "address",
					"name": "operator",
					"type": "address"
				},
				{
					"indexed": false,
					"internalType": "bool",
					"name": "approved",
					"type": "bool"
				}
			],
			"name": "ApprovalForAll",
			"type": "event"
		},
		{
			"anonymous": false,
			"inputs": [
				{
					"indexed": true,
					"internalType": "uint256",
					"name": "tokenId",
					"type": "uint256"
				}
			],
			"name": "Burn",
			"type": "event"
		},
		{
			"anonymous": false,
			"inputs": [
				{
					"indexed": true,
					"internalType": "uint256",
					"name": "fromTokenId",
					"type": "uint256"
				},
				{
					"indexed": false,
					"internalType": "uint256",
					"name": "toTokenId",
					"type": "uint256"
				},
				{
					"indexed": true,
					"internalType": "address",
					"name": "from",
					"type": "address"
				},
				{
					"indexed": true,
					"internalType": "address",
					"name": "to",
					"type": "address"
				}
			],
			"name": "ConsecutiveTransfer",
			"type": "event"
		},
		{
			"anonymous": false,
			"inputs": [
				{
					"indexed": true,
					"internalType": "uint48",
					"name": "amount",
					"type": "uint48"
				}
			],
			"name": "MintedCounters",
			"type": "event"
		},
		{
			"anonymous": false,
			"inputs": [
				{
					"indexed": true,
					"internalType": "address",
					"name": "previousOwner",
					"type": "address"
				},
				{
					"indexed": true,
					"internalType": "address",
					"name": "newOwner",
					"type": "address"
				}
			],
			"name": "OwnershipTransferred",
			"type": "event"
		},
		{
			"anonymous": false,
			"inputs": [
				{
					"indexed": true,
					"internalType": "uint8",
					"name": "newPhase",
					"type": "uint8"
				}
			],
			"name": "SalesPhaseChanged",
			"type": "event"
		},
		{
			"anonymous": false,
			"inputs": [
				{
					"indexed": true,
					"internalType": "address",
					"name": "allowAddress",
					"type": "address"
				}
			],
			"name": "SetAllowAddress",
			"type": "event"
		},
		{
			"anonymous": false,
			"inputs": [
				{
					"indexed": true,
					"internalType": "uint256",
					"name": "time",
					"type": "uint256"
				}
			],
			"name": "SetApprovalTime",
			"type": "event"
		},
		{
			"anonymous": false,
			"inputs": [
				{
					"indexed": true,
					"internalType": "bytes32",
					"name": "root",
					"type": "bytes32"
				}
			],
			"name": "SetMerkleRoot",
			"type": "event"
		},
		{
			"anonymous": false,
			"inputs": [
				{
					"indexed": true,
					"internalType": "uint256",
					"name": "Price",
					"type": "uint256"
				}
			],
			"name": "SetPublicPrice",
			"type": "event"
		},
		{
			"anonymous": false,
			"inputs": [
				{
					"indexed": true,
					"internalType": "address",
					"name": "signer",
					"type": "address"
				}
			],
			"name": "SetSignerAddress",
			"type": "event"
		},
		{
			"anonymous": false,
			"inputs": [
				{
					"indexed": true,
					"internalType": "string",
					"name": "uri",
					"type": "string"
				}
			],
			"name": "SetURI",
			"type": "event"
		},
		{
			"anonymous": false,
			"inputs": [
				{
					"indexed": true,
					"internalType": "uint256",
					"name": "Price",
					"type": "uint256"
				}
			],
			"name": "SetWlPrice",
			"type": "event"
		},
		{
			"anonymous": false,
			"inputs": [
				{
					"indexed": true,
					"internalType": "address",
					"name": "from",
					"type": "address"
				},
				{
					"indexed": true,
					"internalType": "address",
					"name": "to",
					"type": "address"
				},
				{
					"indexed": true,
					"internalType": "uint256",
					"name": "tokenId",
					"type": "uint256"
				}
			],
			"name": "Transfer",
			"type": "event"
		},
		{
			"anonymous": false,
			"inputs": [
				{
					"indexed": true,
					"internalType": "uint256",
					"name": "amount",
					"type": "uint256"
				},
				{
					"indexed": true,
					"internalType": "address",
					"name": "to",
					"type": "address"
				}
			],
			"name": "Withdraw",
			"type": "event"
		},
		{
			"inputs": [],
			"name": "ALLOW_LIST_PRICE",
			"outputs": [
				{
					"internalType": "uint256",
					"name": "",
					"type": "uint256"
				}
			],
			"stateMutability": "view",
			"type": "function"
		},
		{
			"inputs": [],
			"name": "ALLOW_SUPPLY",
			"outputs": [
				{
					"internalType": "uint8",
					"name": "",
					"type": "uint8"
				}
			],
			"stateMutability": "view",
			"type": "function"
		},
		{
			"inputs": [],
			"name": "DEV_LIMIT",
			"outputs": [
				{
					"internalType": "uint8",
					"name": "",
					"type": "uint8"
				}
			],
			"stateMutability": "view",
			"type": "function"
		},
		{
			"inputs": [],
			"name": "DISTRICT_BITMASK",
			"outputs": [
				{
					"internalType": "uint48",
					"name": "",
					"type": "uint48"
				}
			],
			"stateMutability": "view",
			"type": "function"
		},
		{
			"inputs": [],
			"name": "MAX_SUPPLY",
			"outputs": [
				{
					"internalType": "uint256",
					"name": "",
					"type": "uint256"
				}
			],
			"stateMutability": "view",
			"type": "function"
		},
		{
			"inputs": [],
			"name": "METADATA_URL",
			"outputs": [
				{
					"internalType": "string",
					"name": "",
					"type": "string"
				}
			],
			"stateMutability": "view",
			"type": "function"
		},
		{
			"inputs": [],
			"name": "PUBLIC_ADDRESS",
			"outputs": [
				{
					"internalType": "address",
					"name": "",
					"type": "address"
				}
			],
			"stateMutability": "view",
			"type": "function"
		},
		{
			"inputs": [],
			"name": "PUBLIC_PRICE",
			"outputs": [
				{
					"internalType": "uint256",
					"name": "",
					"type": "uint256"
				}
			],
			"stateMutability": "view",
			"type": "function"
		},
		{
			"inputs": [],
			"name": "PUBLIC_SUPPLY",
			"outputs": [
				{
					"internalType": "uint8",
					"name": "",
					"type": "uint8"
				}
			],
			"stateMutability": "view",
			"type": "function"
		},
		{
			"inputs": [],
			"name": "SECTION_BITMASK",
			"outputs": [
				{
					"internalType": "uint48",
					"name": "",
					"type": "uint48"
				}
			],
			"stateMutability": "view",
			"type": "function"
		},
		{
			"inputs": [],
			"name": "SUPPLY",
			"outputs": [
				{
					"internalType": "uint48",
					"name": "",
					"type": "uint48"
				}
			],
			"stateMutability": "view",
			"type": "function"
		},
		{
			"inputs": [
				{
					"internalType": "address",
					"name": "to",
					"type": "address"
				},
				{
					"internalType": "uint256",
					"name": "tokenId",
					"type": "uint256"
				}
			],
			"name": "approve",
			"outputs": [],
			"stateMutability": "payable",
			"type": "function"
		},
		{
			"inputs": [
				{
					"internalType": "address",
					"name": "owner",
					"type": "address"
				}
			],
			"name": "balanceOf",
			"outputs": [
				{
					"internalType": "uint256",
					"name": "",
					"type": "uint256"
				}
			],
			"stateMutability": "view",
			"type": "function"
		},
		{
			"inputs": [
				{
					"internalType": "uint256",
					"name": "_tokenId",
					"type": "uint256"
				}
			],
			"name": "burn",
			"outputs": [],
			"stateMutability": "nonpayable",
			"type": "function"
		},
		{
			"inputs": [
				{
					"internalType": "address",
					"name": "_to",
					"type": "address"
				},
				{
					"internalType": "uint48",
					"name": "_numberOfTokens",
					"type": "uint48"
				}
			],
			"name": "devMint",
			"outputs": [],
			"stateMutability": "nonpayable",
			"type": "function"
		},
		{
			"inputs": [
				{
					"internalType": "uint256",
					"name": "tokenId",
					"type": "uint256"
				}
			],
			"name": "getApproved",
			"outputs": [
				{
					"internalType": "address",
					"name": "",
					"type": "address"
				}
			],
			"stateMutability": "view",
			"type": "function"
		},
		{
			"inputs": [],
			"name": "getApprovedStartTime",
			"outputs": [
				{
					"internalType": "uint256",
					"name": "",
					"type": "uint256"
				}
			],
			"stateMutability": "view",
			"type": "function"
		},
		{
			"inputs": [],
			"name": "getSigner",
			"outputs": [
				{
					"internalType": "address",
					"name": "",
					"type": "address"
				}
			],
			"stateMutability": "view",
			"type": "function"
		},
		{
			"inputs": [],
			"name": "getTime",
			"outputs": [
				{
					"internalType": "uint256",
					"name": "",
					"type": "uint256"
				}
			],
			"stateMutability": "view",
			"type": "function"
		},
		{
			"inputs": [
				{
					"internalType": "address",
					"name": "owner",
					"type": "address"
				},
				{
					"internalType": "address",
					"name": "operator",
					"type": "address"
				}
			],
			"name": "isApprovedForAll",
			"outputs": [
				{
					"internalType": "bool",
					"name": "",
					"type": "bool"
				}
			],
			"stateMutability": "view",
			"type": "function"
		},
		{
			"inputs": [],
			"name": "name",
			"outputs": [
				{
					"internalType": "string",
					"name": "",
					"type": "string"
				}
			],
			"stateMutability": "view",
			"type": "function"
		},
		{
			"inputs": [
				{
					"internalType": "address",
					"name": "owner",
					"type": "address"
				}
			],
			"name": "numberMinted",
			"outputs": [
				{
					"internalType": "uint256",
					"name": "",
					"type": "uint256"
				}
			],
			"stateMutability": "view",
			"type": "function"
		},
		{
			"inputs": [
				{
					"internalType": "address",
					"name": "owner",
					"type": "address"
				}
			],
			"name": "numberMintedFree",
			"outputs": [
				{
					"internalType": "uint64",
					"name": "",
					"type": "uint64"
				}
			],
			"stateMutability": "view",
			"type": "function"
		},
		{
			"inputs": [
				{
					"internalType": "address",
					"name": "owner",
					"type": "address"
				}
			],
			"name": "numberMintedPublic",
			"outputs": [
				{
					"internalType": "uint64",
					"name": "",
					"type": "uint64"
				}
			],
			"stateMutability": "view",
			"type": "function"
		},
		{
			"inputs": [
				{
					"internalType": "address",
					"name": "owner",
					"type": "address"
				}
			],
			"name": "numberMintedWhiteList",
			"outputs": [
				{
					"internalType": "uint64",
					"name": "",
					"type": "uint64"
				}
			],
			"stateMutability": "view",
			"type": "function"
		},
		{
			"inputs": [],
			"name": "owner",
			"outputs": [
				{
					"internalType": "address",
					"name": "",
					"type": "address"
				}
			],
			"stateMutability": "view",
			"type": "function"
		},
		{
			"inputs": [
				{
					"internalType": "uint256",
					"name": "tokenId",
					"type": "uint256"
				}
			],
			"name": "ownerOf",
			"outputs": [
				{
					"internalType": "address",
					"name": "",
					"type": "address"
				}
			],
			"stateMutability": "view",
			"type": "function"
		},
		{
			"inputs": [
				{
					"internalType": "uint48",
					"name": "_mintAmount",
					"type": "uint48"
				}
			],
			"name": "publicMint",
			"outputs": [],
			"stateMutability": "payable",
			"type": "function"
		},
		{
			"inputs": [],
			"name": "renounceOwnership",
			"outputs": [],
			"stateMutability": "nonpayable",
			"type": "function"
		},
		{
			"inputs": [
				{
					"internalType": "address",
					"name": "from",
					"type": "address"
				},
				{
					"internalType": "address",
					"name": "to",
					"type": "address"
				},
				{
					"internalType": "uint256",
					"name": "tokenId",
					"type": "uint256"
				}
			],
			"name": "safeTransferFrom",
			"outputs": [],
			"stateMutability": "payable",
			"type": "function"
		},
		{
			"inputs": [
				{
					"internalType": "address",
					"name": "from",
					"type": "address"
				},
				{
					"internalType": "address",
					"name": "to",
					"type": "address"
				},
				{
					"internalType": "uint256",
					"name": "tokenId",
					"type": "uint256"
				},
				{
					"internalType": "bytes",
					"name": "_data",
					"type": "bytes"
				}
			],
			"name": "safeTransferFrom",
			"outputs": [],
			"stateMutability": "payable",
			"type": "function"
		},
		{
			"inputs": [
				{
					"internalType": "address",
					"name": "_address",
					"type": "address"
				}
			],
			"name": "setAllowListAddress",
			"outputs": [],
			"stateMutability": "nonpayable",
			"type": "function"
		},
		{
			"inputs": [
				{
					"internalType": "address",
					"name": "operator",
					"type": "address"
				},
				{
					"internalType": "bool",
					"name": "approved",
					"type": "bool"
				}
			],
			"name": "setApprovalForAll",
			"outputs": [],
			"stateMutability": "nonpayable",
			"type": "function"
		},
		{
			"inputs": [
				{
					"internalType": "uint256",
					"name": "_time",
					"type": "uint256"
				}
			],
			"name": "setApprovalTime",
			"outputs": [],
			"stateMutability": "nonpayable",
			"type": "function"
		},
		{
			"inputs": [
				{
					"internalType": "uint256",
					"name": "_mintPrice",
					"type": "uint256"
				}
			],
			"name": "setPublicMintPrice",
			"outputs": [],
			"stateMutability": "nonpayable",
			"type": "function"
		},
		{
			"inputs": [
				{
					"internalType": "address",
					"name": "_signer",
					"type": "address"
				}
			],
			"name": "setSigner",
			"outputs": [],
			"stateMutability": "nonpayable",
			"type": "function"
		},
		{
			"inputs": [
				{
					"internalType": "string",
					"name": "_uri",
					"type": "string"
				}
			],
			"name": "setURI",
			"outputs": [],
			"stateMutability": "nonpayable",
			"type": "function"
		},
		{
			"inputs": [
				{
					"internalType": "uint256",
					"name": "_mintPrice",
					"type": "uint256"
				}
			],
			"name": "setWlMintPrice",
			"outputs": [],
			"stateMutability": "nonpayable",
			"type": "function"
		},
		{
			"inputs": [],
			"name": "signers",
			"outputs": [
				{
					"internalType": "address",
					"name": "",
					"type": "address"
				}
			],
			"stateMutability": "view",
			"type": "function"
		},
		{
			"inputs": [
				{
					"internalType": "bytes4",
					"name": "interfaceId",
					"type": "bytes4"
				}
			],
			"name": "supportsInterface",
			"outputs": [
				{
					"internalType": "bool",
					"name": "",
					"type": "bool"
				}
			],
			"stateMutability": "view",
			"type": "function"
		},
		{
			"inputs": [],
			"name": "symbol",
			"outputs": [
				{
					"internalType": "string",
					"name": "",
					"type": "string"
				}
			],
			"stateMutability": "view",
			"type": "function"
		},
		{
			"inputs": [
				{
					"internalType": "uint256",
					"name": "tokenId",
					"type": "uint256"
				}
			],
			"name": "tokenURI",
			"outputs": [
				{
					"internalType": "string",
					"name": "",
					"type": "string"
				}
			],
			"stateMutability": "view",
			"type": "function"
		},
		{
			"inputs": [],
			"name": "totalSupply",
			"outputs": [
				{
					"internalType": "uint256",
					"name": "",
					"type": "uint256"
				}
			],
			"stateMutability": "view",
			"type": "function"
		},
		{
			"inputs": [
				{
					"internalType": "address",
					"name": "from",
					"type": "address"
				},
				{
					"internalType": "address",
					"name": "to",
					"type": "address"
				},
				{
					"internalType": "uint256",
					"name": "tokenId",
					"type": "uint256"
				}
			],
			"name": "transferFrom",
			"outputs": [],
			"stateMutability": "payable",
			"type": "function"
		},
		{
			"inputs": [
				{
					"internalType": "address",
					"name": "newOwner",
					"type": "address"
				}
			],
			"name": "transferOwnership",
			"outputs": [],
			"stateMutability": "nonpayable",
			"type": "function"
		},
		{
			"inputs": [
				{
					"internalType": "uint48",
					"name": "_mintAmount",
					"type": "uint48"
				},
				{
					"internalType": "bytes",
					"name": "signature",
					"type": "bytes"
				}
			],
			"name": "whitelistMint",
			"outputs": [],
			"stateMutability": "payable",
			"type": "function"
		},
		{
			"inputs": [
				{
					"internalType": "uint256",
					"name": "_amount",
					"type": "uint256"
				},
				{
					"internalType": "address",
					"name": "_to",
					"type": "address"
				}
			],
			"name": "withdraw",
			"outputs": [],
			"stateMutability": "nonpayable",
			"type": "function"
		}
	]
}