{
	"data": {
		"bytecode": {
			"linkReferences": {},
			"object": "60806040526000805567016345785d8a0000600a5567011c37937e080000600b55600c805465ffffffffffff19908116909155600e80549091166504020a0108031790553480156200005057600080fd5b5060408051808201825260088082526715195cdd109d5b1b60c21b6020808401829052845180860190955291845290830152906003620000918382620001b0565b506004620000a08282620001b0565b5050600060015550620000b333620000b9565b6200027c565b600980546001600160a01b038381166001600160a01b0319831681179093556040519116919082907f8be0079c531659141344cd1fd0a4f28419497f9722a3daafe3b4186f6b6457e090600090a35050565b634e487b7160e01b600052604160045260246000fd5b600181811c908216806200013657607f821691505b6020821081036200015757634e487b7160e01b600052602260045260246000fd5b50919050565b601f821115620001ab57600081815260208120601f850160051c81016020861015620001865750805b601f850160051c820191505b81811015620001a75782815560010162000192565b5050505b505050565b81516001600160401b03811115620001cc57620001cc6200010b565b620001e481620001dd845462000121565b846200015d565b602080601f8311600181146200021c5760008415620002035750858301515b600019600386901b1c1916600185901b178555620001a7565b600085815260208120601f198616915b828110156200024d578886015182559484019460019091019084016200022c565b50858210156200026c5787850151600019600388901b60f8161c191681555b5050505050600190811b01905550565b613342806200028c6000396000f3fe6080604052600436106103335760003560e01c8063634c2b6d116101b0578063ad570dd5116100ec578063d2e21b1311610095578063e1c2caa91161006f578063e1c2caa9146108f8578063e985e9c514610918578063f0ae31491461096e578063f2fde38b1461098e57600080fd5b8063d2e21b13146108a3578063dc33e681146108c3578063e1911d70146108e357600080fd5b8063becd61d8116100c6578063becd61d81461084f578063c50497ae14610864578063c87b56dd1461088357600080fd5b8063ad570dd514610813578063b079fe7414610829578063b88d4fde1461083c57600080fd5b80637e06f64e116101595780638da5cb5b116101335780638da5cb5b1461079357806395d89b41146107be578063a22cb465146107d3578063aa059db3146107f357600080fd5b80637e06f64e146107375780638342083a146107595780638535923f1461077357600080fd5b806370a082311161018a57806370a08231146106e2578063715018a6146107025780637cb647591461071757600080fd5b8063634c2b6d146106905780636352211e146106af5780636b80ba18146106cf57600080fd5b80631d5a7e961161027f57806342966c6811610228578063557ed1ba11610202578063557ed1ba146106255780635af744ec1461063a5780635d82cf6e1461065a578063611f3f101461067a57600080fd5b806342966c68146105b55780634312dc7c146105d5578063463ccb55146105f557600080fd5b806332cb6b0c1161025957806332cb6b0c146105665780633d2722941461058257806342842e0e146105a257600080fd5b80631d5a7e961461051e57806322fa3dfa1461053357806323b872dd1461055357600080fd5b8063081812fc116102e157806318160ddd116102bb57806318160ddd146104a157806318f0c43e146104c45780631a6eedb4146104e557600080fd5b8063081812fc14610433578063095ea7b314610478578063144a79e31461048b57600080fd5b806302ddb65b1161031257806302ddb65b146103c457806302fe5305146103f157806306fdde031461041157600080fd5b8062f714ce1461033857806301ffc9a71461035a57806302c43a111461038f575b600080fd5b34801561034457600080fd5b50610358610353366004612bde565b6109ae565b005b34801561036657600080fd5b5061037a610375366004612c38565b610ad5565b60405190151581526020015b60405180910390f35b34801561039b57600080fd5b50600e546103b29065010000000000900460ff1681565b60405160ff9091168152602001610386565b3480156103d057600080fd5b506103da6107d081565b60405165ffffffffffff9091168152602001610386565b3480156103fd57600080fd5b5061035861040c366004612c55565b610bba565b34801561041d57600080fd5b50610426610c14565b6040516103869190612d17565b34801561043f57600080fd5b5061045361044e366004612d2a565b610ca6565b60405173ffffffffffffffffffffffffffffffffffffffff9091168152602001610386565b610358610486366004612d43565b610d10565b34801561049757600080fd5b506103da610fff81565b3480156104ad57600080fd5b50600254600154035b604051908152602001610386565b3480156104d057600080fd5b50600e546103b2906301000000900460ff1681565b3480156104f157600080fd5b50610505610500366004612d6d565b610e61565b60405167ffffffffffffffff9091168152602001610386565b34801561052a57600080fd5b506000546104b6565b34801561053f57600080fd5b5061050561054e366004612d6d565b610ea9565b610358610561366004612d88565b610ede565b34801561057257600080fd5b506104b667016345785d89ffff81565b34801561058e57600080fd5b5061035861059d366004612d2a565b611184565b6103586105b0366004612d88565b611200565b3480156105c157600080fd5b506103586105d0366004612d2a565b611220565b3480156105e157600080fd5b506103586105f0366004612dda565b6112a1565b34801561060157600080fd5b5061037a610610366004612d6d565b600d6020526000908152604090205460ff1681565b34801561063157600080fd5b506104b66113ac565b34801561064657600080fd5b50600e546103b29062010000900460ff1681565b34801561066657600080fd5b50610358610675366004612d2a565b6113b5565b34801561068657600080fd5b506104b6600a5481565b34801561069c57600080fd5b50600e546103b290610100900460ff1681565b3480156106bb57600080fd5b506104536106ca366004612d2a565b611431565b6103586106dd366004612e04565b61143c565b3480156106ee57600080fd5b506104b66106fd366004612d6d565b61182f565b34801561070e57600080fd5b506103586118b1565b34801561072357600080fd5b50610358610732366004612d2a565b6118c5565b34801561074357600080fd5b50600e546103b290640100000000900460ff1681565b34801561076557600080fd5b50600e546103b29060ff1681565b34801561077f57600080fd5b5061050561078e366004612d6d565b611900565b34801561079f57600080fd5b5060095473ffffffffffffffffffffffffffffffffffffffff16610453565b3480156107ca57600080fd5b50610426611935565b3480156107df57600080fd5b506103586107ee366004612e88565b611944565b3480156107ff57600080fd5b5061035861080e366004612ec4565b611a17565b34801561081f57600080fd5b506104b6600b5481565b610358610837366004612ee7565b611ad5565b61035861084a366004612f31565b611dd6565b34801561085b57600080fd5b506103da600f81565b34801561087057600080fd5b50600c546103da9065ffffffffffff1681565b34801561088f57600080fd5b5061042661089e366004612d2a565b611e40565b3480156108af57600080fd5b506103586108be366004612d2a565b611edd565b3480156108cf57600080fd5b506104b66108de366004612d6d565b611f1c565b3480156108ef57600080fd5b50610426611f54565b34801561090457600080fd5b50610358610913366004612e04565b611fe2565b34801561092457600080fd5b5061037a61093336600461300d565b73ffffffffffffffffffffffffffffffffffffffff918216600090815260086020908152604080832093909416825291909152205460ff1690565b34801561097a57600080fd5b50610358610989366004612ec4565b6122c4565b34801561099a57600080fd5b506103586109a9366004612d6d565b612319565b6109b66123d0565b47828110156109f1576040517f9abc749100000000000000000000000000000000000000000000000000000000815260040160405180910390fd5b60008273ffffffffffffffffffffffffffffffffffffffff168460405160006040518083038185875af1925050503d8060008114610a4b576040519150601f19603f3d011682016040523d82523d6000602084013e610a50565b606091505b505090508273ffffffffffffffffffffffffffffffffffffffff16847f8353ffcac0876ad14e226d9783c04540bfebf13871e868157d2a391cad98e91860405160405180910390a380610acf576040517f27fcd9d100000000000000000000000000000000000000000000000000000000815260040160405180910390fd5b50505050565b60007f01ffc9a7000000000000000000000000000000000000000000000000000000007fffffffff0000000000000000000000000000000000000000000000000000000083161480610b6857507f80ac58cd000000000000000000000000000000000000000000000000000000007fffffffff000000000000000000000000000000000000000000000000000000008316145b80610bb457507f5b5e139f000000000000000000000000000000000000000000000000000000007fffffffff000000000000000000000000000000000000000000000000000000008316145b92915050565b610bc26123d0565b600f610bcf8284836130d0565b508181604051610be0929190613191565b604051908190038120907f562bf0237fa5139edc73ec903039c3a552e19ae62cc8292da62afeea43024b0a90600090a25050565b606060038054610c2390613037565b80601f0160208091040260200160405190810160405280929190818152602001828054610c4f90613037565b8015610c9c5780601f10610c7157610100808354040283529160200191610c9c565b820191906000526020600020905b815481529060010190602001808311610c7f57829003601f168201915b5050505050905090565b6000610cb182612451565b610ce7576040517fcf4700e400000000000000000000000000000000000000000000000000000000815260040160405180910390fd5b5060009081526007602052604090205473ffffffffffffffffffffffffffffffffffffffff1690565b600054421015610d4c576040517fcfe89eac00000000000000000000000000000000000000000000000000000000815260040160405180910390fd5b6000610d5782611431565b90503373ffffffffffffffffffffffffffffffffffffffff821614610de05773ffffffffffffffffffffffffffffffffffffffff8116600090815260086020908152604080832033845290915290205460ff16610de0576040517fcfb3b94200000000000000000000000000000000000000000000000000000000815260040160405180910390fd5b60008281526007602052604080822080547fffffffffffffffffffffffff00000000000000000000000000000000000000001673ffffffffffffffffffffffffffffffffffffffff87811691821790925591518593918516917f8c5be1e5ebec7d5bd14f71427d1e84f3dd0314c0f7b2291e5b200ac8c7c3b92591a4505050565b6000600f6008610e968473ffffffffffffffffffffffffffffffffffffffff1660009081526006602052604090205460c01c90565b67ffffffffffffffff16901c1692915050565b6000600f6004610e968473ffffffffffffffffffffffffffffffffffffffff1660009081526006602052604090205460c01c90565b6000610ee982612492565b90508373ffffffffffffffffffffffffffffffffffffffff168173ffffffffffffffffffffffffffffffffffffffff1614610f50576040517fa114810000000000000000000000000000000000000000000000000000000000815260040160405180910390fd5b60008281526007602052604090208054610f898187335b73ffffffffffffffffffffffffffffffffffffffff9081169116811491141790565b610ff75773ffffffffffffffffffffffffffffffffffffffff8616600090815260086020908152604080832033845290915290205460ff16610ff7576040517f59c896be00000000000000000000000000000000000000000000000000000000815260040160405180910390fd5b73ffffffffffffffffffffffffffffffffffffffff8516611044576040517fea553b3400000000000000000000000000000000000000000000000000000000815260040160405180910390fd5b801561104f57600082555b73ffffffffffffffffffffffffffffffffffffffff8681166000908152600660205260408082208054600019019055918716808252919020805460010190554260a01b177c0200000000000000000000000000000000000000000000000000000000176000858152600560205260408120919091557c0200000000000000000000000000000000000000000000000000000000841690036111205760018401600081815260056020526040812054900361111e57600154811461111e5760008181526005602052604090208490555b505b838573ffffffffffffffffffffffffffffffffffffffff168773ffffffffffffffffffffffffffffffffffffffff167fddf252ad1be2c89b69c2b068fc378daa952ba7f163c4a11628f55a4df523b3ef60405160405180910390a45b505050505050565b61118c6123d0565b662386f26fc100008110156111cd576040517f9713e00b00000000000000000000000000000000000000000000000000000000815260040160405180910390fd5b600b81905560405181907f7d4366e70f76342b93de4f6d6a7db9ce74705441e46d25d0aea894b430d28b3990600090a250565b61121b83838360405180602001604052806000815250611dd6565b505050565b6112286123d0565b611232338261252b565b611268576040517fb5b5504400000000000000000000000000000000000000000000000000000000815260040160405180910390fd5b6112738160016125eb565b60405181907fb90306ad06b2a6ff86ddc9327db583062895ef6540e62dc50add009db5b356eb90600090a250565b6112a96123d0565b600e546301000000900460ff1665ffffffffffff821611156112f7576040517f2370216f00000000000000000000000000000000000000000000000000000000815260040160405180910390fd5b600c5467016345785d89ffff9061131790839065ffffffffffff166131d0565b65ffffffffffff161115611357576040517f2370216f00000000000000000000000000000000000000000000000000000000815260040160405180910390fd5b611369828265ffffffffffff166127c5565b600c805482919060009061138690849065ffffffffffff166131d0565b92506101000a81548165ffffffffffff021916908365ffffffffffff1602179055505050565b60008042610bb4565b6113bd6123d0565b662386f26fc100008110156113fe576040517f9713e00b00000000000000000000000000000000000000000000000000000000815260040160405180910390fd5b600a81905560405181907fda25869ecc04491e922bb8c554c6ef8967b063207ae489515c67ace4e304b32790600090a250565b6000610bb482612492565b323314611475576040517f7df1f81700000000000000000000000000000000000000000000000000000000815260040160405180910390fd5b600f601082901c811690601883901c16610fff831660008190036114c5576040517fccfad01800000000000000000000000000000000000000000000000000000000815260040160405180910390fd5b600c5467016345785d89ffff906114e590839065ffffffffffff166131d0565b65ffffffffffff161115611525576040517f2370216f00000000000000000000000000000000000000000000000000000000815260040160405180910390fd5b604080517fffffffffffffffffffffffffffffffffffffffff0000000000000000000000003360601b1660208201527fffffffffffff000000000000000000000000000000000000000000000000000060d086811b8216603484015285901b16603a820152600091016040516020818303038152906040528051906020012090506115b4878760105484612903565b6115ea576040517fb05e92fa00000000000000000000000000000000000000000000000000000000815260040160405180910390fd5b600e54610100900460ff1665ffffffffffff841614611635576040517f28132a6200000000000000000000000000000000000000000000000000000000815260040160405180910390fd5b600e54610100810460ff9081166401000000009092041614611683576040517f28132a6200000000000000000000000000000000000000000000000000000000815260040160405180910390fd5b3360009081526006602052604081205460c01c9050600481901c600f1665ffffffffffff868116906116b7908616836131f6565b67ffffffffffffffff1611156116f9576040517f26f890c400000000000000000000000000000000000000000000000000000000815260040160405180910390fd5b600b5461170e9065ffffffffffff8616613217565b341015611747576040517f356680b700000000000000000000000000000000000000000000000000000000815260040160405180910390fd5b611759338565ffffffffffff166127c5565b600061177165fffffffffff0600487901b16846131f6565b90508765ffffffffffff168565ffffffffffff167fd5a06ab27fda8c8f87b18fc92d660297a64163493811b3877b0b77232ebcf01f60405160405180910390a3336000908152600660205260409020805477ffffffffffffffffffffffffffffffffffffffffffffffff1660c083901b179055600c805486919060009061180190849065ffffffffffff166131d0565b92506101000a81548165ffffffffffff021916908365ffffffffffff16021790555050505050505050505050565b600073ffffffffffffffffffffffffffffffffffffffff821661187e576040517f8f4eb60400000000000000000000000000000000000000000000000000000000815260040160405180910390fd5b5073ffffffffffffffffffffffffffffffffffffffff1660009081526006602052604090205467ffffffffffffffff1690565b6118b96123d0565b6118c3600061291b565b565b6118cd6123d0565b601081905560405181907f914960aef5e033ce5cae8a7992d4b7a6f0f9741227b66acb67c605b7019f8a4690600090a250565b6000600f600c610e968473ffffffffffffffffffffffffffffffffffffffff1660009081526006602052604090205460c01c90565b606060048054610c2390613037565b600054421015611980576040517fcfe89eac00000000000000000000000000000000000000000000000000000000815260040160405180910390fd5b33600081815260086020908152604080832073ffffffffffffffffffffffffffffffffffffffff87168085529083529281902080547fffffffffffffffffffffffffffffffffffffffffffffffffffffffffffffff001686151590811790915590519081529192917f17307eab39ab6107e8899845ad3d59bd9653f200f220920489ca2b5937696c31910160405180910390a35050565b611a1f6123d0565b600e54610100900460ff9081168183161b908116600003611a6c576040517fc665121c00000000000000000000000000000000000000000000000000000000815260040160405180910390fd5b600e80547fffffffffffffffffffffffffffffffffffffffffffffffffffffffffffff00ff1661010060ff84811682029290921792839055604051920416907f147cb9ee5ba689a286d380cacd4c839f90b74c7723f5c7556c73d121fe4318d390600090a25050565b323314611b0e576040517f7df1f81700000000000000000000000000000000000000000000000000000000815260040160405180910390fd5b600c54819067016345785d89ffff90611b3090839065ffffffffffff166131d0565b65ffffffffffff161115611ba5576040517f08c379a000000000000000000000000000000000000000000000000000000000815260206004820152601460248201527f4d617820737570706c792065786365656465642100000000000000000000000060448201526064015b60405180910390fd5b600e54610100810460ff908116620100009092041614611bf1576040517f28132a6200000000000000000000000000000000000000000000000000000000815260040160405180910390fd5b8165ffffffffffff16600003611c33576040517fccfad01800000000000000000000000000000000000000000000000000000000815260040160405180910390fd5b3360009081526006602052604081205460c01c600e54909150600c82901c600f169060ff16611c6a65ffffffffffff8616836131f6565b67ffffffffffffffff161115611cac576040517f26f890c400000000000000000000000000000000000000000000000000000000815260040160405180910390fd5b600a54611cc19065ffffffffffff8616613217565b341015611cfa576040517f356680b700000000000000000000000000000000000000000000000000000000815260040160405180910390fd5b611d0c338565ffffffffffff166127c5565b6000611d2465fffffffff000600c87901b16846131f6565b905060008565ffffffffffff167fd5a06ab27fda8c8f87b18fc92d660297a64163493811b3877b0b77232ebcf01f60405160405180910390a3336000908152600660205260409020805477ffffffffffffffffffffffffffffffffffffffffffffffff1660c083901b179055600c8054869190600090611dad90849065ffffffffffff166131d0565b92506101000a81548165ffffffffffff021916908365ffffffffffff1602179055505050505050565b611de1848484610ede565b73ffffffffffffffffffffffffffffffffffffffff83163b15610acf57611e0a84848484612992565b610acf576040517fd1a57ed600000000000000000000000000000000000000000000000000000000815260040160405180910390fd5b6060611e4b82612451565b611e81576040517fa14c4b5000000000000000000000000000000000000000000000000000000000815260040160405180910390fd5b6000611e8b612aea565b90508051600003611eab5760405180602001604052806000815250611ed6565b80611eb584612af9565b604051602001611ec692919061322e565b6040516020818303038152906040525b9392505050565b611ee56123d0565b611eee81600055565b60405181907f01533478951372138a2194c99334f1967a30665da490f70902df4770beee356790600090a250565b73ffffffffffffffffffffffffffffffffffffffff81166000908152600660205260408082205467ffffffffffffffff911c16610bb4565b600f8054611f6190613037565b80601f0160208091040260200160405190810160405280929190818152602001828054611f8d90613037565b8015611fda5780601f10611faf57610100808354040283529160200191611fda565b820191906000526020600020905b815481529060010190602001808311611fbd57829003601f168201915b505050505081565b32331461201b576040517f7df1f81700000000000000000000000000000000000000000000000000000000815260040160405180910390fd5b600f601082901c811690601883901c16610fff8316600081900361206b576040517fccfad01800000000000000000000000000000000000000000000000000000000815260040160405180910390fd5b600c546107d09061208590839065ffffffffffff166131d0565b65ffffffffffff1611156120c5576040517f7870189600000000000000000000000000000000000000000000000000000000815260040160405180910390fd5b604080517fffffffffffffffffffffffffffffffffffffffff0000000000000000000000003360601b1660208201527fffffffffffff000000000000000000000000000000000000000000000000000060d086811b8216603484015285901b16603a82015260009101604051602081830303815290604052805190602001209050612154878760105484612903565b61218a576040517fb05e92fa00000000000000000000000000000000000000000000000000000000815260040160405180910390fd5b600e54610100900460ff1665ffffffffffff8416146121d5576040517f28132a6200000000000000000000000000000000000000000000000000000000815260040160405180910390fd5b600e54610100810460ff908116650100000000009092041614612224576040517f28132a6200000000000000000000000000000000000000000000000000000000815260040160405180910390fd5b3360009081526006602052604081205460c01c9050600881901c600f1665ffffffffffff86811690612258908616836131f6565b67ffffffffffffffff16111561229a576040517f26f890c400000000000000000000000000000000000000000000000000000000815260040160405180910390fd5b6122ac338565ffffffffffff166127c5565b600061177165ffffffffff00600887901b16846131f6565b6122cc6123d0565b600e54610100900460ff9081168183161c908116600003611a6c576040517fc665121c00000000000000000000000000000000000000000000000000000000815260040160405180910390fd5b6123216123d0565b73ffffffffffffffffffffffffffffffffffffffff81166123c4576040517f08c379a000000000000000000000000000000000000000000000000000000000815260206004820152602660248201527f4f776e61626c653a206e6577206f776e657220697320746865207a65726f206160448201527f64647265737300000000000000000000000000000000000000000000000000006064820152608401611b9c565b6123cd8161291b565b50565b60095473ffffffffffffffffffffffffffffffffffffffff1633146118c3576040517f08c379a000000000000000000000000000000000000000000000000000000000815260206004820181905260248201527f4f776e61626c653a2063616c6c6572206973206e6f7420746865206f776e65726044820152606401611b9c565b600060015482108015610bb45750506000908152600560205260409020547c0100000000000000000000000000000000000000000000000000000000161590565b6000816001548110156124f957600081815260056020526040812054907c0100000000000000000000000000000000000000000000000000000000821690036124f7575b80600003611ed65750600019016000818152600560205260409020546124d6565b505b6040517fdf2d9b4200000000000000000000000000000000000000000000000000000000815260040160405180910390fd5b60008061253783611431565b90508073ffffffffffffffffffffffffffffffffffffffff168473ffffffffffffffffffffffffffffffffffffffff1614806125a5575073ffffffffffffffffffffffffffffffffffffffff80821660009081526008602090815260408083209388168352929052205460ff165b806125e357508373ffffffffffffffffffffffffffffffffffffffff166125cb84610ca6565b73ffffffffffffffffffffffffffffffffffffffff16145b949350505050565b60006125f683612492565b90508060008061261486600090815260076020526040902080549091565b91509150841561269757612629818433610f67565b6126975773ffffffffffffffffffffffffffffffffffffffff8316600090815260086020908152604080832033845290915290205460ff16612697576040517f59c896be00000000000000000000000000000000000000000000000000000000815260040160405180910390fd5b80156126a257600082555b73ffffffffffffffffffffffffffffffffffffffff8316600081815260066020526040902080546fffffffffffffffffffffffffffffffff0190554260a01b177c0300000000000000000000000000000000000000000000000000000000176000878152600560205260408120919091557c02000000000000000000000000000000000000000000000000000000008516900361276f5760018601600081815260056020526040812054900361276d57600154811461276d5760008181526005602052604090208590555b505b604051869060009073ffffffffffffffffffffffffffffffffffffffff8616907fddf252ad1be2c89b69c2b068fc378daa952ba7f163c4a11628f55a4df523b3ef908390a4505060028054600101905550505050565b6001546000829003612803576040517fb562e8dd00000000000000000000000000000000000000000000000000000000815260040160405180910390fd5b73ffffffffffffffffffffffffffffffffffffffff831660008181526006602090815260408083208054680100000000000000018802019055848352600590915281206001851460e11b4260a01b178317905582840190839083907fddf252ad1be2c89b69c2b068fc378daa952ba7f163c4a11628f55a4df523b3ef8180a4600183015b8181146128bf57808360007fddf252ad1be2c89b69c2b068fc378daa952ba7f163c4a11628f55a4df523b3ef600080a4600101612887565b50816000036128fa576040517f2e07630000000000000000000000000000000000000000000000000000000000815260040160405180910390fd5b60015550505050565b600082612911868685612b3d565b1495945050505050565b6009805473ffffffffffffffffffffffffffffffffffffffff8381167fffffffffffffffffffffffff0000000000000000000000000000000000000000831681179093556040519116919082907f8be0079c531659141344cd1fd0a4f28419497f9722a3daafe3b4186f6b6457e090600090a35050565b6040517f150b7a0200000000000000000000000000000000000000000000000000000000815260009073ffffffffffffffffffffffffffffffffffffffff85169063150b7a02906129ed90339089908890889060040161325d565b6020604051808303816000875af1925050508015612a28575060408051601f3d908101601f19168201909252612a25918101906132a6565b60015b612a9f573d808015612a56576040519150601f19603f3d011682016040523d82523d6000602084013e612a5b565b606091505b508051600003612a97576040517fd1a57ed600000000000000000000000000000000000000000000000000000000815260040160405180910390fd5b805181602001fd5b7fffffffff00000000000000000000000000000000000000000000000000000000167f150b7a02000000000000000000000000000000000000000000000000000000001490506125e3565b6060600f8054610c2390613037565b606060a06040510180604052602081039150506000815280825b600183039250600a81066030018353600a900480612b135750819003601f19909101908152919050565b600081815b84811015612b8057612b6c82878784818110612b6057612b606132c3565b90506020020135612b89565b915080612b78816132f2565b915050612b42565b50949350505050565b6000818310612ba5576000828152602084905260409020611ed6565b5060009182526020526040902090565b803573ffffffffffffffffffffffffffffffffffffffff81168114612bd957600080fd5b919050565b60008060408385031215612bf157600080fd5b82359150612c0160208401612bb5565b90509250929050565b7fffffffff00000000000000000000000000000000000000000000000000000000811681146123cd57600080fd5b600060208284031215612c4a57600080fd5b8135611ed681612c0a565b60008060208385031215612c6857600080fd5b823567ffffffffffffffff80821115612c8057600080fd5b818501915085601f830112612c9457600080fd5b813581811115612ca357600080fd5b866020828501011115612cb557600080fd5b60209290920196919550909350505050565b60005b83811015612ce2578181015183820152602001612cca565b50506000910152565b60008151808452612d03816020860160208601612cc7565b601f01601f19169290920160200192915050565b602081526000611ed66020830184612ceb565b600060208284031215612d3c57600080fd5b5035919050565b60008060408385031215612d5657600080fd5b612d5f83612bb5565b946020939093013593505050565b600060208284031215612d7f57600080fd5b611ed682612bb5565b600080600060608486031215612d9d57600080fd5b612da684612bb5565b9250612db460208501612bb5565b9150604084013590509250925092565b803565ffffffffffff81168114612bd957600080fd5b60008060408385031215612ded57600080fd5b612df683612bb5565b9150612c0160208401612dc4565b600080600060408486031215612e1957600080fd5b833567ffffffffffffffff80821115612e3157600080fd5b818601915086601f830112612e4557600080fd5b813581811115612e5457600080fd5b8760208260051b8501011115612e6957600080fd5b602092830195509350612e7f9186019050612dc4565b90509250925092565b60008060408385031215612e9b57600080fd5b612ea483612bb5565b915060208301358015158114612eb957600080fd5b809150509250929050565b600060208284031215612ed657600080fd5b813560ff81168114611ed657600080fd5b600060208284031215612ef957600080fd5b611ed682612dc4565b7f4e487b7100000000000000000000000000000000000000000000000000000000600052604160045260246000fd5b60008060008060808587031215612f4757600080fd5b612f5085612bb5565b9350612f5e60208601612bb5565b925060408501359150606085013567ffffffffffffffff80821115612f8257600080fd5b818701915087601f830112612f9657600080fd5b813581811115612fa857612fa8612f02565b604051601f8201601f19908116603f01168101908382118183101715612fd057612fd0612f02565b816040528281528a6020848701011115612fe957600080fd5b82602086016020830137600060208483010152809550505050505092959194509250565b6000806040838503121561302057600080fd5b61302983612bb5565b9150612c0160208401612bb5565b600181811c9082168061304b57607f821691505b602082108103613084577f4e487b7100000000000000000000000000000000000000000000000000000000600052602260045260246000fd5b50919050565b601f82111561121b57600081815260208120601f850160051c810160208610156130b15750805b601f850160051c820191505b8181101561117c578281556001016130bd565b67ffffffffffffffff8311156130e8576130e8612f02565b6130fc836130f68354613037565b8361308a565b6000601f84116001811461313057600085156131185750838201355b600019600387901b1c1916600186901b17835561318a565b600083815260209020601f19861690835b828110156131615786850135825560209485019460019092019101613141565b508682101561317e5760001960f88860031b161c19848701351681555b505060018560011b0183555b5050505050565b8183823760009101908152919050565b7f4e487b7100000000000000000000000000000000000000000000000000000000600052601160045260246000fd5b65ffffffffffff8181168382160190808211156131ef576131ef6131a1565b5092915050565b67ffffffffffffffff8181168382160190808211156131ef576131ef6131a1565b8082028115828204841417610bb457610bb46131a1565b60008351613240818460208801612cc7565b835190830190613254818360208801612cc7565b01949350505050565b600073ffffffffffffffffffffffffffffffffffffffff80871683528086166020840152508360408301526080606083015261329c6080830184612ceb565b9695505050505050565b6000602082840312156132b857600080fd5b8151611ed681612c0a565b7f4e487b7100000000000000000000000000000000000000000000000000000000600052603260045260246000fd5b60006000198203613305576133056131a1565b506001019056fea26469706673582212201a476e108f7f45e9cdc456c005636a3f5d41654550cecd0949e275f8901eabee64736f6c63430008110033",
			"opcodes": "PUSH1 0x80 PUSH1 0x40 MSTORE PUSH1 0x0 DUP1 SSTORE PUSH8 0x16345785D8A0000 PUSH1 0xA SSTORE PUSH8 0x11C37937E080000 PUSH1 0xB SSTORE PUSH1 0xC DUP1 SLOAD PUSH6 0xFFFFFFFFFFFF NOT SWAP1 DUP2 AND SWAP1 SWAP2 SSTORE PUSH1 0xE DUP1 SLOAD SWAP1 SWAP2 AND PUSH6 0x4020A010803 OR SWAP1 SSTORE CALLVALUE DUP1 ISZERO PUSH3 0x50 JUMPI PUSH1 0x0 DUP1 REVERT JUMPDEST POP PUSH1 0x40 DUP1 MLOAD DUP1 DUP3 ADD DUP3 MSTORE PUSH1 0x8 DUP1 DUP3 MSTORE PUSH8 0x15195CDD109D5B1B PUSH1 0xC2 SHL PUSH1 0x20 DUP1 DUP5 ADD DUP3 SWAP1 MSTORE DUP5 MLOAD DUP1 DUP7 ADD SWAP1 SWAP6 MSTORE SWAP2 DUP5 MSTORE SWAP1 DUP4 ADD MSTORE SWAP1 PUSH1 0x3 PUSH3 0x91 DUP4 DUP3 PUSH3 0x1B0 JUMP JUMPDEST POP PUSH1 0x4 PUSH3 0xA0 DUP3 DUP3 PUSH3 0x1B0 JUMP JUMPDEST POP POP PUSH1 0x0 PUSH1 0x1 SSTORE POP PUSH3 0xB3 CALLER PUSH3 0xB9 JUMP JUMPDEST PUSH3 0x27C JUMP JUMPDEST PUSH1 0x9 DUP1 SLOAD PUSH1 0x1 PUSH1 0x1 PUSH1 0xA0 SHL SUB DUP4 DUP2 AND PUSH1 0x1 PUSH1 0x1 PUSH1 0xA0 SHL SUB NOT DUP4 AND DUP2 OR SWAP1 SWAP4 SSTORE PUSH1 0x40 MLOAD SWAP2 AND SWAP2 SWAP1 DUP3 SWAP1 PUSH32 0x8BE0079C531659141344CD1FD0A4F28419497F9722A3DAAFE3B4186F6B6457E0 SWAP1 PUSH1 0x0 SWAP1 LOG3 POP POP JUMP JUMPDEST PUSH4 0x4E487B71 PUSH1 0xE0 SHL PUSH1 0x0 MSTORE PUSH1 0x41 PUSH1 0x4 MSTORE PUSH1 0x24 PUSH1 0x0 REVERT JUMPDEST PUSH1 0x1 DUP2 DUP2 SHR SWAP1 DUP3 AND DUP1 PUSH3 0x136 JUMPI PUSH1 0x7F DUP3 AND SWAP2 POP JUMPDEST PUSH1 0x20 DUP3 LT DUP2 SUB PUSH3 0x157 JUMPI PUSH4 0x4E487B71 PUSH1 0xE0 SHL PUSH1 0x0 MSTORE PUSH1 0x22 PUSH1 0x4 MSTORE PUSH1 0x24 PUSH1 0x0 REVERT JUMPDEST POP SWAP2 SWAP1 POP JUMP JUMPDEST PUSH1 0x1F DUP3 GT ISZERO PUSH3 0x1AB JUMPI PUSH1 0x0 DUP2 DUP2 MSTORE PUSH1 0x20 DUP2 KECCAK256 PUSH1 0x1F DUP6 ADD PUSH1 0x5 SHR DUP2 ADD PUSH1 0x20 DUP7 LT ISZERO PUSH3 0x186 JUMPI POP DUP1 JUMPDEST PUSH1 0x1F DUP6 ADD PUSH1 0x5 SHR DUP3 ADD SWAP2 POP JUMPDEST DUP2 DUP2 LT ISZERO PUSH3 0x1A7 JUMPI DUP3 DUP2 SSTORE PUSH1 0x1 ADD PUSH3 0x192 JUMP JUMPDEST POP POP POP JUMPDEST POP POP POP JUMP JUMPDEST DUP2 MLOAD PUSH1 0x1 PUSH1 0x1 PUSH1 0x40 SHL SUB DUP2 GT ISZERO PUSH3 0x1CC JUMPI PUSH3 0x1CC PUSH3 0x10B JUMP JUMPDEST PUSH3 0x1E4 DUP2 PUSH3 0x1DD DUP5 SLOAD PUSH3 0x121 JUMP JUMPDEST DUP5 PUSH3 0x15D JUMP JUMPDEST PUSH1 0x20 DUP1 PUSH1 0x1F DUP4 GT PUSH1 0x1 DUP2 EQ PUSH3 0x21C JUMPI PUSH1 0x0 DUP5 ISZERO PUSH3 0x203 JUMPI POP DUP6 DUP4 ADD MLOAD JUMPDEST PUSH1 0x0 NOT PUSH1 0x3 DUP7 SWAP1 SHL SHR NOT AND PUSH1 0x1 DUP6 SWAP1 SHL OR DUP6 SSTORE PUSH3 0x1A7 JUMP JUMPDEST PUSH1 0x0 DUP6 DUP2 MSTORE PUSH1 0x20 DUP2 KECCAK256 PUSH1 0x1F NOT DUP7 AND SWAP2 JUMPDEST DUP3 DUP2 LT ISZERO PUSH3 0x24D JUMPI DUP9 DUP7 ADD MLOAD DUP3 SSTORE SWAP5 DUP5 ADD SWAP5 PUSH1 0x1 SWAP1 SWAP2 ADD SWAP1 DUP5 ADD PUSH3 0x22C JUMP JUMPDEST POP DUP6 DUP3 LT ISZERO PUSH3 0x26C JUMPI DUP8 DUP6 ADD MLOAD PUSH1 0x0 NOT PUSH1 0x3 DUP9 SWAP1 SHL PUSH1 0xF8 AND SHR NOT AND DUP2 SSTORE JUMPDEST POP POP POP POP POP PUSH1 0x1 SWAP1 DUP2 SHL ADD SWAP1 SSTORE POP JUMP JUMPDEST PUSH2 0x3342 DUP1 PUSH3 0x28C PUSH1 0x0 CODECOPY PUSH1 0x0 RETURN INVALID PUSH1 0x80 PUSH1 0x40 MSTORE PUSH1 0x4 CALLDATASIZE LT PUSH2 0x333 JUMPI PUSH1 0x0 CALLDATALOAD PUSH1 0xE0 SHR DUP1 PUSH4 0x634C2B6D GT PUSH2 0x1B0 JUMPI DUP1 PUSH4 0xAD570DD5 GT PUSH2 0xEC JUMPI DUP1 PUSH4 0xD2E21B13 GT PUSH2 0x95 JUMPI DUP1 PUSH4 0xE1C2CAA9 GT PUSH2 0x6F JUMPI DUP1 PUSH4 0xE1C2CAA9 EQ PUSH2 0x8F8 JUMPI DUP1 PUSH4 0xE985E9C5 EQ PUSH2 0x918 JUMPI DUP1 PUSH4 0xF0AE3149 EQ PUSH2 0x96E JUMPI DUP1 PUSH4 0xF2FDE38B EQ PUSH2 0x98E JUMPI PUSH1 0x0 DUP1 REVERT JUMPDEST DUP1 PUSH4 0xD2E21B13 EQ PUSH2 0x8A3 JUMPI DUP1 PUSH4 0xDC33E681 EQ PUSH2 0x8C3 JUMPI DUP1 PUSH4 0xE1911D70 EQ PUSH2 0x8E3 JUMPI PUSH1 0x0 DUP1 REVERT JUMPDEST DUP1 PUSH4 0xBECD61D8 GT PUSH2 0xC6 JUMPI DUP1 PUSH4 0xBECD61D8 EQ PUSH2 0x84F JUMPI DUP1 PUSH4 0xC50497AE EQ PUSH2 0x864 JUMPI DUP1 PUSH4 0xC87B56DD EQ PUSH2 0x883 JUMPI PUSH1 0x0 DUP1 REVERT JUMPDEST DUP1 PUSH4 0xAD570DD5 EQ PUSH2 0x813 JUMPI DUP1 PUSH4 0xB079FE74 EQ PUSH2 0x829 JUMPI DUP1 PUSH4 0xB88D4FDE EQ PUSH2 0x83C JUMPI PUSH1 0x0 DUP1 REVERT JUMPDEST DUP1 PUSH4 0x7E06F64E GT PUSH2 0x159 JUMPI DUP1 PUSH4 0x8DA5CB5B GT PUSH2 0x133 JUMPI DUP1 PUSH4 0x8DA5CB5B EQ PUSH2 0x793 JUMPI DUP1 PUSH4 0x95D89B41 EQ PUSH2 0x7BE JUMPI DUP1 PUSH4 0xA22CB465 EQ PUSH2 0x7D3 JUMPI DUP1 PUSH4 0xAA059DB3 EQ PUSH2 0x7F3 JUMPI PUSH1 0x0 DUP1 REVERT JUMPDEST DUP1 PUSH4 0x7E06F64E EQ PUSH2 0x737 JUMPI DUP1 PUSH4 0x8342083A EQ PUSH2 0x759 JUMPI DUP1 PUSH4 0x8535923F EQ PUSH2 0x773 JUMPI PUSH1 0x0 DUP1 REVERT JUMPDEST DUP1 PUSH4 0x70A08231 GT PUSH2 0x18A JUMPI DUP1 PUSH4 0x70A08231 EQ PUSH2 0x6E2 JUMPI DUP1 PUSH4 0x715018A6 EQ PUSH2 0x702 JUMPI DUP1 PUSH4 0x7CB64759 EQ PUSH2 0x717 JUMPI PUSH1 0x0 DUP1 REVERT JUMPDEST DUP1 PUSH4 0x634C2B6D EQ PUSH2 0x690 JUMPI DUP1 PUSH4 0x6352211E EQ PUSH2 0x6AF JUMPI DUP1 PUSH4 0x6B80BA18 EQ PUSH2 0x6CF JUMPI PUSH1 0x0 DUP1 REVERT JUMPDEST DUP1 PUSH4 0x1D5A7E96 GT PUSH2 0x27F JUMPI DUP1 PUSH4 0x42966C68 GT PUSH2 0x228 JUMPI DUP1 PUSH4 0x557ED1BA GT PUSH2 0x202 JUMPI DUP1 PUSH4 0x557ED1BA EQ PUSH2 0x625 JUMPI DUP1 PUSH4 0x5AF744EC EQ PUSH2 0x63A JUMPI DUP1 PUSH4 0x5D82CF6E EQ PUSH2 0x65A JUMPI DUP1 PUSH4 0x611F3F10 EQ PUSH2 0x67A JUMPI PUSH1 0x0 DUP1 REVERT JUMPDEST DUP1 PUSH4 0x42966C68 EQ PUSH2 0x5B5 JUMPI DUP1 PUSH4 0x4312DC7C EQ PUSH2 0x5D5 JUMPI DUP1 PUSH4 0x463CCB55 EQ PUSH2 0x5F5 JUMPI PUSH1 0x0 DUP1 REVERT JUMPDEST DUP1 PUSH4 0x32CB6B0C GT PUSH2 0x259 JUMPI DUP1 PUSH4 0x32CB6B0C EQ PUSH2 0x566 JUMPI DUP1 PUSH4 0x3D272294 EQ PUSH2 0x582 JUMPI DUP1 PUSH4 0x42842E0E EQ PUSH2 0x5A2 JUMPI PUSH1 0x0 DUP1 REVERT JUMPDEST DUP1 PUSH4 0x1D5A7E96 EQ PUSH2 0x51E JUMPI DUP1 PUSH4 0x22FA3DFA EQ PUSH2 0x533 JUMPI DUP1 PUSH4 0x23B872DD EQ PUSH2 0x553 JUMPI PUSH1 0x0 DUP1 REVERT JUMPDEST DUP1 PUSH4 0x81812FC GT PUSH2 0x2E1 JUMPI DUP1 PUSH4 0x18160DDD GT PUSH2 0x2BB JUMPI DUP1 PUSH4 0x18160DDD EQ PUSH2 0x4A1 JUMPI DUP1 PUSH4 0x18F0C43E EQ PUSH2 0x4C4 JUMPI DUP1 PUSH4 0x1A6EEDB4 EQ PUSH2 0x4E5 JUMPI PUSH1 0x0 DUP1 REVERT JUMPDEST DUP1 PUSH4 0x81812FC EQ PUSH2 0x433 JUMPI DUP1 PUSH4 0x95EA7B3 EQ PUSH2 0x478 JUMPI DUP1 PUSH4 0x144A79E3 EQ PUSH2 0x48B JUMPI PUSH1 0x0 DUP1 REVERT JUMPDEST DUP1 PUSH4 0x2DDB65B GT PUSH2 0x312 JUMPI DUP1 PUSH4 0x2DDB65B EQ PUSH2 0x3C4 JUMPI DUP1 PUSH4 0x2FE5305 EQ PUSH2 0x3F1 JUMPI DUP1 PUSH4 0x6FDDE03 EQ PUSH2 0x411 JUMPI PUSH1 0x0 DUP1 REVERT JUMPDEST DUP1 PUSH3 0xF714CE EQ PUSH2 0x338 JUMPI DUP1 PUSH4 0x1FFC9A7 EQ PUSH2 0x35A JUMPI DUP1 PUSH4 0x2C43A11 EQ PUSH2 0x38F JUMPI JUMPDEST PUSH1 0x0 DUP1 REVERT JUMPDEST CALLVALUE DUP1 ISZERO PUSH2 0x344 JUMPI PUSH1 0x0 DUP1 REVERT JUMPDEST POP PUSH2 0x358 PUSH2 0x353 CALLDATASIZE PUSH1 0x4 PUSH2 0x2BDE JUMP JUMPDEST PUSH2 0x9AE JUMP JUMPDEST STOP JUMPDEST CALLVALUE DUP1 ISZERO PUSH2 0x366 JUMPI PUSH1 0x0 DUP1 REVERT JUMPDEST POP PUSH2 0x37A PUSH2 0x375 CALLDATASIZE PUSH1 0x4 PUSH2 0x2C38 JUMP JUMPDEST PUSH2 0xAD5 JUMP JUMPDEST PUSH1 0x40 MLOAD SWAP1 ISZERO ISZERO DUP2 MSTORE PUSH1 0x20 ADD JUMPDEST PUSH1 0x40 MLOAD DUP1 SWAP2 SUB SWAP1 RETURN JUMPDEST CALLVALUE DUP1 ISZERO PUSH2 0x39B JUMPI PUSH1 0x0 DUP1 REVERT JUMPDEST POP PUSH1 0xE SLOAD PUSH2 0x3B2 SWAP1 PUSH6 0x10000000000 SWAP1 DIV PUSH1 0xFF AND DUP2 JUMP JUMPDEST PUSH1 0x40 MLOAD PUSH1 0xFF SWAP1 SWAP2 AND DUP2 MSTORE PUSH1 0x20 ADD PUSH2 0x386 JUMP JUMPDEST CALLVALUE DUP1 ISZERO PUSH2 0x3D0 JUMPI PUSH1 0x0 DUP1 REVERT JUMPDEST POP PUSH2 0x3DA PUSH2 0x7D0 DUP2 JUMP JUMPDEST PUSH1 0x40 MLOAD PUSH6 0xFFFFFFFFFFFF SWAP1 SWAP2 AND DUP2 MSTORE PUSH1 0x20 ADD PUSH2 0x386 JUMP JUMPDEST CALLVALUE DUP1 ISZERO PUSH2 0x3FD JUMPI PUSH1 0x0 DUP1 REVERT JUMPDEST POP PUSH2 0x358 PUSH2 0x40C CALLDATASIZE PUSH1 0x4 PUSH2 0x2C55 JUMP JUMPDEST PUSH2 0xBBA JUMP JUMPDEST CALLVALUE DUP1 ISZERO PUSH2 0x41D JUMPI PUSH1 0x0 DUP1 REVERT JUMPDEST POP PUSH2 0x426 PUSH2 0xC14 JUMP JUMPDEST PUSH1 0x40 MLOAD PUSH2 0x386 SWAP2 SWAP1 PUSH2 0x2D17 JUMP JUMPDEST CALLVALUE DUP1 ISZERO PUSH2 0x43F JUMPI PUSH1 0x0 DUP1 REVERT JUMPDEST POP PUSH2 0x453 PUSH2 0x44E CALLDATASIZE PUSH1 0x4 PUSH2 0x2D2A JUMP JUMPDEST PUSH2 0xCA6 JUMP JUMPDEST PUSH1 0x40 MLOAD PUSH20 0xFFFFFFFFFFFFFFFFFFFFFFFFFFFFFFFFFFFFFFFF SWAP1 SWAP2 AND DUP2 MSTORE PUSH1 0x20 ADD PUSH2 0x386 JUMP JUMPDEST PUSH2 0x358 PUSH2 0x486 CALLDATASIZE PUSH1 0x4 PUSH2 0x2D43 JUMP JUMPDEST PUSH2 0xD10 JUMP JUMPDEST CALLVALUE DUP1 ISZERO PUSH2 0x497 JUMPI PUSH1 0x0 DUP1 REVERT JUMPDEST POP PUSH2 0x3DA PUSH2 0xFFF DUP2 JUMP JUMPDEST CALLVALUE DUP1 ISZERO PUSH2 0x4AD JUMPI PUSH1 0x0 DUP1 REVERT JUMPDEST POP PUSH1 0x2 SLOAD PUSH1 0x1 SLOAD SUB JUMPDEST PUSH1 0x40 MLOAD SWAP1 DUP2 MSTORE PUSH1 0x20 ADD PUSH2 0x386 JUMP JUMPDEST CALLVALUE DUP1 ISZERO PUSH2 0x4D0 JUMPI PUSH1 0x0 DUP1 REVERT JUMPDEST POP PUSH1 0xE SLOAD PUSH2 0x3B2 SWAP1 PUSH4 0x1000000 SWAP1 DIV PUSH1 0xFF AND DUP2 JUMP JUMPDEST CALLVALUE DUP1 ISZERO PUSH2 0x4F1 JUMPI PUSH1 0x0 DUP1 REVERT JUMPDEST POP PUSH2 0x505 PUSH2 0x500 CALLDATASIZE PUSH1 0x4 PUSH2 0x2D6D JUMP JUMPDEST PUSH2 0xE61 JUMP JUMPDEST PUSH1 0x40 MLOAD PUSH8 0xFFFFFFFFFFFFFFFF SWAP1 SWAP2 AND DUP2 MSTORE PUSH1 0x20 ADD PUSH2 0x386 JUMP JUMPDEST CALLVALUE DUP1 ISZERO PUSH2 0x52A JUMPI PUSH1 0x0 DUP1 REVERT JUMPDEST POP PUSH1 0x0 SLOAD PUSH2 0x4B6 JUMP JUMPDEST CALLVALUE DUP1 ISZERO PUSH2 0x53F JUMPI PUSH1 0x0 DUP1 REVERT JUMPDEST POP PUSH2 0x505 PUSH2 0x54E CALLDATASIZE PUSH1 0x4 PUSH2 0x2D6D JUMP JUMPDEST PUSH2 0xEA9 JUMP JUMPDEST PUSH2 0x358 PUSH2 0x561 CALLDATASIZE PUSH1 0x4 PUSH2 0x2D88 JUMP JUMPDEST PUSH2 0xEDE JUMP JUMPDEST CALLVALUE DUP1 ISZERO PUSH2 0x572 JUMPI PUSH1 0x0 DUP1 REVERT JUMPDEST POP PUSH2 0x4B6 PUSH8 0x16345785D89FFFF DUP2 JUMP JUMPDEST CALLVALUE DUP1 ISZERO PUSH2 0x58E JUMPI PUSH1 0x0 DUP1 REVERT JUMPDEST POP PUSH2 0x358 PUSH2 0x59D CALLDATASIZE PUSH1 0x4 PUSH2 0x2D2A JUMP JUMPDEST PUSH2 0x1184 JUMP JUMPDEST PUSH2 0x358 PUSH2 0x5B0 CALLDATASIZE PUSH1 0x4 PUSH2 0x2D88 JUMP JUMPDEST PUSH2 0x1200 JUMP JUMPDEST CALLVALUE DUP1 ISZERO PUSH2 0x5C1 JUMPI PUSH1 0x0 DUP1 REVERT JUMPDEST POP PUSH2 0x358 PUSH2 0x5D0 CALLDATASIZE PUSH1 0x4 PUSH2 0x2D2A JUMP JUMPDEST PUSH2 0x1220 JUMP JUMPDEST CALLVALUE DUP1 ISZERO PUSH2 0x5E1 JUMPI PUSH1 0x0 DUP1 REVERT JUMPDEST POP PUSH2 0x358 PUSH2 0x5F0 CALLDATASIZE PUSH1 0x4 PUSH2 0x2DDA JUMP JUMPDEST PUSH2 0x12A1 JUMP JUMPDEST CALLVALUE DUP1 ISZERO PUSH2 0x601 JUMPI PUSH1 0x0 DUP1 REVERT JUMPDEST POP PUSH2 0x37A PUSH2 0x610 CALLDATASIZE PUSH1 0x4 PUSH2 0x2D6D JUMP JUMPDEST PUSH1 0xD PUSH1 0x20 MSTORE PUSH1 0x0 SWAP1 DUP2 MSTORE PUSH1 0x40 SWAP1 KECCAK256 SLOAD PUSH1 0xFF AND DUP2 JUMP JUMPDEST CALLVALUE DUP1 ISZERO PUSH2 0x631 JUMPI PUSH1 0x0 DUP1 REVERT JUMPDEST POP PUSH2 0x4B6 PUSH2 0x13AC JUMP JUMPDEST CALLVALUE DUP1 ISZERO PUSH2 0x646 JUMPI PUSH1 0x0 DUP1 REVERT JUMPDEST POP PUSH1 0xE SLOAD PUSH2 0x3B2 SWAP1 PUSH3 0x10000 SWAP1 DIV PUSH1 0xFF AND DUP2 JUMP JUMPDEST CALLVALUE DUP1 ISZERO PUSH2 0x666 JUMPI PUSH1 0x0 DUP1 REVERT JUMPDEST POP PUSH2 0x358 PUSH2 0x675 CALLDATASIZE PUSH1 0x4 PUSH2 0x2D2A JUMP JUMPDEST PUSH2 0x13B5 JUMP JUMPDEST CALLVALUE DUP1 ISZERO PUSH2 0x686 JUMPI PUSH1 0x0 DUP1 REVERT JUMPDEST POP PUSH2 0x4B6 PUSH1 0xA SLOAD DUP2 JUMP JUMPDEST CALLVALUE DUP1 ISZERO PUSH2 0x69C JUMPI PUSH1 0x0 DUP1 REVERT JUMPDEST POP PUSH1 0xE SLOAD PUSH2 0x3B2 SWAP1 PUSH2 0x100 SWAP1 DIV PUSH1 0xFF AND DUP2 JUMP JUMPDEST CALLVALUE DUP1 ISZERO PUSH2 0x6BB JUMPI PUSH1 0x0 DUP1 REVERT JUMPDEST POP PUSH2 0x453 PUSH2 0x6CA CALLDATASIZE PUSH1 0x4 PUSH2 0x2D2A JUMP JUMPDEST PUSH2 0x1431 JUMP JUMPDEST PUSH2 0x358 PUSH2 0x6DD CALLDATASIZE PUSH1 0x4 PUSH2 0x2E04 JUMP JUMPDEST PUSH2 0x143C JUMP JUMPDEST CALLVALUE DUP1 ISZERO PUSH2 0x6EE JUMPI PUSH1 0x0 DUP1 REVERT JUMPDEST POP PUSH2 0x4B6 PUSH2 0x6FD CALLDATASIZE PUSH1 0x4 PUSH2 0x2D6D JUMP JUMPDEST PUSH2 0x182F JUMP JUMPDEST CALLVALUE DUP1 ISZERO PUSH2 0x70E JUMPI PUSH1 0x0 DUP1 REVERT JUMPDEST POP PUSH2 0x358 PUSH2 0x18B1 JUMP JUMPDEST CALLVALUE DUP1 ISZERO PUSH2 0x723 JUMPI PUSH1 0x0 DUP1 REVERT JUMPDEST POP PUSH2 0x358 PUSH2 0x732 CALLDATASIZE PUSH1 0x4 PUSH2 0x2D2A JUMP JUMPDEST PUSH2 0x18C5 JUMP JUMPDEST CALLVALUE DUP1 ISZERO PUSH2 0x743 JUMPI PUSH1 0x0 DUP1 REVERT JUMPDEST POP PUSH1 0xE SLOAD PUSH2 0x3B2 SWAP1 PUSH5 0x100000000 SWAP1 DIV PUSH1 0xFF AND DUP2 JUMP JUMPDEST CALLVALUE DUP1 ISZERO PUSH2 0x765 JUMPI PUSH1 0x0 DUP1 REVERT JUMPDEST POP PUSH1 0xE SLOAD PUSH2 0x3B2 SWAP1 PUSH1 0xFF AND DUP2 JUMP JUMPDEST CALLVALUE DUP1 ISZERO PUSH2 0x77F JUMPI PUSH1 0x0 DUP1 REVERT JUMPDEST POP PUSH2 0x505 PUSH2 0x78E CALLDATASIZE PUSH1 0x4 PUSH2 0x2D6D JUMP JUMPDEST PUSH2 0x1900 JUMP JUMPDEST CALLVALUE DUP1 ISZERO PUSH2 0x79F JUMPI PUSH1 0x0 DUP1 REVERT JUMPDEST POP PUSH1 0x9 SLOAD PUSH20 0xFFFFFFFFFFFFFFFFFFFFFFFFFFFFFFFFFFFFFFFF AND PUSH2 0x453 JUMP JUMPDEST CALLVALUE DUP1 ISZERO PUSH2 0x7CA JUMPI PUSH1 0x0 DUP1 REVERT JUMPDEST POP PUSH2 0x426 PUSH2 0x1935 JUMP JUMPDEST CALLVALUE DUP1 ISZERO PUSH2 0x7DF JUMPI PUSH1 0x0 DUP1 REVERT JUMPDEST POP PUSH2 0x358 PUSH2 0x7EE CALLDATASIZE PUSH1 0x4 PUSH2 0x2E88 JUMP JUMPDEST PUSH2 0x1944 JUMP JUMPDEST CALLVALUE DUP1 ISZERO PUSH2 0x7FF JUMPI PUSH1 0x0 DUP1 REVERT JUMPDEST POP PUSH2 0x358 PUSH2 0x80E CALLDATASIZE PUSH1 0x4 PUSH2 0x2EC4 JUMP JUMPDEST PUSH2 0x1A17 JUMP JUMPDEST CALLVALUE DUP1 ISZERO PUSH2 0x81F JUMPI PUSH1 0x0 DUP1 REVERT JUMPDEST POP PUSH2 0x4B6 PUSH1 0xB SLOAD DUP2 JUMP JUMPDEST PUSH2 0x358 PUSH2 0x837 CALLDATASIZE PUSH1 0x4 PUSH2 0x2EE7 JUMP JUMPDEST PUSH2 0x1AD5 JUMP JUMPDEST PUSH2 0x358 PUSH2 0x84A CALLDATASIZE PUSH1 0x4 PUSH2 0x2F31 JUMP JUMPDEST PUSH2 0x1DD6 JUMP JUMPDEST CALLVALUE DUP1 ISZERO PUSH2 0x85B JUMPI PUSH1 0x0 DUP1 REVERT JUMPDEST POP PUSH2 0x3DA PUSH1 0xF DUP2 JUMP JUMPDEST CALLVALUE DUP1 ISZERO PUSH2 0x870 JUMPI PUSH1 0x0 DUP1 REVERT JUMPDEST POP PUSH1 0xC SLOAD PUSH2 0x3DA SWAP1 PUSH6 0xFFFFFFFFFFFF AND DUP2 JUMP JUMPDEST CALLVALUE DUP1 ISZERO PUSH2 0x88F JUMPI PUSH1 0x0 DUP1 REVERT JUMPDEST POP PUSH2 0x426 PUSH2 0x89E CALLDATASIZE PUSH1 0x4 PUSH2 0x2D2A JUMP JUMPDEST PUSH2 0x1E40 JUMP JUMPDEST CALLVALUE DUP1 ISZERO PUSH2 0x8AF JUMPI PUSH1 0x0 DUP1 REVERT JUMPDEST POP PUSH2 0x358 PUSH2 0x8BE CALLDATASIZE PUSH1 0x4 PUSH2 0x2D2A JUMP JUMPDEST PUSH2 0x1EDD JUMP JUMPDEST CALLVALUE DUP1 ISZERO PUSH2 0x8CF JUMPI PUSH1 0x0 DUP1 REVERT JUMPDEST POP PUSH2 0x4B6 PUSH2 0x8DE CALLDATASIZE PUSH1 0x4 PUSH2 0x2D6D JUMP JUMPDEST PUSH2 0x1F1C JUMP JUMPDEST CALLVALUE DUP1 ISZERO PUSH2 0x8EF JUMPI PUSH1 0x0 DUP1 REVERT JUMPDEST POP PUSH2 0x426 PUSH2 0x1F54 JUMP JUMPDEST CALLVALUE DUP1 ISZERO PUSH2 0x904 JUMPI PUSH1 0x0 DUP1 REVERT JUMPDEST POP PUSH2 0x358 PUSH2 0x913 CALLDATASIZE PUSH1 0x4 PUSH2 0x2E04 JUMP JUMPDEST PUSH2 0x1FE2 JUMP JUMPDEST CALLVALUE DUP1 ISZERO PUSH2 0x924 JUMPI PUSH1 0x0 DUP1 REVERT JUMPDEST POP PUSH2 0x37A PUSH2 0x933 CALLDATASIZE PUSH1 0x4 PUSH2 0x300D JUMP JUMPDEST PUSH20 0xFFFFFFFFFFFFFFFFFFFFFFFFFFFFFFFFFFFFFFFF SWAP2 DUP3 AND PUSH1 0x0 SWAP1 DUP2 MSTORE PUSH1 0x8 PUSH1 0x20 SWAP1 DUP2 MSTORE PUSH1 0x40 DUP1 DUP4 KECCAK256 SWAP4 SWAP1 SWAP5 AND DUP3 MSTORE SWAP2 SWAP1 SWAP2 MSTORE KECCAK256 SLOAD PUSH1 0xFF AND SWAP1 JUMP JUMPDEST CALLVALUE DUP1 ISZERO PUSH2 0x97A JUMPI PUSH1 0x0 DUP1 REVERT JUMPDEST POP PUSH2 0x358 PUSH2 0x989 CALLDATASIZE PUSH1 0x4 PUSH2 0x2EC4 JUMP JUMPDEST PUSH2 0x22C4 JUMP JUMPDEST CALLVALUE DUP1 ISZERO PUSH2 0x99A JUMPI PUSH1 0x0 DUP1 REVERT JUMPDEST POP PUSH2 0x358 PUSH2 0x9A9 CALLDATASIZE PUSH1 0x4 PUSH2 0x2D6D JUMP JUMPDEST PUSH2 0x2319 JUMP JUMPDEST PUSH2 0x9B6 PUSH2 0x23D0 JUMP JUMPDEST SELFBALANCE DUP3 DUP2 LT ISZERO PUSH2 0x9F1 JUMPI PUSH1 0x40 MLOAD PUSH32 0x9ABC749100000000000000000000000000000000000000000000000000000000 DUP2 MSTORE PUSH1 0x4 ADD PUSH1 0x40 MLOAD DUP1 SWAP2 SUB SWAP1 REVERT JUMPDEST PUSH1 0x0 DUP3 PUSH20 0xFFFFFFFFFFFFFFFFFFFFFFFFFFFFFFFFFFFFFFFF AND DUP5 PUSH1 0x40 MLOAD PUSH1 0x0 PUSH1 0x40 MLOAD DUP1 DUP4 SUB DUP2 DUP6 DUP8 GAS CALL SWAP3 POP POP POP RETURNDATASIZE DUP1 PUSH1 0x0 DUP2 EQ PUSH2 0xA4B JUMPI PUSH1 0x40 MLOAD SWAP2 POP PUSH1 0x1F NOT PUSH1 0x3F RETURNDATASIZE ADD AND DUP3 ADD PUSH1 0x40 MSTORE RETURNDATASIZE DUP3 MSTORE RETURNDATASIZE PUSH1 0x0 PUSH1 0x20 DUP5 ADD RETURNDATACOPY PUSH2 0xA50 JUMP JUMPDEST PUSH1 0x60 SWAP2 POP JUMPDEST POP POP SWAP1 POP DUP3 PUSH20 0xFFFFFFFFFFFFFFFFFFFFFFFFFFFFFFFFFFFFFFFF AND DUP5 PUSH32 0x8353FFCAC0876AD14E226D9783C04540BFEBF13871E868157D2A391CAD98E918 PUSH1 0x40 MLOAD PUSH1 0x40 MLOAD DUP1 SWAP2 SUB SWAP1 LOG3 DUP1 PUSH2 0xACF JUMPI PUSH1 0x40 MLOAD PUSH32 0x27FCD9D100000000000000000000000000000000000000000000000000000000 DUP2 MSTORE PUSH1 0x4 ADD PUSH1 0x40 MLOAD DUP1 SWAP2 SUB SWAP1 REVERT JUMPDEST POP POP POP POP JUMP JUMPDEST PUSH1 0x0 PUSH32 0x1FFC9A700000000000000000000000000000000000000000000000000000000 PUSH32 0xFFFFFFFF00000000000000000000000000000000000000000000000000000000 DUP4 AND EQ DUP1 PUSH2 0xB68 JUMPI POP PUSH32 0x80AC58CD00000000000000000000000000000000000000000000000000000000 PUSH32 0xFFFFFFFF00000000000000000000000000000000000000000000000000000000 DUP4 AND EQ JUMPDEST DUP1 PUSH2 0xBB4 JUMPI POP PUSH32 0x5B5E139F00000000000000000000000000000000000000000000000000000000 PUSH32 0xFFFFFFFF00000000000000000000000000000000000000000000000000000000 DUP4 AND EQ JUMPDEST SWAP3 SWAP2 POP POP JUMP JUMPDEST PUSH2 0xBC2 PUSH2 0x23D0 JUMP JUMPDEST PUSH1 0xF PUSH2 0xBCF DUP3 DUP5 DUP4 PUSH2 0x30D0 JUMP JUMPDEST POP DUP2 DUP2 PUSH1 0x40 MLOAD PUSH2 0xBE0 SWAP3 SWAP2 SWAP1 PUSH2 0x3191 JUMP JUMPDEST PUSH1 0x40 MLOAD SWAP1 DUP2 SWAP1 SUB DUP2 KECCAK256 SWAP1 PUSH32 0x562BF0237FA5139EDC73EC903039C3A552E19AE62CC8292DA62AFEEA43024B0A SWAP1 PUSH1 0x0 SWAP1 LOG2 POP POP JUMP JUMPDEST PUSH1 0x60 PUSH1 0x3 DUP1 SLOAD PUSH2 0xC23 SWAP1 PUSH2 0x3037 JUMP JUMPDEST DUP1 PUSH1 0x1F ADD PUSH1 0x20 DUP1 SWAP2 DIV MUL PUSH1 0x20 ADD PUSH1 0x40 MLOAD SWAP1 DUP2 ADD PUSH1 0x40 MSTORE DUP1 SWAP3 SWAP2 SWAP1 DUP2 DUP2 MSTORE PUSH1 0x20 ADD DUP3 DUP1 SLOAD PUSH2 0xC4F SWAP1 PUSH2 0x3037 JUMP JUMPDEST DUP1 ISZERO PUSH2 0xC9C JUMPI DUP1 PUSH1 0x1F LT PUSH2 0xC71 JUMPI PUSH2 0x100 DUP1 DUP4 SLOAD DIV MUL DUP4 MSTORE SWAP2 PUSH1 0x20 ADD SWAP2 PUSH2 0xC9C JUMP JUMPDEST DUP3 ADD SWAP2 SWAP1 PUSH1 0x0 MSTORE PUSH1 0x20 PUSH1 0x0 KECCAK256 SWAP1 JUMPDEST DUP2 SLOAD DUP2 MSTORE SWAP1 PUSH1 0x1 ADD SWAP1 PUSH1 0x20 ADD DUP1 DUP4 GT PUSH2 0xC7F JUMPI DUP3 SWAP1 SUB PUSH1 0x1F AND DUP3 ADD SWAP2 JUMPDEST POP POP POP POP POP SWAP1 POP SWAP1 JUMP JUMPDEST PUSH1 0x0 PUSH2 0xCB1 DUP3 PUSH2 0x2451 JUMP JUMPDEST PUSH2 0xCE7 JUMPI PUSH1 0x40 MLOAD PUSH32 0xCF4700E400000000000000000000000000000000000000000000000000000000 DUP2 MSTORE PUSH1 0x4 ADD PUSH1 0x40 MLOAD DUP1 SWAP2 SUB SWAP1 REVERT JUMPDEST POP PUSH1 0x0 SWAP1 DUP2 MSTORE PUSH1 0x7 PUSH1 0x20 MSTORE PUSH1 0x40 SWAP1 KECCAK256 SLOAD PUSH20 0xFFFFFFFFFFFFFFFFFFFFFFFFFFFFFFFFFFFFFFFF AND SWAP1 JUMP JUMPDEST PUSH1 0x0 SLOAD TIMESTAMP LT ISZERO PUSH2 0xD4C JUMPI PUSH1 0x40 MLOAD PUSH32 0xCFE89EAC00000000000000000000000000000000000000000000000000000000 DUP2 MSTORE PUSH1 0x4 ADD PUSH1 0x40 MLOAD DUP1 SWAP2 SUB SWAP1 REVERT JUMPDEST PUSH1 0x0 PUSH2 0xD57 DUP3 PUSH2 0x1431 JUMP JUMPDEST SWAP1 POP CALLER PUSH20 0xFFFFFFFFFFFFFFFFFFFFFFFFFFFFFFFFFFFFFFFF DUP3 AND EQ PUSH2 0xDE0 JUMPI PUSH20 0xFFFFFFFFFFFFFFFFFFFFFFFFFFFFFFFFFFFFFFFF DUP2 AND PUSH1 0x0 SWAP1 DUP2 MSTORE PUSH1 0x8 PUSH1 0x20 SWAP1 DUP2 MSTORE PUSH1 0x40 DUP1 DUP4 KECCAK256 CALLER DUP5 MSTORE SWAP1 SWAP2 MSTORE SWAP1 KECCAK256 SLOAD PUSH1 0xFF AND PUSH2 0xDE0 JUMPI PUSH1 0x40 MLOAD PUSH32 0xCFB3B94200000000000000000000000000000000000000000000000000000000 DUP2 MSTORE PUSH1 0x4 ADD PUSH1 0x40 MLOAD DUP1 SWAP2 SUB SWAP1 REVERT JUMPDEST PUSH1 0x0 DUP3 DUP2 MSTORE PUSH1 0x7 PUSH1 0x20 MSTORE PUSH1 0x40 DUP1 DUP3 KECCAK256 DUP1 SLOAD PUSH32 0xFFFFFFFFFFFFFFFFFFFFFFFF0000000000000000000000000000000000000000 AND PUSH20 0xFFFFFFFFFFFFFFFFFFFFFFFFFFFFFFFFFFFFFFFF DUP8 DUP2 AND SWAP2 DUP3 OR SWAP1 SWAP3 SSTORE SWAP2 MLOAD DUP6 SWAP4 SWAP2 DUP6 AND SWAP2 PUSH32 0x8C5BE1E5EBEC7D5BD14F71427D1E84F3DD0314C0F7B2291E5B200AC8C7C3B925 SWAP2 LOG4 POP POP POP JUMP JUMPDEST PUSH1 0x0 PUSH1 0xF PUSH1 0x8 PUSH2 0xE96 DUP5 PUSH20 0xFFFFFFFFFFFFFFFFFFFFFFFFFFFFFFFFFFFFFFFF AND PUSH1 0x0 SWAP1 DUP2 MSTORE PUSH1 0x6 PUSH1 0x20 MSTORE PUSH1 0x40 SWAP1 KECCAK256 SLOAD PUSH1 0xC0 SHR SWAP1 JUMP JUMPDEST PUSH8 0xFFFFFFFFFFFFFFFF AND SWAP1 SHR AND SWAP3 SWAP2 POP POP JUMP JUMPDEST PUSH1 0x0 PUSH1 0xF PUSH1 0x4 PUSH2 0xE96 DUP5 PUSH20 0xFFFFFFFFFFFFFFFFFFFFFFFFFFFFFFFFFFFFFFFF AND PUSH1 0x0 SWAP1 DUP2 MSTORE PUSH1 0x6 PUSH1 0x20 MSTORE PUSH1 0x40 SWAP1 KECCAK256 SLOAD PUSH1 0xC0 SHR SWAP1 JUMP JUMPDEST PUSH1 0x0 PUSH2 0xEE9 DUP3 PUSH2 0x2492 JUMP JUMPDEST SWAP1 POP DUP4 PUSH20 0xFFFFFFFFFFFFFFFFFFFFFFFFFFFFFFFFFFFFFFFF AND DUP2 PUSH20 0xFFFFFFFFFFFFFFFFFFFFFFFFFFFFFFFFFFFFFFFF AND EQ PUSH2 0xF50 JUMPI PUSH1 0x40 MLOAD PUSH32 0xA114810000000000000000000000000000000000000000000000000000000000 DUP2 MSTORE PUSH1 0x4 ADD PUSH1 0x40 MLOAD DUP1 SWAP2 SUB SWAP1 REVERT JUMPDEST PUSH1 0x0 DUP3 DUP2 MSTORE PUSH1 0x7 PUSH1 0x20 MSTORE PUSH1 0x40 SWAP1 KECCAK256 DUP1 SLOAD PUSH2 0xF89 DUP2 DUP8 CALLER JUMPDEST PUSH20 0xFFFFFFFFFFFFFFFFFFFFFFFFFFFFFFFFFFFFFFFF SWAP1 DUP2 AND SWAP2 AND DUP2 EQ SWAP2 EQ OR SWAP1 JUMP JUMPDEST PUSH2 0xFF7 JUMPI PUSH20 0xFFFFFFFFFFFFFFFFFFFFFFFFFFFFFFFFFFFFFFFF DUP7 AND PUSH1 0x0 SWAP1 DUP2 MSTORE PUSH1 0x8 PUSH1 0x20 SWAP1 DUP2 MSTORE PUSH1 0x40 DUP1 DUP4 KECCAK256 CALLER DUP5 MSTORE SWAP1 SWAP2 MSTORE SWAP1 KECCAK256 SLOAD PUSH1 0xFF AND PUSH2 0xFF7 JUMPI PUSH1 0x40 MLOAD PUSH32 0x59C896BE00000000000000000000000000000000000000000000000000000000 DUP2 MSTORE PUSH1 0x4 ADD PUSH1 0x40 MLOAD DUP1 SWAP2 SUB SWAP1 REVERT JUMPDEST PUSH20 0xFFFFFFFFFFFFFFFFFFFFFFFFFFFFFFFFFFFFFFFF DUP6 AND PUSH2 0x1044 JUMPI PUSH1 0x40 MLOAD PUSH32 0xEA553B3400000000000000000000000000000000000000000000000000000000 DUP2 MSTORE PUSH1 0x4 ADD PUSH1 0x40 MLOAD DUP1 SWAP2 SUB SWAP1 REVERT JUMPDEST DUP1 ISZERO PUSH2 0x104F JUMPI PUSH1 0x0 DUP3 SSTORE JUMPDEST PUSH20 0xFFFFFFFFFFFFFFFFFFFFFFFFFFFFFFFFFFFFFFFF DUP7 DUP2 AND PUSH1 0x0 SWAP1 DUP2 MSTORE PUSH1 0x6 PUSH1 0x20 MSTORE PUSH1 0x40 DUP1 DUP3 KECCAK256 DUP1 SLOAD PUSH1 0x0 NOT ADD SWAP1 SSTORE SWAP2 DUP8 AND DUP1 DUP3 MSTORE SWAP2 SWAP1 KECCAK256 DUP1 SLOAD PUSH1 0x1 ADD SWAP1 SSTORE TIMESTAMP PUSH1 0xA0 SHL OR PUSH29 0x200000000000000000000000000000000000000000000000000000000 OR PUSH1 0x0 DUP6 DUP2 MSTORE PUSH1 0x5 PUSH1 0x20 MSTORE PUSH1 0x40 DUP2 KECCAK256 SWAP2 SWAP1 SWAP2 SSTORE PUSH29 0x200000000000000000000000000000000000000000000000000000000 DUP5 AND SWAP1 SUB PUSH2 0x1120 JUMPI PUSH1 0x1 DUP5 ADD PUSH1 0x0 DUP2 DUP2 MSTORE PUSH1 0x5 PUSH1 0x20 MSTORE PUSH1 0x40 DUP2 KECCAK256 SLOAD SWAP1 SUB PUSH2 0x111E JUMPI PUSH1 0x1 SLOAD DUP2 EQ PUSH2 0x111E JUMPI PUSH1 0x0 DUP2 DUP2 MSTORE PUSH1 0x5 PUSH1 0x20 MSTORE PUSH1 0x40 SWAP1 KECCAK256 DUP5 SWAP1 SSTORE JUMPDEST POP JUMPDEST DUP4 DUP6 PUSH20 0xFFFFFFFFFFFFFFFFFFFFFFFFFFFFFFFFFFFFFFFF AND DUP8 PUSH20 0xFFFFFFFFFFFFFFFFFFFFFFFFFFFFFFFFFFFFFFFF AND PUSH32 0xDDF252AD1BE2C89B69C2B068FC378DAA952BA7F163C4A11628F55A4DF523B3EF PUSH1 0x40 MLOAD PUSH1 0x40 MLOAD DUP1 SWAP2 SUB SWAP1 LOG4 JUMPDEST POP POP POP POP POP POP JUMP JUMPDEST PUSH2 0x118C PUSH2 0x23D0 JUMP JUMPDEST PUSH7 0x2386F26FC10000 DUP2 LT ISZERO PUSH2 0x11CD JUMPI PUSH1 0x40 MLOAD PUSH32 0x9713E00B00000000000000000000000000000000000000000000000000000000 DUP2 MSTORE PUSH1 0x4 ADD PUSH1 0x40 MLOAD DUP1 SWAP2 SUB SWAP1 REVERT JUMPDEST PUSH1 0xB DUP2 SWAP1 SSTORE PUSH1 0x40 MLOAD DUP2 SWAP1 PUSH32 0x7D4366E70F76342B93DE4F6D6A7DB9CE74705441E46D25D0AEA894B430D28B39 SWAP1 PUSH1 0x0 SWAP1 LOG2 POP JUMP JUMPDEST PUSH2 0x121B DUP4 DUP4 DUP4 PUSH1 0x40 MLOAD DUP1 PUSH1 0x20 ADD PUSH1 0x40 MSTORE DUP1 PUSH1 0x0 DUP2 MSTORE POP PUSH2 0x1DD6 JUMP JUMPDEST POP POP POP JUMP JUMPDEST PUSH2 0x1228 PUSH2 0x23D0 JUMP JUMPDEST PUSH2 0x1232 CALLER DUP3 PUSH2 0x252B JUMP JUMPDEST PUSH2 0x1268 JUMPI PUSH1 0x40 MLOAD PUSH32 0xB5B5504400000000000000000000000000000000000000000000000000000000 DUP2 MSTORE PUSH1 0x4 ADD PUSH1 0x40 MLOAD DUP1 SWAP2 SUB SWAP1 REVERT JUMPDEST PUSH2 0x1273 DUP2 PUSH1 0x1 PUSH2 0x25EB JUMP JUMPDEST PUSH1 0x40 MLOAD DUP2 SWAP1 PUSH32 0xB90306AD06B2A6FF86DDC9327DB583062895EF6540E62DC50ADD009DB5B356EB SWAP1 PUSH1 0x0 SWAP1 LOG2 POP JUMP JUMPDEST PUSH2 0x12A9 PUSH2 0x23D0 JUMP JUMPDEST PUSH1 0xE SLOAD PUSH4 0x1000000 SWAP1 DIV PUSH1 0xFF AND PUSH6 0xFFFFFFFFFFFF DUP3 AND GT ISZERO PUSH2 0x12F7 JUMPI PUSH1 0x40 MLOAD PUSH32 0x2370216F00000000000000000000000000000000000000000000000000000000 DUP2 MSTORE PUSH1 0x4 ADD PUSH1 0x40 MLOAD DUP1 SWAP2 SUB SWAP1 REVERT JUMPDEST PUSH1 0xC SLOAD PUSH8 0x16345785D89FFFF SWAP1 PUSH2 0x1317 SWAP1 DUP4 SWAP1 PUSH6 0xFFFFFFFFFFFF AND PUSH2 0x31D0 JUMP JUMPDEST PUSH6 0xFFFFFFFFFFFF AND GT ISZERO PUSH2 0x1357 JUMPI PUSH1 0x40 MLOAD PUSH32 0x2370216F00000000000000000000000000000000000000000000000000000000 DUP2 MSTORE PUSH1 0x4 ADD PUSH1 0x40 MLOAD DUP1 SWAP2 SUB SWAP1 REVERT JUMPDEST PUSH2 0x1369 DUP3 DUP3 PUSH6 0xFFFFFFFFFFFF AND PUSH2 0x27C5 JUMP JUMPDEST PUSH1 0xC DUP1 SLOAD DUP3 SWAP2 SWAP1 PUSH1 0x0 SWAP1 PUSH2 0x1386 SWAP1 DUP5 SWAP1 PUSH6 0xFFFFFFFFFFFF AND PUSH2 0x31D0 JUMP JUMPDEST SWAP3 POP PUSH2 0x100 EXP DUP2 SLOAD DUP2 PUSH6 0xFFFFFFFFFFFF MUL NOT AND SWAP1 DUP4 PUSH6 0xFFFFFFFFFFFF AND MUL OR SWAP1 SSTORE POP POP POP JUMP JUMPDEST PUSH1 0x0 DUP1 TIMESTAMP PUSH2 0xBB4 JUMP JUMPDEST PUSH2 0x13BD PUSH2 0x23D0 JUMP JUMPDEST PUSH7 0x2386F26FC10000 DUP2 LT ISZERO PUSH2 0x13FE JUMPI PUSH1 0x40 MLOAD PUSH32 0x9713E00B00000000000000000000000000000000000000000000000000000000 DUP2 MSTORE PUSH1 0x4 ADD PUSH1 0x40 MLOAD DUP1 SWAP2 SUB SWAP1 REVERT JUMPDEST PUSH1 0xA DUP2 SWAP1 SSTORE PUSH1 0x40 MLOAD DUP2 SWAP1 PUSH32 0xDA25869ECC04491E922BB8C554C6EF8967B063207AE489515C67ACE4E304B327 SWAP1 PUSH1 0x0 SWAP1 LOG2 POP JUMP JUMPDEST PUSH1 0x0 PUSH2 0xBB4 DUP3 PUSH2 0x2492 JUMP JUMPDEST ORIGIN CALLER EQ PUSH2 0x1475 JUMPI PUSH1 0x40 MLOAD PUSH32 0x7DF1F81700000000000000000000000000000000000000000000000000000000 DUP2 MSTORE PUSH1 0x4 ADD PUSH1 0x40 MLOAD DUP1 SWAP2 SUB SWAP1 REVERT JUMPDEST PUSH1 0xF PUSH1 0x10 DUP3 SWAP1 SHR DUP2 AND SWAP1 PUSH1 0x18 DUP4 SWAP1 SHR AND PUSH2 0xFFF DUP4 AND PUSH1 0x0 DUP2 SWAP1 SUB PUSH2 0x14C5 JUMPI PUSH1 0x40 MLOAD PUSH32 0xCCFAD01800000000000000000000000000000000000000000000000000000000 DUP2 MSTORE PUSH1 0x4 ADD PUSH1 0x40 MLOAD DUP1 SWAP2 SUB SWAP1 REVERT JUMPDEST PUSH1 0xC SLOAD PUSH8 0x16345785D89FFFF SWAP1 PUSH2 0x14E5 SWAP1 DUP4 SWAP1 PUSH6 0xFFFFFFFFFFFF AND PUSH2 0x31D0 JUMP JUMPDEST PUSH6 0xFFFFFFFFFFFF AND GT ISZERO PUSH2 0x1525 JUMPI PUSH1 0x40 MLOAD PUSH32 0x2370216F00000000000000000000000000000000000000000000000000000000 DUP2 MSTORE PUSH1 0x4 ADD PUSH1 0x40 MLOAD DUP1 SWAP2 SUB SWAP1 REVERT JUMPDEST PUSH1 0x40 DUP1 MLOAD PUSH32 0xFFFFFFFFFFFFFFFFFFFFFFFFFFFFFFFFFFFFFFFF000000000000000000000000 CALLER PUSH1 0x60 SHL AND PUSH1 0x20 DUP3 ADD MSTORE PUSH32 0xFFFFFFFFFFFF0000000000000000000000000000000000000000000000000000 PUSH1 0xD0 DUP7 DUP2 SHL DUP3 AND PUSH1 0x34 DUP5 ADD MSTORE DUP6 SWAP1 SHL AND PUSH1 0x3A DUP3 ADD MSTORE PUSH1 0x0 SWAP2 ADD PUSH1 0x40 MLOAD PUSH1 0x20 DUP2 DUP4 SUB SUB DUP2 MSTORE SWAP1 PUSH1 0x40 MSTORE DUP1 MLOAD SWAP1 PUSH1 0x20 ADD KECCAK256 SWAP1 POP PUSH2 0x15B4 DUP8 DUP8 PUSH1 0x10 SLOAD DUP5 PUSH2 0x2903 JUMP JUMPDEST PUSH2 0x15EA JUMPI PUSH1 0x40 MLOAD PUSH32 0xB05E92FA00000000000000000000000000000000000000000000000000000000 DUP2 MSTORE PUSH1 0x4 ADD PUSH1 0x40 MLOAD DUP1 SWAP2 SUB SWAP1 REVERT JUMPDEST PUSH1 0xE SLOAD PUSH2 0x100 SWAP1 DIV PUSH1 0xFF AND PUSH6 0xFFFFFFFFFFFF DUP5 AND EQ PUSH2 0x1635 JUMPI PUSH1 0x40 MLOAD PUSH32 0x28132A6200000000000000000000000000000000000000000000000000000000 DUP2 MSTORE PUSH1 0x4 ADD PUSH1 0x40 MLOAD DUP1 SWAP2 SUB SWAP1 REVERT JUMPDEST PUSH1 0xE SLOAD PUSH2 0x100 DUP2 DIV PUSH1 0xFF SWAP1 DUP2 AND PUSH5 0x100000000 SWAP1 SWAP3 DIV AND EQ PUSH2 0x1683 JUMPI PUSH1 0x40 MLOAD PUSH32 0x28132A6200000000000000000000000000000000000000000000000000000000 DUP2 MSTORE PUSH1 0x4 ADD PUSH1 0x40 MLOAD DUP1 SWAP2 SUB SWAP1 REVERT JUMPDEST CALLER PUSH1 0x0 SWAP1 DUP2 MSTORE PUSH1 0x6 PUSH1 0x20 MSTORE PUSH1 0x40 DUP2 KECCAK256 SLOAD PUSH1 0xC0 SHR SWAP1 POP PUSH1 0x4 DUP2 SWAP1 SHR PUSH1 0xF AND PUSH6 0xFFFFFFFFFFFF DUP7 DUP2 AND SWAP1 PUSH2 0x16B7 SWAP1 DUP7 AND DUP4 PUSH2 0x31F6 JUMP JUMPDEST PUSH8 0xFFFFFFFFFFFFFFFF AND GT ISZERO PUSH2 0x16F9 JUMPI PUSH1 0x40 MLOAD PUSH32 0x26F890C400000000000000000000000000000000000000000000000000000000 DUP2 MSTORE PUSH1 0x4 ADD PUSH1 0x40 MLOAD DUP1 SWAP2 SUB SWAP1 REVERT JUMPDEST PUSH1 0xB SLOAD PUSH2 0x170E SWAP1 PUSH6 0xFFFFFFFFFFFF DUP7 AND PUSH2 0x3217 JUMP JUMPDEST CALLVALUE LT ISZERO PUSH2 0x1747 JUMPI PUSH1 0x40 MLOAD PUSH32 0x356680B700000000000000000000000000000000000000000000000000000000 DUP2 MSTORE PUSH1 0x4 ADD PUSH1 0x40 MLOAD DUP1 SWAP2 SUB SWAP1 REVERT JUMPDEST PUSH2 0x1759 CALLER DUP6 PUSH6 0xFFFFFFFFFFFF AND PUSH2 0x27C5 JUMP JUMPDEST PUSH1 0x0 PUSH2 0x1771 PUSH6 0xFFFFFFFFFFF0 PUSH1 0x4 DUP8 SWAP1 SHL AND DUP5 PUSH2 0x31F6 JUMP JUMPDEST SWAP1 POP DUP8 PUSH6 0xFFFFFFFFFFFF AND DUP6 PUSH6 0xFFFFFFFFFFFF AND PUSH32 0xD5A06AB27FDA8C8F87B18FC92D660297A64163493811B3877B0B77232EBCF01F PUSH1 0x40 MLOAD PUSH1 0x40 MLOAD DUP1 SWAP2 SUB SWAP1 LOG3 CALLER PUSH1 0x0 SWAP1 DUP2 MSTORE PUSH1 0x6 PUSH1 0x20 MSTORE PUSH1 0x40 SWAP1 KECCAK256 DUP1 SLOAD PUSH24 0xFFFFFFFFFFFFFFFFFFFFFFFFFFFFFFFFFFFFFFFFFFFFFFFF AND PUSH1 0xC0 DUP4 SWAP1 SHL OR SWAP1 SSTORE PUSH1 0xC DUP1 SLOAD DUP7 SWAP2 SWAP1 PUSH1 0x0 SWAP1 PUSH2 0x1801 SWAP1 DUP5 SWAP1 PUSH6 0xFFFFFFFFFFFF AND PUSH2 0x31D0 JUMP JUMPDEST SWAP3 POP PUSH2 0x100 EXP DUP2 SLOAD DUP2 PUSH6 0xFFFFFFFFFFFF MUL NOT AND SWAP1 DUP4 PUSH6 0xFFFFFFFFFFFF AND MUL OR SWAP1 SSTORE POP POP POP POP POP POP POP POP POP POP POP JUMP JUMPDEST PUSH1 0x0 PUSH20 0xFFFFFFFFFFFFFFFFFFFFFFFFFFFFFFFFFFFFFFFF DUP3 AND PUSH2 0x187E JUMPI PUSH1 0x40 MLOAD PUSH32 0x8F4EB60400000000000000000000000000000000000000000000000000000000 DUP2 MSTORE PUSH1 0x4 ADD PUSH1 0x40 MLOAD DUP1 SWAP2 SUB SWAP1 REVERT JUMPDEST POP PUSH20 0xFFFFFFFFFFFFFFFFFFFFFFFFFFFFFFFFFFFFFFFF AND PUSH1 0x0 SWAP1 DUP2 MSTORE PUSH1 0x6 PUSH1 0x20 MSTORE PUSH1 0x40 SWAP1 KECCAK256 SLOAD PUSH8 0xFFFFFFFFFFFFFFFF AND SWAP1 JUMP JUMPDEST PUSH2 0x18B9 PUSH2 0x23D0 JUMP JUMPDEST PUSH2 0x18C3 PUSH1 0x0 PUSH2 0x291B JUMP JUMPDEST JUMP JUMPDEST PUSH2 0x18CD PUSH2 0x23D0 JUMP JUMPDEST PUSH1 0x10 DUP2 SWAP1 SSTORE PUSH1 0x40 MLOAD DUP2 SWAP1 PUSH32 0x914960AEF5E033CE5CAE8A7992D4B7A6F0F9741227B66ACB67C605B7019F8A46 SWAP1 PUSH1 0x0 SWAP1 LOG2 POP JUMP JUMPDEST PUSH1 0x0 PUSH1 0xF PUSH1 0xC PUSH2 0xE96 DUP5 PUSH20 0xFFFFFFFFFFFFFFFFFFFFFFFFFFFFFFFFFFFFFFFF AND PUSH1 0x0 SWAP1 DUP2 MSTORE PUSH1 0x6 PUSH1 0x20 MSTORE PUSH1 0x40 SWAP1 KECCAK256 SLOAD PUSH1 0xC0 SHR SWAP1 JUMP JUMPDEST PUSH1 0x60 PUSH1 0x4 DUP1 SLOAD PUSH2 0xC23 SWAP1 PUSH2 0x3037 JUMP JUMPDEST PUSH1 0x0 SLOAD TIMESTAMP LT ISZERO PUSH2 0x1980 JUMPI PUSH1 0x40 MLOAD PUSH32 0xCFE89EAC00000000000000000000000000000000000000000000000000000000 DUP2 MSTORE PUSH1 0x4 ADD PUSH1 0x40 MLOAD DUP1 SWAP2 SUB SWAP1 REVERT JUMPDEST CALLER PUSH1 0x0 DUP2 DUP2 MSTORE PUSH1 0x8 PUSH1 0x20 SWAP1 DUP2 MSTORE PUSH1 0x40 DUP1 DUP4 KECCAK256 PUSH20 0xFFFFFFFFFFFFFFFFFFFFFFFFFFFFFFFFFFFFFFFF DUP8 AND DUP1 DUP6 MSTORE SWAP1 DUP4 MSTORE SWAP3 DUP2 SWAP1 KECCAK256 DUP1 SLOAD PUSH32 0xFFFFFFFFFFFFFFFFFFFFFFFFFFFFFFFFFFFFFFFFFFFFFFFFFFFFFFFFFFFFFF00 AND DUP7 ISZERO ISZERO SWAP1 DUP2 OR SWAP1 SWAP2 SSTORE SWAP1 MLOAD SWAP1 DUP2 MSTORE SWAP2 SWAP3 SWAP2 PUSH32 0x17307EAB39AB6107E8899845AD3D59BD9653F200F220920489CA2B5937696C31 SWAP2 ADD PUSH1 0x40 MLOAD DUP1 SWAP2 SUB SWAP1 LOG3 POP POP JUMP JUMPDEST PUSH2 0x1A1F PUSH2 0x23D0 JUMP JUMPDEST PUSH1 0xE SLOAD PUSH2 0x100 SWAP1 DIV PUSH1 0xFF SWAP1 DUP2 AND DUP2 DUP4 AND SHL SWAP1 DUP2 AND PUSH1 0x0 SUB PUSH2 0x1A6C JUMPI PUSH1 0x40 MLOAD PUSH32 0xC665121C00000000000000000000000000000000000000000000000000000000 DUP2 MSTORE PUSH1 0x4 ADD PUSH1 0x40 MLOAD DUP1 SWAP2 SUB SWAP1 REVERT JUMPDEST PUSH1 0xE DUP1 SLOAD PUSH32 0xFFFFFFFFFFFFFFFFFFFFFFFFFFFFFFFFFFFFFFFFFFFFFFFFFFFFFFFFFFFF00FF AND PUSH2 0x100 PUSH1 0xFF DUP5 DUP2 AND DUP3 MUL SWAP3 SWAP1 SWAP3 OR SWAP3 DUP4 SWAP1 SSTORE PUSH1 0x40 MLOAD SWAP3 DIV AND SWAP1 PUSH32 0x147CB9EE5BA689A286D380CACD4C839F90B74C7723F5C7556C73D121FE4318D3 SWAP1 PUSH1 0x0 SWAP1 LOG2 POP POP JUMP JUMPDEST ORIGIN CALLER EQ PUSH2 0x1B0E JUMPI PUSH1 0x40 MLOAD PUSH32 0x7DF1F81700000000000000000000000000000000000000000000000000000000 DUP2 MSTORE PUSH1 0x4 ADD PUSH1 0x40 MLOAD DUP1 SWAP2 SUB SWAP1 REVERT JUMPDEST PUSH1 0xC SLOAD DUP2 SWAP1 PUSH8 0x16345785D89FFFF SWAP1 PUSH2 0x1B30 SWAP1 DUP4 SWAP1 PUSH6 0xFFFFFFFFFFFF AND PUSH2 0x31D0 JUMP JUMPDEST PUSH6 0xFFFFFFFFFFFF AND GT ISZERO PUSH2 0x1BA5 JUMPI PUSH1 0x40 MLOAD PUSH32 0x8C379A000000000000000000000000000000000000000000000000000000000 DUP2 MSTORE PUSH1 0x20 PUSH1 0x4 DUP3 ADD MSTORE PUSH1 0x14 PUSH1 0x24 DUP3 ADD MSTORE PUSH32 0x4D617820737570706C7920657863656564656421000000000000000000000000 PUSH1 0x44 DUP3 ADD MSTORE PUSH1 0x64 ADD JUMPDEST PUSH1 0x40 MLOAD DUP1 SWAP2 SUB SWAP1 REVERT JUMPDEST PUSH1 0xE SLOAD PUSH2 0x100 DUP2 DIV PUSH1 0xFF SWAP1 DUP2 AND PUSH3 0x10000 SWAP1 SWAP3 DIV AND EQ PUSH2 0x1BF1 JUMPI PUSH1 0x40 MLOAD PUSH32 0x28132A6200000000000000000000000000000000000000000000000000000000 DUP2 MSTORE PUSH1 0x4 ADD PUSH1 0x40 MLOAD DUP1 SWAP2 SUB SWAP1 REVERT JUMPDEST DUP2 PUSH6 0xFFFFFFFFFFFF AND PUSH1 0x0 SUB PUSH2 0x1C33 JUMPI PUSH1 0x40 MLOAD PUSH32 0xCCFAD01800000000000000000000000000000000000000000000000000000000 DUP2 MSTORE PUSH1 0x4 ADD PUSH1 0x40 MLOAD DUP1 SWAP2 SUB SWAP1 REVERT JUMPDEST CALLER PUSH1 0x0 SWAP1 DUP2 MSTORE PUSH1 0x6 PUSH1 0x20 MSTORE PUSH1 0x40 DUP2 KECCAK256 SLOAD PUSH1 0xC0 SHR PUSH1 0xE SLOAD SWAP1 SWAP2 POP PUSH1 0xC DUP3 SWAP1 SHR PUSH1 0xF AND SWAP1 PUSH1 0xFF AND PUSH2 0x1C6A PUSH6 0xFFFFFFFFFFFF DUP7 AND DUP4 PUSH2 0x31F6 JUMP JUMPDEST PUSH8 0xFFFFFFFFFFFFFFFF AND GT ISZERO PUSH2 0x1CAC JUMPI PUSH1 0x40 MLOAD PUSH32 0x26F890C400000000000000000000000000000000000000000000000000000000 DUP2 MSTORE PUSH1 0x4 ADD PUSH1 0x40 MLOAD DUP1 SWAP2 SUB SWAP1 REVERT JUMPDEST PUSH1 0xA SLOAD PUSH2 0x1CC1 SWAP1 PUSH6 0xFFFFFFFFFFFF DUP7 AND PUSH2 0x3217 JUMP JUMPDEST CALLVALUE LT ISZERO PUSH2 0x1CFA JUMPI PUSH1 0x40 MLOAD PUSH32 0x356680B700000000000000000000000000000000000000000000000000000000 DUP2 MSTORE PUSH1 0x4 ADD PUSH1 0x40 MLOAD DUP1 SWAP2 SUB SWAP1 REVERT JUMPDEST PUSH2 0x1D0C CALLER DUP6 PUSH6 0xFFFFFFFFFFFF AND PUSH2 0x27C5 JUMP JUMPDEST PUSH1 0x0 PUSH2 0x1D24 PUSH6 0xFFFFFFFFF000 PUSH1 0xC DUP8 SWAP1 SHL AND DUP5 PUSH2 0x31F6 JUMP JUMPDEST SWAP1 POP PUSH1 0x0 DUP6 PUSH6 0xFFFFFFFFFFFF AND PUSH32 0xD5A06AB27FDA8C8F87B18FC92D660297A64163493811B3877B0B77232EBCF01F PUSH1 0x40 MLOAD PUSH1 0x40 MLOAD DUP1 SWAP2 SUB SWAP1 LOG3 CALLER PUSH1 0x0 SWAP1 DUP2 MSTORE PUSH1 0x6 PUSH1 0x20 MSTORE PUSH1 0x40 SWAP1 KECCAK256 DUP1 SLOAD PUSH24 0xFFFFFFFFFFFFFFFFFFFFFFFFFFFFFFFFFFFFFFFFFFFFFFFF AND PUSH1 0xC0 DUP4 SWAP1 SHL OR SWAP1 SSTORE PUSH1 0xC DUP1 SLOAD DUP7 SWAP2 SWAP1 PUSH1 0x0 SWAP1 PUSH2 0x1DAD SWAP1 DUP5 SWAP1 PUSH6 0xFFFFFFFFFFFF AND PUSH2 0x31D0 JUMP JUMPDEST SWAP3 POP PUSH2 0x100 EXP DUP2 SLOAD DUP2 PUSH6 0xFFFFFFFFFFFF MUL NOT AND SWAP1 DUP4 PUSH6 0xFFFFFFFFFFFF AND MUL OR SWAP1 SSTORE POP POP POP POP POP POP JUMP JUMPDEST PUSH2 0x1DE1 DUP5 DUP5 DUP5 PUSH2 0xEDE JUMP JUMPDEST PUSH20 0xFFFFFFFFFFFFFFFFFFFFFFFFFFFFFFFFFFFFFFFF DUP4 AND EXTCODESIZE ISZERO PUSH2 0xACF JUMPI PUSH2 0x1E0A DUP5 DUP5 DUP5 DUP5 PUSH2 0x2992 JUMP JUMPDEST PUSH2 0xACF JUMPI PUSH1 0x40 MLOAD PUSH32 0xD1A57ED600000000000000000000000000000000000000000000000000000000 DUP2 MSTORE PUSH1 0x4 ADD PUSH1 0x40 MLOAD DUP1 SWAP2 SUB SWAP1 REVERT JUMPDEST PUSH1 0x60 PUSH2 0x1E4B DUP3 PUSH2 0x2451 JUMP JUMPDEST PUSH2 0x1E81 JUMPI PUSH1 0x40 MLOAD PUSH32 0xA14C4B5000000000000000000000000000000000000000000000000000000000 DUP2 MSTORE PUSH1 0x4 ADD PUSH1 0x40 MLOAD DUP1 SWAP2 SUB SWAP1 REVERT JUMPDEST PUSH1 0x0 PUSH2 0x1E8B PUSH2 0x2AEA JUMP JUMPDEST SWAP1 POP DUP1 MLOAD PUSH1 0x0 SUB PUSH2 0x1EAB JUMPI PUSH1 0x40 MLOAD DUP1 PUSH1 0x20 ADD PUSH1 0x40 MSTORE DUP1 PUSH1 0x0 DUP2 MSTORE POP PUSH2 0x1ED6 JUMP JUMPDEST DUP1 PUSH2 0x1EB5 DUP5 PUSH2 0x2AF9 JUMP JUMPDEST PUSH1 0x40 MLOAD PUSH1 0x20 ADD PUSH2 0x1EC6 SWAP3 SWAP2 SWAP1 PUSH2 0x322E JUMP JUMPDEST PUSH1 0x40 MLOAD PUSH1 0x20 DUP2 DUP4 SUB SUB DUP2 MSTORE SWAP1 PUSH1 0x40 MSTORE JUMPDEST SWAP4 SWAP3 POP POP POP JUMP JUMPDEST PUSH2 0x1EE5 PUSH2 0x23D0 JUMP JUMPDEST PUSH2 0x1EEE DUP2 PUSH1 0x0 SSTORE JUMP JUMPDEST PUSH1 0x40 MLOAD DUP2 SWAP1 PUSH32 0x1533478951372138A2194C99334F1967A30665DA490F70902DF4770BEEE3567 SWAP1 PUSH1 0x0 SWAP1 LOG2 POP JUMP JUMPDEST PUSH20 0xFFFFFFFFFFFFFFFFFFFFFFFFFFFFFFFFFFFFFFFF DUP2 AND PUSH1 0x0 SWAP1 DUP2 MSTORE PUSH1 0x6 PUSH1 0x20 MSTORE PUSH1 0x40 DUP1 DUP3 KECCAK256 SLOAD PUSH8 0xFFFFFFFFFFFFFFFF SWAP2 SHR AND PUSH2 0xBB4 JUMP JUMPDEST PUSH1 0xF DUP1 SLOAD PUSH2 0x1F61 SWAP1 PUSH2 0x3037 JUMP JUMPDEST DUP1 PUSH1 0x1F ADD PUSH1 0x20 DUP1 SWAP2 DIV MUL PUSH1 0x20 ADD PUSH1 0x40 MLOAD SWAP1 DUP2 ADD PUSH1 0x40 MSTORE DUP1 SWAP3 SWAP2 SWAP1 DUP2 DUP2 MSTORE PUSH1 0x20 ADD DUP3 DUP1 SLOAD PUSH2 0x1F8D SWAP1 PUSH2 0x3037 JUMP JUMPDEST DUP1 ISZERO PUSH2 0x1FDA JUMPI DUP1 PUSH1 0x1F LT PUSH2 0x1FAF JUMPI PUSH2 0x100 DUP1 DUP4 SLOAD DIV MUL DUP4 MSTORE SWAP2 PUSH1 0x20 ADD SWAP2 PUSH2 0x1FDA JUMP JUMPDEST DUP3 ADD SWAP2 SWAP1 PUSH1 0x0 MSTORE PUSH1 0x20 PUSH1 0x0 KECCAK256 SWAP1 JUMPDEST DUP2 SLOAD DUP2 MSTORE SWAP1 PUSH1 0x1 ADD SWAP1 PUSH1 0x20 ADD DUP1 DUP4 GT PUSH2 0x1FBD JUMPI DUP3 SWAP1 SUB PUSH1 0x1F AND DUP3 ADD SWAP2 JUMPDEST POP POP POP POP POP DUP2 JUMP JUMPDEST ORIGIN CALLER EQ PUSH2 0x201B JUMPI PUSH1 0x40 MLOAD PUSH32 0x7DF1F81700000000000000000000000000000000000000000000000000000000 DUP2 MSTORE PUSH1 0x4 ADD PUSH1 0x40 MLOAD DUP1 SWAP2 SUB SWAP1 REVERT JUMPDEST PUSH1 0xF PUSH1 0x10 DUP3 SWAP1 SHR DUP2 AND SWAP1 PUSH1 0x18 DUP4 SWAP1 SHR AND PUSH2 0xFFF DUP4 AND PUSH1 0x0 DUP2 SWAP1 SUB PUSH2 0x206B JUMPI PUSH1 0x40 MLOAD PUSH32 0xCCFAD01800000000000000000000000000000000000000000000000000000000 DUP2 MSTORE PUSH1 0x4 ADD PUSH1 0x40 MLOAD DUP1 SWAP2 SUB SWAP1 REVERT JUMPDEST PUSH1 0xC SLOAD PUSH2 0x7D0 SWAP1 PUSH2 0x2085 SWAP1 DUP4 SWAP1 PUSH6 0xFFFFFFFFFFFF AND PUSH2 0x31D0 JUMP JUMPDEST PUSH6 0xFFFFFFFFFFFF AND GT ISZERO PUSH2 0x20C5 JUMPI PUSH1 0x40 MLOAD PUSH32 0x7870189600000000000000000000000000000000000000000000000000000000 DUP2 MSTORE PUSH1 0x4 ADD PUSH1 0x40 MLOAD DUP1 SWAP2 SUB SWAP1 REVERT JUMPDEST PUSH1 0x40 DUP1 MLOAD PUSH32 0xFFFFFFFFFFFFFFFFFFFFFFFFFFFFFFFFFFFFFFFF000000000000000000000000 CALLER PUSH1 0x60 SHL AND PUSH1 0x20 DUP3 ADD MSTORE PUSH32 0xFFFFFFFFFFFF0000000000000000000000000000000000000000000000000000 PUSH1 0xD0 DUP7 DUP2 SHL DUP3 AND PUSH1 0x34 DUP5 ADD MSTORE DUP6 SWAP1 SHL AND PUSH1 0x3A DUP3 ADD MSTORE PUSH1 0x0 SWAP2 ADD PUSH1 0x40 MLOAD PUSH1 0x20 DUP2 DUP4 SUB SUB DUP2 MSTORE SWAP1 PUSH1 0x40 MSTORE DUP1 MLOAD SWAP1 PUSH1 0x20 ADD KECCAK256 SWAP1 POP PUSH2 0x2154 DUP8 DUP8 PUSH1 0x10 SLOAD DUP5 PUSH2 0x2903 JUMP JUMPDEST PUSH2 0x218A JUMPI PUSH1 0x40 MLOAD PUSH32 0xB05E92FA00000000000000000000000000000000000000000000000000000000 DUP2 MSTORE PUSH1 0x4 ADD PUSH1 0x40 MLOAD DUP1 SWAP2 SUB SWAP1 REVERT JUMPDEST PUSH1 0xE SLOAD PUSH2 0x100 SWAP1 DIV PUSH1 0xFF AND PUSH6 0xFFFFFFFFFFFF DUP5 AND EQ PUSH2 0x21D5 JUMPI PUSH1 0x40 MLOAD PUSH32 0x28132A6200000000000000000000000000000000000000000000000000000000 DUP2 MSTORE PUSH1 0x4 ADD PUSH1 0x40 MLOAD DUP1 SWAP2 SUB SWAP1 REVERT JUMPDEST PUSH1 0xE SLOAD PUSH2 0x100 DUP2 DIV PUSH1 0xFF SWAP1 DUP2 AND PUSH6 0x10000000000 SWAP1 SWAP3 DIV AND EQ PUSH2 0x2224 JUMPI PUSH1 0x40 MLOAD PUSH32 0x28132A6200000000000000000000000000000000000000000000000000000000 DUP2 MSTORE PUSH1 0x4 ADD PUSH1 0x40 MLOAD DUP1 SWAP2 SUB SWAP1 REVERT JUMPDEST CALLER PUSH1 0x0 SWAP1 DUP2 MSTORE PUSH1 0x6 PUSH1 0x20 MSTORE PUSH1 0x40 DUP2 KECCAK256 SLOAD PUSH1 0xC0 SHR SWAP1 POP PUSH1 0x8 DUP2 SWAP1 SHR PUSH1 0xF AND PUSH6 0xFFFFFFFFFFFF DUP7 DUP2 AND SWAP1 PUSH2 0x2258 SWAP1 DUP7 AND DUP4 PUSH2 0x31F6 JUMP JUMPDEST PUSH8 0xFFFFFFFFFFFFFFFF AND GT ISZERO PUSH2 0x229A JUMPI PUSH1 0x40 MLOAD PUSH32 0x26F890C400000000000000000000000000000000000000000000000000000000 DUP2 MSTORE PUSH1 0x4 ADD PUSH1 0x40 MLOAD DUP1 SWAP2 SUB SWAP1 REVERT JUMPDEST PUSH2 0x22AC CALLER DUP6 PUSH6 0xFFFFFFFFFFFF AND PUSH2 0x27C5 JUMP JUMPDEST PUSH1 0x0 PUSH2 0x1771 PUSH6 0xFFFFFFFFFF00 PUSH1 0x8 DUP8 SWAP1 SHL AND DUP5 PUSH2 0x31F6 JUMP JUMPDEST PUSH2 0x22CC PUSH2 0x23D0 JUMP JUMPDEST PUSH1 0xE SLOAD PUSH2 0x100 SWAP1 DIV PUSH1 0xFF SWAP1 DUP2 AND DUP2 DUP4 AND SHR SWAP1 DUP2 AND PUSH1 0x0 SUB PUSH2 0x1A6C JUMPI PUSH1 0x40 MLOAD PUSH32 0xC665121C00000000000000000000000000000000000000000000000000000000 DUP2 MSTORE PUSH1 0x4 ADD PUSH1 0x40 MLOAD DUP1 SWAP2 SUB SWAP1 REVERT JUMPDEST PUSH2 0x2321 PUSH2 0x23D0 JUMP JUMPDEST PUSH20 0xFFFFFFFFFFFFFFFFFFFFFFFFFFFFFFFFFFFFFFFF DUP2 AND PUSH2 0x23C4 JUMPI PUSH1 0x40 MLOAD PUSH32 0x8C379A000000000000000000000000000000000000000000000000000000000 DUP2 MSTORE PUSH1 0x20 PUSH1 0x4 DUP3 ADD MSTORE PUSH1 0x26 PUSH1 0x24 DUP3 ADD MSTORE PUSH32 0x4F776E61626C653A206E6577206F776E657220697320746865207A65726F2061 PUSH1 0x44 DUP3 ADD MSTORE PUSH32 0x6464726573730000000000000000000000000000000000000000000000000000 PUSH1 0x64 DUP3 ADD MSTORE PUSH1 0x84 ADD PUSH2 0x1B9C JUMP JUMPDEST PUSH2 0x23CD DUP2 PUSH2 0x291B JUMP JUMPDEST POP JUMP JUMPDEST PUSH1 0x9 SLOAD PUSH20 0xFFFFFFFFFFFFFFFFFFFFFFFFFFFFFFFFFFFFFFFF AND CALLER EQ PUSH2 0x18C3 JUMPI PUSH1 0x40 MLOAD PUSH32 0x8C379A000000000000000000000000000000000000000000000000000000000 DUP2 MSTORE PUSH1 0x20 PUSH1 0x4 DUP3 ADD DUP2 SWAP1 MSTORE PUSH1 0x24 DUP3 ADD MSTORE PUSH32 0x4F776E61626C653A2063616C6C6572206973206E6F7420746865206F776E6572 PUSH1 0x44 DUP3 ADD MSTORE PUSH1 0x64 ADD PUSH2 0x1B9C JUMP JUMPDEST PUSH1 0x0 PUSH1 0x1 SLOAD DUP3 LT DUP1 ISZERO PUSH2 0xBB4 JUMPI POP POP PUSH1 0x0 SWAP1 DUP2 MSTORE PUSH1 0x5 PUSH1 0x20 MSTORE PUSH1 0x40 SWAP1 KECCAK256 SLOAD PUSH29 0x100000000000000000000000000000000000000000000000000000000 AND ISZERO SWAP1 JUMP JUMPDEST PUSH1 0x0 DUP2 PUSH1 0x1 SLOAD DUP2 LT ISZERO PUSH2 0x24F9 JUMPI PUSH1 0x0 DUP2 DUP2 MSTORE PUSH1 0x5 PUSH1 0x20 MSTORE PUSH1 0x40 DUP2 KECCAK256 SLOAD SWAP1 PUSH29 0x100000000000000000000000000000000000000000000000000000000 DUP3 AND SWAP1 SUB PUSH2 0x24F7 JUMPI JUMPDEST DUP1 PUSH1 0x0 SUB PUSH2 0x1ED6 JUMPI POP PUSH1 0x0 NOT ADD PUSH1 0x0 DUP2 DUP2 MSTORE PUSH1 0x5 PUSH1 0x20 MSTORE PUSH1 0x40 SWAP1 KECCAK256 SLOAD PUSH2 0x24D6 JUMP JUMPDEST POP JUMPDEST PUSH1 0x40 MLOAD PUSH32 0xDF2D9B4200000000000000000000000000000000000000000000000000000000 DUP2 MSTORE PUSH1 0x4 ADD PUSH1 0x40 MLOAD DUP1 SWAP2 SUB SWAP1 REVERT JUMPDEST PUSH1 0x0 DUP1 PUSH2 0x2537 DUP4 PUSH2 0x1431 JUMP JUMPDEST SWAP1 POP DUP1 PUSH20 0xFFFFFFFFFFFFFFFFFFFFFFFFFFFFFFFFFFFFFFFF AND DUP5 PUSH20 0xFFFFFFFFFFFFFFFFFFFFFFFFFFFFFFFFFFFFFFFF AND EQ DUP1 PUSH2 0x25A5 JUMPI POP PUSH20 0xFFFFFFFFFFFFFFFFFFFFFFFFFFFFFFFFFFFFFFFF DUP1 DUP3 AND PUSH1 0x0 SWAP1 DUP2 MSTORE PUSH1 0x8 PUSH1 0x20 SWAP1 DUP2 MSTORE PUSH1 0x40 DUP1 DUP4 KECCAK256 SWAP4 DUP9 AND DUP4 MSTORE SWAP3 SWAP1 MSTORE KECCAK256 SLOAD PUSH1 0xFF AND JUMPDEST DUP1 PUSH2 0x25E3 JUMPI POP DUP4 PUSH20 0xFFFFFFFFFFFFFFFFFFFFFFFFFFFFFFFFFFFFFFFF AND PUSH2 0x25CB DUP5 PUSH2 0xCA6 JUMP JUMPDEST PUSH20 0xFFFFFFFFFFFFFFFFFFFFFFFFFFFFFFFFFFFFFFFF AND EQ JUMPDEST SWAP5 SWAP4 POP POP POP POP JUMP JUMPDEST PUSH1 0x0 PUSH2 0x25F6 DUP4 PUSH2 0x2492 JUMP JUMPDEST SWAP1 POP DUP1 PUSH1 0x0 DUP1 PUSH2 0x2614 DUP7 PUSH1 0x0 SWAP1 DUP2 MSTORE PUSH1 0x7 PUSH1 0x20 MSTORE PUSH1 0x40 SWAP1 KECCAK256 DUP1 SLOAD SWAP1 SWAP2 JUMP JUMPDEST SWAP2 POP SWAP2 POP DUP5 ISZERO PUSH2 0x2697 JUMPI PUSH2 0x2629 DUP2 DUP5 CALLER PUSH2 0xF67 JUMP JUMPDEST PUSH2 0x2697 JUMPI PUSH20 0xFFFFFFFFFFFFFFFFFFFFFFFFFFFFFFFFFFFFFFFF DUP4 AND PUSH1 0x0 SWAP1 DUP2 MSTORE PUSH1 0x8 PUSH1 0x20 SWAP1 DUP2 MSTORE PUSH1 0x40 DUP1 DUP4 KECCAK256 CALLER DUP5 MSTORE SWAP1 SWAP2 MSTORE SWAP1 KECCAK256 SLOAD PUSH1 0xFF AND PUSH2 0x2697 JUMPI PUSH1 0x40 MLOAD PUSH32 0x59C896BE00000000000000000000000000000000000000000000000000000000 DUP2 MSTORE PUSH1 0x4 ADD PUSH1 0x40 MLOAD DUP1 SWAP2 SUB SWAP1 REVERT JUMPDEST DUP1 ISZERO PUSH2 0x26A2 JUMPI PUSH1 0x0 DUP3 SSTORE JUMPDEST PUSH20 0xFFFFFFFFFFFFFFFFFFFFFFFFFFFFFFFFFFFFFFFF DUP4 AND PUSH1 0x0 DUP2 DUP2 MSTORE PUSH1 0x6 PUSH1 0x20 MSTORE PUSH1 0x40 SWAP1 KECCAK256 DUP1 SLOAD PUSH16 0xFFFFFFFFFFFFFFFFFFFFFFFFFFFFFFFF ADD SWAP1 SSTORE TIMESTAMP PUSH1 0xA0 SHL OR PUSH29 0x300000000000000000000000000000000000000000000000000000000 OR PUSH1 0x0 DUP8 DUP2 MSTORE PUSH1 0x5 PUSH1 0x20 MSTORE PUSH1 0x40 DUP2 KECCAK256 SWAP2 SWAP1 SWAP2 SSTORE PUSH29 0x200000000000000000000000000000000000000000000000000000000 DUP6 AND SWAP1 SUB PUSH2 0x276F JUMPI PUSH1 0x1 DUP7 ADD PUSH1 0x0 DUP2 DUP2 MSTORE PUSH1 0x5 PUSH1 0x20 MSTORE PUSH1 0x40 DUP2 KECCAK256 SLOAD SWAP1 SUB PUSH2 0x276D JUMPI PUSH1 0x1 SLOAD DUP2 EQ PUSH2 0x276D JUMPI PUSH1 0x0 DUP2 DUP2 MSTORE PUSH1 0x5 PUSH1 0x20 MSTORE PUSH1 0x40 SWAP1 KECCAK256 DUP6 SWAP1 SSTORE JUMPDEST POP JUMPDEST PUSH1 0x40 MLOAD DUP7 SWAP1 PUSH1 0x0 SWAP1 PUSH20 0xFFFFFFFFFFFFFFFFFFFFFFFFFFFFFFFFFFFFFFFF DUP7 AND SWAP1 PUSH32 0xDDF252AD1BE2C89B69C2B068FC378DAA952BA7F163C4A11628F55A4DF523B3EF SWAP1 DUP4 SWAP1 LOG4 POP POP PUSH1 0x2 DUP1 SLOAD PUSH1 0x1 ADD SWAP1 SSTORE POP POP POP POP JUMP JUMPDEST PUSH1 0x1 SLOAD PUSH1 0x0 DUP3 SWAP1 SUB PUSH2 0x2803 JUMPI PUSH1 0x40 MLOAD PUSH32 0xB562E8DD00000000000000000000000000000000000000000000000000000000 DUP2 MSTORE PUSH1 0x4 ADD PUSH1 0x40 MLOAD DUP1 SWAP2 SUB SWAP1 REVERT JUMPDEST PUSH20 0xFFFFFFFFFFFFFFFFFFFFFFFFFFFFFFFFFFFFFFFF DUP4 AND PUSH1 0x0 DUP2 DUP2 MSTORE PUSH1 0x6 PUSH1 0x20 SWAP1 DUP2 MSTORE PUSH1 0x40 DUP1 DUP4 KECCAK256 DUP1 SLOAD PUSH9 0x10000000000000001 DUP9 MUL ADD SWAP1 SSTORE DUP5 DUP4 MSTORE PUSH1 0x5 SWAP1 SWAP2 MSTORE DUP2 KECCAK256 PUSH1 0x1 DUP6 EQ PUSH1 0xE1 SHL TIMESTAMP PUSH1 0xA0 SHL OR DUP4 OR SWAP1 SSTORE DUP3 DUP5 ADD SWAP1 DUP4 SWAP1 DUP4 SWAP1 PUSH32 0xDDF252AD1BE2C89B69C2B068FC378DAA952BA7F163C4A11628F55A4DF523B3EF DUP2 DUP1 LOG4 PUSH1 0x1 DUP4 ADD JUMPDEST DUP2 DUP2 EQ PUSH2 0x28BF JUMPI DUP1 DUP4 PUSH1 0x0 PUSH32 0xDDF252AD1BE2C89B69C2B068FC378DAA952BA7F163C4A11628F55A4DF523B3EF PUSH1 0x0 DUP1 LOG4 PUSH1 0x1 ADD PUSH2 0x2887 JUMP JUMPDEST POP DUP2 PUSH1 0x0 SUB PUSH2 0x28FA JUMPI PUSH1 0x40 MLOAD PUSH32 0x2E07630000000000000000000000000000000000000000000000000000000000 DUP2 MSTORE PUSH1 0x4 ADD PUSH1 0x40 MLOAD DUP1 SWAP2 SUB SWAP1 REVERT JUMPDEST PUSH1 0x1 SSTORE POP POP POP POP JUMP JUMPDEST PUSH1 0x0 DUP3 PUSH2 0x2911 DUP7 DUP7 DUP6 PUSH2 0x2B3D JUMP JUMPDEST EQ SWAP6 SWAP5 POP POP POP POP POP JUMP JUMPDEST PUSH1 0x9 DUP1 SLOAD PUSH20 0xFFFFFFFFFFFFFFFFFFFFFFFFFFFFFFFFFFFFFFFF DUP4 DUP2 AND PUSH32 0xFFFFFFFFFFFFFFFFFFFFFFFF0000000000000000000000000000000000000000 DUP4 AND DUP2 OR SWAP1 SWAP4 SSTORE PUSH1 0x40 MLOAD SWAP2 AND SWAP2 SWAP1 DUP3 SWAP1 PUSH32 0x8BE0079C531659141344CD1FD0A4F28419497F9722A3DAAFE3B4186F6B6457E0 SWAP1 PUSH1 0x0 SWAP1 LOG3 POP POP JUMP JUMPDEST PUSH1 0x40 MLOAD PUSH32 0x150B7A0200000000000000000000000000000000000000000000000000000000 DUP2 MSTORE PUSH1 0x0 SWAP1 PUSH20 0xFFFFFFFFFFFFFFFFFFFFFFFFFFFFFFFFFFFFFFFF DUP6 AND SWAP1 PUSH4 0x150B7A02 SWAP1 PUSH2 0x29ED SWAP1 CALLER SWAP1 DUP10 SWAP1 DUP9 SWAP1 DUP9 SWAP1 PUSH1 0x4 ADD PUSH2 0x325D JUMP JUMPDEST PUSH1 0x20 PUSH1 0x40 MLOAD DUP1 DUP4 SUB DUP2 PUSH1 0x0 DUP8 GAS CALL SWAP3 POP POP POP DUP1 ISZERO PUSH2 0x2A28 JUMPI POP PUSH1 0x40 DUP1 MLOAD PUSH1 0x1F RETURNDATASIZE SWAP1 DUP2 ADD PUSH1 0x1F NOT AND DUP3 ADD SWAP1 SWAP3 MSTORE PUSH2 0x2A25 SWAP2 DUP2 ADD SWAP1 PUSH2 0x32A6 JUMP JUMPDEST PUSH1 0x1 JUMPDEST PUSH2 0x2A9F JUMPI RETURNDATASIZE DUP1 DUP1 ISZERO PUSH2 0x2A56 JUMPI PUSH1 0x40 MLOAD SWAP2 POP PUSH1 0x1F NOT PUSH1 0x3F RETURNDATASIZE ADD AND DUP3 ADD PUSH1 0x40 MSTORE RETURNDATASIZE DUP3 MSTORE RETURNDATASIZE PUSH1 0x0 PUSH1 0x20 DUP5 ADD RETURNDATACOPY PUSH2 0x2A5B JUMP JUMPDEST PUSH1 0x60 SWAP2 POP JUMPDEST POP DUP1 MLOAD PUSH1 0x0 SUB PUSH2 0x2A97 JUMPI PUSH1 0x40 MLOAD PUSH32 0xD1A57ED600000000000000000000000000000000000000000000000000000000 DUP2 MSTORE PUSH1 0x4 ADD PUSH1 0x40 MLOAD DUP1 SWAP2 SUB SWAP1 REVERT JUMPDEST DUP1 MLOAD DUP2 PUSH1 0x20 ADD REVERT JUMPDEST PUSH32 0xFFFFFFFF00000000000000000000000000000000000000000000000000000000 AND PUSH32 0x150B7A0200000000000000000000000000000000000000000000000000000000 EQ SWAP1 POP PUSH2 0x25E3 JUMP JUMPDEST PUSH1 0x60 PUSH1 0xF DUP1 SLOAD PUSH2 0xC23 SWAP1 PUSH2 0x3037 JUMP JUMPDEST PUSH1 0x60 PUSH1 0xA0 PUSH1 0x40 MLOAD ADD DUP1 PUSH1 0x40 MSTORE PUSH1 0x20 DUP2 SUB SWAP2 POP POP PUSH1 0x0 DUP2 MSTORE DUP1 DUP3 JUMPDEST PUSH1 0x1 DUP4 SUB SWAP3 POP PUSH1 0xA DUP2 MOD PUSH1 0x30 ADD DUP4 MSTORE8 PUSH1 0xA SWAP1 DIV DUP1 PUSH2 0x2B13 JUMPI POP DUP2 SWAP1 SUB PUSH1 0x1F NOT SWAP1 SWAP2 ADD SWAP1 DUP2 MSTORE SWAP2 SWAP1 POP JUMP JUMPDEST PUSH1 0x0 DUP2 DUP2 JUMPDEST DUP5 DUP2 LT ISZERO PUSH2 0x2B80 JUMPI PUSH2 0x2B6C DUP3 DUP8 DUP8 DUP5 DUP2 DUP2 LT PUSH2 0x2B60 JUMPI PUSH2 0x2B60 PUSH2 0x32C3 JUMP JUMPDEST SWAP1 POP PUSH1 0x20 MUL ADD CALLDATALOAD PUSH2 0x2B89 JUMP JUMPDEST SWAP2 POP DUP1 PUSH2 0x2B78 DUP2 PUSH2 0x32F2 JUMP JUMPDEST SWAP2 POP POP PUSH2 0x2B42 JUMP JUMPDEST POP SWAP5 SWAP4 POP POP POP POP JUMP JUMPDEST PUSH1 0x0 DUP2 DUP4 LT PUSH2 0x2BA5 JUMPI PUSH1 0x0 DUP3 DUP2 MSTORE PUSH1 0x20 DUP5 SWAP1 MSTORE PUSH1 0x40 SWAP1 KECCAK256 PUSH2 0x1ED6 JUMP JUMPDEST POP PUSH1 0x0 SWAP2 DUP3 MSTORE PUSH1 0x20 MSTORE PUSH1 0x40 SWAP1 KECCAK256 SWAP1 JUMP JUMPDEST DUP1 CALLDATALOAD PUSH20 0xFFFFFFFFFFFFFFFFFFFFFFFFFFFFFFFFFFFFFFFF DUP2 AND DUP2 EQ PUSH2 0x2BD9 JUMPI PUSH1 0x0 DUP1 REVERT JUMPDEST SWAP2 SWAP1 POP JUMP JUMPDEST PUSH1 0x0 DUP1 PUSH1 0x40 DUP4 DUP6 SUB SLT ISZERO PUSH2 0x2BF1 JUMPI PUSH1 0x0 DUP1 REVERT JUMPDEST DUP3 CALLDATALOAD SWAP2 POP PUSH2 0x2C01 PUSH1 0x20 DUP5 ADD PUSH2 0x2BB5 JUMP JUMPDEST SWAP1 POP SWAP3 POP SWAP3 SWAP1 POP JUMP JUMPDEST PUSH32 0xFFFFFFFF00000000000000000000000000000000000000000000000000000000 DUP2 AND DUP2 EQ PUSH2 0x23CD JUMPI PUSH1 0x0 DUP1 REVERT JUMPDEST PUSH1 0x0 PUSH1 0x20 DUP3 DUP5 SUB SLT ISZERO PUSH2 0x2C4A JUMPI PUSH1 0x0 DUP1 REVERT JUMPDEST DUP2 CALLDATALOAD PUSH2 0x1ED6 DUP2 PUSH2 0x2C0A JUMP JUMPDEST PUSH1 0x0 DUP1 PUSH1 0x20 DUP4 DUP6 SUB SLT ISZERO PUSH2 0x2C68 JUMPI PUSH1 0x0 DUP1 REVERT JUMPDEST DUP3 CALLDATALOAD PUSH8 0xFFFFFFFFFFFFFFFF DUP1 DUP3 GT ISZERO PUSH2 0x2C80 JUMPI PUSH1 0x0 DUP1 REVERT JUMPDEST DUP2 DUP6 ADD SWAP2 POP DUP6 PUSH1 0x1F DUP4 ADD SLT PUSH2 0x2C94 JUMPI PUSH1 0x0 DUP1 REVERT JUMPDEST DUP2 CALLDATALOAD DUP2 DUP2 GT ISZERO PUSH2 0x2CA3 JUMPI PUSH1 0x0 DUP1 REVERT JUMPDEST DUP7 PUSH1 0x20 DUP3 DUP6 ADD ADD GT ISZERO PUSH2 0x2CB5 JUMPI PUSH1 0x0 DUP1 REVERT JUMPDEST PUSH1 0x20 SWAP3 SWAP1 SWAP3 ADD SWAP7 SWAP2 SWAP6 POP SWAP1 SWAP4 POP POP POP POP JUMP JUMPDEST PUSH1 0x0 JUMPDEST DUP4 DUP2 LT ISZERO PUSH2 0x2CE2 JUMPI DUP2 DUP2 ADD MLOAD DUP4 DUP3 ADD MSTORE PUSH1 0x20 ADD PUSH2 0x2CCA JUMP JUMPDEST POP POP PUSH1 0x0 SWAP2 ADD MSTORE JUMP JUMPDEST PUSH1 0x0 DUP2 MLOAD DUP1 DUP5 MSTORE PUSH2 0x2D03 DUP2 PUSH1 0x20 DUP7 ADD PUSH1 0x20 DUP7 ADD PUSH2 0x2CC7 JUMP JUMPDEST PUSH1 0x1F ADD PUSH1 0x1F NOT AND SWAP3 SWAP1 SWAP3 ADD PUSH1 0x20 ADD SWAP3 SWAP2 POP POP JUMP JUMPDEST PUSH1 0x20 DUP2 MSTORE PUSH1 0x0 PUSH2 0x1ED6 PUSH1 0x20 DUP4 ADD DUP5 PUSH2 0x2CEB JUMP JUMPDEST PUSH1 0x0 PUSH1 0x20 DUP3 DUP5 SUB SLT ISZERO PUSH2 0x2D3C JUMPI PUSH1 0x0 DUP1 REVERT JUMPDEST POP CALLDATALOAD SWAP2 SWAP1 POP JUMP JUMPDEST PUSH1 0x0 DUP1 PUSH1 0x40 DUP4 DUP6 SUB SLT ISZERO PUSH2 0x2D56 JUMPI PUSH1 0x0 DUP1 REVERT JUMPDEST PUSH2 0x2D5F DUP4 PUSH2 0x2BB5 JUMP JUMPDEST SWAP5 PUSH1 0x20 SWAP4 SWAP1 SWAP4 ADD CALLDATALOAD SWAP4 POP POP POP JUMP JUMPDEST PUSH1 0x0 PUSH1 0x20 DUP3 DUP5 SUB SLT ISZERO PUSH2 0x2D7F JUMPI PUSH1 0x0 DUP1 REVERT JUMPDEST PUSH2 0x1ED6 DUP3 PUSH2 0x2BB5 JUMP JUMPDEST PUSH1 0x0 DUP1 PUSH1 0x0 PUSH1 0x60 DUP5 DUP7 SUB SLT ISZERO PUSH2 0x2D9D JUMPI PUSH1 0x0 DUP1 REVERT JUMPDEST PUSH2 0x2DA6 DUP5 PUSH2 0x2BB5 JUMP JUMPDEST SWAP3 POP PUSH2 0x2DB4 PUSH1 0x20 DUP6 ADD PUSH2 0x2BB5 JUMP JUMPDEST SWAP2 POP PUSH1 0x40 DUP5 ADD CALLDATALOAD SWAP1 POP SWAP3 POP SWAP3 POP SWAP3 JUMP JUMPDEST DUP1 CALLDATALOAD PUSH6 0xFFFFFFFFFFFF DUP2 AND DUP2 EQ PUSH2 0x2BD9 JUMPI PUSH1 0x0 DUP1 REVERT JUMPDEST PUSH1 0x0 DUP1 PUSH1 0x40 DUP4 DUP6 SUB SLT ISZERO PUSH2 0x2DED JUMPI PUSH1 0x0 DUP1 REVERT JUMPDEST PUSH2 0x2DF6 DUP4 PUSH2 0x2BB5 JUMP JUMPDEST SWAP2 POP PUSH2 0x2C01 PUSH1 0x20 DUP5 ADD PUSH2 0x2DC4 JUMP JUMPDEST PUSH1 0x0 DUP1 PUSH1 0x0 PUSH1 0x40 DUP5 DUP7 SUB SLT ISZERO PUSH2 0x2E19 JUMPI PUSH1 0x0 DUP1 REVERT JUMPDEST DUP4 CALLDATALOAD PUSH8 0xFFFFFFFFFFFFFFFF DUP1 DUP3 GT ISZERO PUSH2 0x2E31 JUMPI PUSH1 0x0 DUP1 REVERT JUMPDEST DUP2 DUP7 ADD SWAP2 POP DUP7 PUSH1 0x1F DUP4 ADD SLT PUSH2 0x2E45 JUMPI PUSH1 0x0 DUP1 REVERT JUMPDEST DUP2 CALLDATALOAD DUP2 DUP2 GT ISZERO PUSH2 0x2E54 JUMPI PUSH1 0x0 DUP1 REVERT JUMPDEST DUP8 PUSH1 0x20 DUP3 PUSH1 0x5 SHL DUP6 ADD ADD GT ISZERO PUSH2 0x2E69 JUMPI PUSH1 0x0 DUP1 REVERT JUMPDEST PUSH1 0x20 SWAP3 DUP4 ADD SWAP6 POP SWAP4 POP PUSH2 0x2E7F SWAP2 DUP7 ADD SWAP1 POP PUSH2 0x2DC4 JUMP JUMPDEST SWAP1 POP SWAP3 POP SWAP3 POP SWAP3 JUMP JUMPDEST PUSH1 0x0 DUP1 PUSH1 0x40 DUP4 DUP6 SUB SLT ISZERO PUSH2 0x2E9B JUMPI PUSH1 0x0 DUP1 REVERT JUMPDEST PUSH2 0x2EA4 DUP4 PUSH2 0x2BB5 JUMP JUMPDEST SWAP2 POP PUSH1 0x20 DUP4 ADD CALLDATALOAD DUP1 ISZERO ISZERO DUP2 EQ PUSH2 0x2EB9 JUMPI PUSH1 0x0 DUP1 REVERT JUMPDEST DUP1 SWAP2 POP POP SWAP3 POP SWAP3 SWAP1 POP JUMP JUMPDEST PUSH1 0x0 PUSH1 0x20 DUP3 DUP5 SUB SLT ISZERO PUSH2 0x2ED6 JUMPI PUSH1 0x0 DUP1 REVERT JUMPDEST DUP2 CALLDATALOAD PUSH1 0xFF DUP2 AND DUP2 EQ PUSH2 0x1ED6 JUMPI PUSH1 0x0 DUP1 REVERT JUMPDEST PUSH1 0x0 PUSH1 0x20 DUP3 DUP5 SUB SLT ISZERO PUSH2 0x2EF9 JUMPI PUSH1 0x0 DUP1 REVERT JUMPDEST PUSH2 0x1ED6 DUP3 PUSH2 0x2DC4 JUMP JUMPDEST PUSH32 0x4E487B7100000000000000000000000000000000000000000000000000000000 PUSH1 0x0 MSTORE PUSH1 0x41 PUSH1 0x4 MSTORE PUSH1 0x24 PUSH1 0x0 REVERT JUMPDEST PUSH1 0x0 DUP1 PUSH1 0x0 DUP1 PUSH1 0x80 DUP6 DUP8 SUB SLT ISZERO PUSH2 0x2F47 JUMPI PUSH1 0x0 DUP1 REVERT JUMPDEST PUSH2 0x2F50 DUP6 PUSH2 0x2BB5 JUMP JUMPDEST SWAP4 POP PUSH2 0x2F5E PUSH1 0x20 DUP7 ADD PUSH2 0x2BB5 JUMP JUMPDEST SWAP3 POP PUSH1 0x40 DUP6 ADD CALLDATALOAD SWAP2 POP PUSH1 0x60 DUP6 ADD CALLDATALOAD PUSH8 0xFFFFFFFFFFFFFFFF DUP1 DUP3 GT ISZERO PUSH2 0x2F82 JUMPI PUSH1 0x0 DUP1 REVERT JUMPDEST DUP2 DUP8 ADD SWAP2 POP DUP8 PUSH1 0x1F DUP4 ADD SLT PUSH2 0x2F96 JUMPI PUSH1 0x0 DUP1 REVERT JUMPDEST DUP2 CALLDATALOAD DUP2 DUP2 GT ISZERO PUSH2 0x2FA8 JUMPI PUSH2 0x2FA8 PUSH2 0x2F02 JUMP JUMPDEST PUSH1 0x40 MLOAD PUSH1 0x1F DUP3 ADD PUSH1 0x1F NOT SWAP1 DUP2 AND PUSH1 0x3F ADD AND DUP2 ADD SWAP1 DUP4 DUP3 GT DUP2 DUP4 LT OR ISZERO PUSH2 0x2FD0 JUMPI PUSH2 0x2FD0 PUSH2 0x2F02 JUMP JUMPDEST DUP2 PUSH1 0x40 MSTORE DUP3 DUP2 MSTORE DUP11 PUSH1 0x20 DUP5 DUP8 ADD ADD GT ISZERO PUSH2 0x2FE9 JUMPI PUSH1 0x0 DUP1 REVERT JUMPDEST DUP3 PUSH1 0x20 DUP7 ADD PUSH1 0x20 DUP4 ADD CALLDATACOPY PUSH1 0x0 PUSH1 0x20 DUP5 DUP4 ADD ADD MSTORE DUP1 SWAP6 POP POP POP POP POP POP SWAP3 SWAP6 SWAP2 SWAP5 POP SWAP3 POP JUMP JUMPDEST PUSH1 0x0 DUP1 PUSH1 0x40 DUP4 DUP6 SUB SLT ISZERO PUSH2 0x3020 JUMPI PUSH1 0x0 DUP1 REVERT JUMPDEST PUSH2 0x3029 DUP4 PUSH2 0x2BB5 JUMP JUMPDEST SWAP2 POP PUSH2 0x2C01 PUSH1 0x20 DUP5 ADD PUSH2 0x2BB5 JUMP JUMPDEST PUSH1 0x1 DUP2 DUP2 SHR SWAP1 DUP3 AND DUP1 PUSH2 0x304B JUMPI PUSH1 0x7F DUP3 AND SWAP2 POP JUMPDEST PUSH1 0x20 DUP3 LT DUP2 SUB PUSH2 0x3084 JUMPI PUSH32 0x4E487B7100000000000000000000000000000000000000000000000000000000 PUSH1 0x0 MSTORE PUSH1 0x22 PUSH1 0x4 MSTORE PUSH1 0x24 PUSH1 0x0 REVERT JUMPDEST POP SWAP2 SWAP1 POP JUMP JUMPDEST PUSH1 0x1F DUP3 GT ISZERO PUSH2 0x121B JUMPI PUSH1 0x0 DUP2 DUP2 MSTORE PUSH1 0x20 DUP2 KECCAK256 PUSH1 0x1F DUP6 ADD PUSH1 0x5 SHR DUP2 ADD PUSH1 0x20 DUP7 LT ISZERO PUSH2 0x30B1 JUMPI POP DUP1 JUMPDEST PUSH1 0x1F DUP6 ADD PUSH1 0x5 SHR DUP3 ADD SWAP2 POP JUMPDEST DUP2 DUP2 LT ISZERO PUSH2 0x117C JUMPI DUP3 DUP2 SSTORE PUSH1 0x1 ADD PUSH2 0x30BD JUMP JUMPDEST PUSH8 0xFFFFFFFFFFFFFFFF DUP4 GT ISZERO PUSH2 0x30E8 JUMPI PUSH2 0x30E8 PUSH2 0x2F02 JUMP JUMPDEST PUSH2 0x30FC DUP4 PUSH2 0x30F6 DUP4 SLOAD PUSH2 0x3037 JUMP JUMPDEST DUP4 PUSH2 0x308A JUMP JUMPDEST PUSH1 0x0 PUSH1 0x1F DUP5 GT PUSH1 0x1 DUP2 EQ PUSH2 0x3130 JUMPI PUSH1 0x0 DUP6 ISZERO PUSH2 0x3118 JUMPI POP DUP4 DUP3 ADD CALLDATALOAD JUMPDEST PUSH1 0x0 NOT PUSH1 0x3 DUP8 SWAP1 SHL SHR NOT AND PUSH1 0x1 DUP7 SWAP1 SHL OR DUP4 SSTORE PUSH2 0x318A JUMP JUMPDEST PUSH1 0x0 DUP4 DUP2 MSTORE PUSH1 0x20 SWAP1 KECCAK256 PUSH1 0x1F NOT DUP7 AND SWAP1 DUP4 JUMPDEST DUP3 DUP2 LT ISZERO PUSH2 0x3161 JUMPI DUP7 DUP6 ADD CALLDATALOAD DUP3 SSTORE PUSH1 0x20 SWAP5 DUP6 ADD SWAP5 PUSH1 0x1 SWAP1 SWAP3 ADD SWAP2 ADD PUSH2 0x3141 JUMP JUMPDEST POP DUP7 DUP3 LT ISZERO PUSH2 0x317E JUMPI PUSH1 0x0 NOT PUSH1 0xF8 DUP9 PUSH1 0x3 SHL AND SHR NOT DUP5 DUP8 ADD CALLDATALOAD AND DUP2 SSTORE JUMPDEST POP POP PUSH1 0x1 DUP6 PUSH1 0x1 SHL ADD DUP4 SSTORE JUMPDEST POP POP POP POP POP JUMP JUMPDEST DUP2 DUP4 DUP3 CALLDATACOPY PUSH1 0x0 SWAP2 ADD SWAP1 DUP2 MSTORE SWAP2 SWAP1 POP JUMP JUMPDEST PUSH32 0x4E487B7100000000000000000000000000000000000000000000000000000000 PUSH1 0x0 MSTORE PUSH1 0x11 PUSH1 0x4 MSTORE PUSH1 0x24 PUSH1 0x0 REVERT JUMPDEST PUSH6 0xFFFFFFFFFFFF DUP2 DUP2 AND DUP4 DUP3 AND ADD SWAP1 DUP1 DUP3 GT ISZERO PUSH2 0x31EF JUMPI PUSH2 0x31EF PUSH2 0x31A1 JUMP JUMPDEST POP SWAP3 SWAP2 POP POP JUMP JUMPDEST PUSH8 0xFFFFFFFFFFFFFFFF DUP2 DUP2 AND DUP4 DUP3 AND ADD SWAP1 DUP1 DUP3 GT ISZERO PUSH2 0x31EF JUMPI PUSH2 0x31EF PUSH2 0x31A1 JUMP JUMPDEST DUP1 DUP3 MUL DUP2 ISZERO DUP3 DUP3 DIV DUP5 EQ OR PUSH2 0xBB4 JUMPI PUSH2 0xBB4 PUSH2 0x31A1 JUMP JUMPDEST PUSH1 0x0 DUP4 MLOAD PUSH2 0x3240 DUP2 DUP5 PUSH1 0x20 DUP9 ADD PUSH2 0x2CC7 JUMP JUMPDEST DUP4 MLOAD SWAP1 DUP4 ADD SWAP1 PUSH2 0x3254 DUP2 DUP4 PUSH1 0x20 DUP9 ADD PUSH2 0x2CC7 JUMP JUMPDEST ADD SWAP5 SWAP4 POP POP POP POP JUMP JUMPDEST PUSH1 0x0 PUSH20 0xFFFFFFFFFFFFFFFFFFFFFFFFFFFFFFFFFFFFFFFF DUP1 DUP8 AND DUP4 MSTORE DUP1 DUP7 AND PUSH1 0x20 DUP5 ADD MSTORE POP DUP4 PUSH1 0x40 DUP4 ADD MSTORE PUSH1 0x80 PUSH1 0x60 DUP4 ADD MSTORE PUSH2 0x329C PUSH1 0x80 DUP4 ADD DUP5 PUSH2 0x2CEB JUMP JUMPDEST SWAP7 SWAP6 POP POP POP POP POP POP JUMP JUMPDEST PUSH1 0x0 PUSH1 0x20 DUP3 DUP5 SUB SLT ISZERO PUSH2 0x32B8 JUMPI PUSH1 0x0 DUP1 REVERT JUMPDEST DUP2 MLOAD PUSH2 0x1ED6 DUP2 PUSH2 0x2C0A JUMP JUMPDEST PUSH32 0x4E487B7100000000000000000000000000000000000000000000000000000000 PUSH1 0x0 MSTORE PUSH1 0x32 PUSH1 0x4 MSTORE PUSH1 0x24 PUSH1 0x0 REVERT JUMPDEST PUSH1 0x0 PUSH1 0x0 NOT DUP3 SUB PUSH2 0x3305 JUMPI PUSH2 0x3305 PUSH2 0x31A1 JUMP JUMPDEST POP PUSH1 0x1 ADD SWAP1 JUMP INVALID LOG2 PUSH5 0x6970667358 0x22 SLT KECCAK256 BYTE SELFBALANCE PUSH15 0x108F7F45E9CDC456C005636A3F5D41 PUSH6 0x4550CECD0949 0xE2 PUSH22 0xF8901EABEE64736F6C63430008110033000000000000 "
		},
		"gasEstimates": {
			"creation": {
				"codeDepositCost": "2624400",
				"executionCost": "infinite",
				"totalCost": "infinite"
			},
			"external": {
				"ALLOW_LIST_PRICE()": "2363",
				"DEV_LIMIT()": "2414",
				"DISTRICT_BITMASK()": "317",
				"FREE_SALES()": "2438",
				"FreelistClaimed(address)": "2620",
				"MAX_FREE_SUPPLY()": "273",
				"MAX_SUPPLY()": "263",
				"METADATA_URL()": "infinite",
				"PUBLIC_PRICE()": "2428",
				"PUBLIC_SAlES()": "2413",
				"PUBLIC_SUPPLY()": "2403",
				"SALES_PHASE()": "2393",
				"SECTION_BITMASK()": "271",
				"SUPPLY()": "2402",
				"WL_SALES()": "2392",
				"approve(address,uint256)": "infinite",
				"balanceOf(address)": "2627",
				"burn(uint256)": "infinite",
				"demoteSalesPhase(uint8)": "30101",
				"devMint(address,uint48)": "infinite",
				"freeMint(bytes32[],uint48)": "infinite",
				"getApproved(uint256)": "6896",
				"getApprovedStartTime()": "2361",
				"getTime()": "298",
				"isApprovedForAll(address,address)": "infinite",
				"name()": "infinite",
				"numberMinted(address)": "2651",
				"numberMintedFree(address)": "2701",
				"numberMintedPublic(address)": "2701",
				"numberMintedWhiteList(address)": "2680",
				"owner()": "2374",
				"ownerOf(uint256)": "infinite",
				"promoteSalesPhase(uint8)": "30124",
				"publicMint(uint48)": "infinite",
				"renounceOwnership()": "infinite",
				"safeTransferFrom(address,address,uint256)": "infinite",
				"safeTransferFrom(address,address,uint256,bytes)": "infinite",
				"setApprovalForAll(address,bool)": "28794",
				"setApprovalTime(uint256)": "25709",
				"setMerkleRoot(bytes32)": "25745",
				"setPublicMintPrice(uint256)": "25770",
				"setURI(string)": "infinite",
				"setWlMintPrice(uint256)": "25749",
				"supportsInterface(bytes4)": "524",
				"symbol()": "infinite",
				"tokenURI(uint256)": "infinite",
				"totalSupply()": "4455",
				"transferFrom(address,address,uint256)": "infinite",
				"transferOwnership(address)": "28405",
				"whitelistMint(bytes32[],uint48)": "infinite",
				"withdraw(uint256,address)": "infinite"
			},
			"internal": {
				"_baseURI()": "infinite",
				"_isApprovedOrOwner(address,uint256)": "infinite"
			}
		},
		"methodIdentifiers": {
			"ALLOW_LIST_PRICE()": "ad570dd5",
			"DEV_LIMIT()": "18f0c43e",
			"DISTRICT_BITMASK()": "144a79e3",
			"FREE_SALES()": "02c43a11",
			"FreelistClaimed(address)": "463ccb55",
			"MAX_FREE_SUPPLY()": "02ddb65b",
			"MAX_SUPPLY()": "32cb6b0c",
			"METADATA_URL()": "e1911d70",
			"PUBLIC_PRICE()": "611f3f10",
			"PUBLIC_SAlES()": "5af744ec",
			"PUBLIC_SUPPLY()": "8342083a",
			"SALES_PHASE()": "634c2b6d",
			"SECTION_BITMASK()": "becd61d8",
			"SUPPLY()": "c50497ae",
			"WL_SALES()": "7e06f64e",
			"approve(address,uint256)": "095ea7b3",
			"balanceOf(address)": "70a08231",
			"burn(uint256)": "42966c68",
			"demoteSalesPhase(uint8)": "f0ae3149",
			"devMint(address,uint48)": "4312dc7c",
			"freeMint(bytes32[],uint48)": "e1c2caa9",
			"getApproved(uint256)": "081812fc",
			"getApprovedStartTime()": "1d5a7e96",
			"getTime()": "557ed1ba",
			"isApprovedForAll(address,address)": "e985e9c5",
			"name()": "06fdde03",
			"numberMinted(address)": "dc33e681",
			"numberMintedFree(address)": "1a6eedb4",
			"numberMintedPublic(address)": "8535923f",
			"numberMintedWhiteList(address)": "22fa3dfa",
			"owner()": "8da5cb5b",
			"ownerOf(uint256)": "6352211e",
			"promoteSalesPhase(uint8)": "aa059db3",
			"publicMint(uint48)": "b079fe74",
			"renounceOwnership()": "715018a6",
			"safeTransferFrom(address,address,uint256)": "42842e0e",
			"safeTransferFrom(address,address,uint256,bytes)": "b88d4fde",
			"setApprovalForAll(address,bool)": "a22cb465",
			"setApprovalTime(uint256)": "d2e21b13",
			"setMerkleRoot(bytes32)": "7cb64759",
			"setPublicMintPrice(uint256)": "5d82cf6e",
			"setURI(string)": "02fe5305",
			"setWlMintPrice(uint256)": "3d272294",
			"supportsInterface(bytes4)": "01ffc9a7",
			"symbol()": "95d89b41",
			"tokenURI(uint256)": "c87b56dd",
			"totalSupply()": "18160ddd",
			"transferFrom(address,address,uint256)": "23b872dd",
			"transferOwnership(address)": "f2fde38b",
			"whitelistMint(bytes32[],uint48)": "6b80ba18",
			"withdraw(uint256,address)": "00f714ce"
		}
	},
	"abi": [
		{
			"inputs": [],
			"stateMutability": "nonpayable",
			"type": "constructor"
		},
		{
			"inputs": [],
			"name": "ApprovalCallerNotOwnerNorApproved",
			"type": "error"
		},
		{
			"inputs": [],
			"name": "ApprovalQueryForNonexistentToken",
			"type": "error"
		},
		{
			"inputs": [],
			"name": "BalanceQueryForZeroAddress",
			"type": "error"
		},
		{
			"inputs": [],
			"name": "CallerIsContract",
			"type": "error"
		},
		{
			"inputs": [],
			"name": "CanNotApproval",
			"type": "error"
		},
		{
			"inputs": [],
			"name": "InsufficientFunds",
			"type": "error"
		},
		{
			"inputs": [],
			"name": "InvalidMerkleProof",
			"type": "error"
		},
		{
			"inputs": [],
			"name": "InvalidMintAmount",
			"type": "error"
		},
		{
			"inputs": [],
			"name": "InvalidMintPriceChange",
			"type": "error"
		},
		{
			"inputs": [],
			"name": "InvalidSalesPhaseChange",
			"type": "error"
		},
		{
			"inputs": [],
			"name": "InvalidWithdrawalAmount",
			"type": "error"
		},
		{
			"inputs": [],
			"name": "IsNotTokenOwnerNorApproved",
			"type": "error"
		},
		{
			"inputs": [],
			"name": "MintAmountExceedsSupply",
			"type": "error"
		},
		{
			"inputs": [],
			"name": "MintAmountExceedsUserAllowance",
			"type": "error"
		},
		{
			"inputs": [],
			"name": "MintAmountFreeExceedsSupply",
			"type": "error"
		},
		{
			"inputs": [],
			"name": "MintERC2309QuantityExceedsLimit",
			"type": "error"
		},
		{
			"inputs": [],
			"name": "MintToZeroAddress",
			"type": "error"
		},
		{
			"inputs": [],
			"name": "MintZeroQuantity",
			"type": "error"
		},
		{
			"inputs": [],
			"name": "OwnerQueryForNonexistentToken",
			"type": "error"
		},
		{
			"inputs": [],
			"name": "OwnershipNotInitializedForExtraData",
			"type": "error"
		},
		{
			"inputs": [],
			"name": "TransferCallerNotOwnerNorApproved",
			"type": "error"
		},
		{
			"inputs": [],
			"name": "TransferFromIncorrectOwner",
			"type": "error"
		},
		{
			"inputs": [],
			"name": "TransferToNonERC721ReceiverImplementer",
			"type": "error"
		},
		{
			"inputs": [],
			"name": "TransferToZeroAddress",
			"type": "error"
		},
		{
			"inputs": [],
			"name": "URIQueryForNonexistentToken",
			"type": "error"
		},
		{
			"inputs": [],
			"name": "WithdrawalFailed",
			"type": "error"
		},
		{
			"inputs": [],
			"name": "WrongSalesPhase",
			"type": "error"
		},
		{
			"anonymous": false,
			"inputs": [
				{
					"indexed": true,
					"internalType": "address",
					"name": "owner",
					"type": "address"
				},
				{
					"indexed": true,
					"internalType": "address",
					"name": "approved",
					"type": "address"
				},
				{
					"indexed": true,
					"internalType": "uint256",
					"name": "tokenId",
					"type": "uint256"
				}
			],
			"name": "Approval",
			"type": "event"
		},
		{
			"anonymous": false,
			"inputs": [
				{
					"indexed": true,
					"internalType": "address",
					"name": "owner",
					"type": "address"
				},
				{
					"indexed": true,
					"internalType": "address",
					"name": "operator",
					"type": "address"
				},
				{
					"indexed": false,
					"internalType": "bool",
					"name": "approved",
					"type": "bool"
				}
			],
			"name": "ApprovalForAll",
			"type": "event"
		},
		{
			"anonymous": false,
			"inputs": [
				{
					"indexed": true,
					"internalType": "uint256",
					"name": "tokenId",
					"type": "uint256"
				}
			],
			"name": "Burn",
			"type": "event"
		},
		{
			"anonymous": false,
			"inputs": [
				{
					"indexed": true,
					"internalType": "uint256",
					"name": "fromTokenId",
					"type": "uint256"
				},
				{
					"indexed": false,
					"internalType": "uint256",
					"name": "toTokenId",
					"type": "uint256"
				},
				{
					"indexed": true,
					"internalType": "address",
					"name": "from",
					"type": "address"
				},
				{
					"indexed": true,
					"internalType": "address",
					"name": "to",
					"type": "address"
				}
			],
			"name": "ConsecutiveTransfer",
			"type": "event"
		},
		{
			"anonymous": false,
			"inputs": [
				{
					"indexed": true,
					"internalType": "uint48",
					"name": "amount",
					"type": "uint48"
				},
				{
					"indexed": true,
					"internalType": "uint48",
					"name": "userConfig",
					"type": "uint48"
				}
			],
			"name": "MintedCounters",
			"type": "event"
		},
		{
			"anonymous": false,
			"inputs": [
				{
					"indexed": true,
					"internalType": "address",
					"name": "previousOwner",
					"type": "address"
				},
				{
					"indexed": true,
					"internalType": "address",
					"name": "newOwner",
					"type": "address"
				}
			],
			"name": "OwnershipTransferred",
			"type": "event"
		},
		{
			"anonymous": false,
			"inputs": [
				{
					"indexed": true,
					"internalType": "uint8",
					"name": "newPhase",
					"type": "uint8"
				}
			],
			"name": "SalesPhaseChanged",
			"type": "event"
		},
		{
			"anonymous": false,
			"inputs": [
				{
					"indexed": true,
					"internalType": "uint256",
					"name": "time",
					"type": "uint256"
				}
			],
			"name": "SetApprovalTime",
			"type": "event"
		},
		{
			"anonymous": false,
			"inputs": [
				{
					"indexed": true,
					"internalType": "bytes32",
					"name": "root",
					"type": "bytes32"
				}
			],
			"name": "SetMerkleRoot",
			"type": "event"
		},
		{
			"anonymous": false,
			"inputs": [
				{
					"indexed": true,
					"internalType": "uint256",
					"name": "Price",
					"type": "uint256"
				}
			],
			"name": "SetPublicPrice",
			"type": "event"
		},
		{
			"anonymous": false,
			"inputs": [
				{
					"indexed": true,
					"internalType": "string",
					"name": "uri",
					"type": "string"
				}
			],
			"name": "SetURI",
			"type": "event"
		},
		{
			"anonymous": false,
			"inputs": [
				{
					"indexed": true,
					"internalType": "uint256",
					"name": "Price",
					"type": "uint256"
				}
			],
			"name": "SetWlPrice",
			"type": "event"
		},
		{
			"anonymous": false,
			"inputs": [
				{
					"indexed": true,
					"internalType": "address",
					"name": "from",
					"type": "address"
				},
				{
					"indexed": true,
					"internalType": "address",
					"name": "to",
					"type": "address"
				},
				{
					"indexed": true,
					"internalType": "uint256",
					"name": "tokenId",
					"type": "uint256"
				}
			],
			"name": "Transfer",
			"type": "event"
		},
		{
			"anonymous": false,
			"inputs": [
				{
					"indexed": true,
					"internalType": "uint256",
					"name": "amount",
					"type": "uint256"
				},
				{
					"indexed": true,
					"internalType": "address",
					"name": "to",
					"type": "address"
				}
			],
			"name": "Withdraw",
			"type": "event"
		},
		{
			"inputs": [],
			"name": "ALLOW_LIST_PRICE",
			"outputs": [
				{
					"internalType": "uint256",
					"name": "",
					"type": "uint256"
				}
			],
			"stateMutability": "view",
			"type": "function"
		},
		{
			"inputs": [],
			"name": "DEV_LIMIT",
			"outputs": [
				{
					"internalType": "uint8",
					"name": "",
					"type": "uint8"
				}
			],
			"stateMutability": "view",
			"type": "function"
		},
		{
			"inputs": [],
			"name": "DISTRICT_BITMASK",
			"outputs": [
				{
					"internalType": "uint48",
					"name": "",
					"type": "uint48"
				}
			],
			"stateMutability": "view",
			"type": "function"
		},
		{
			"inputs": [],
			"name": "FREE_SALES",
			"outputs": [
				{
					"internalType": "uint8",
					"name": "",
					"type": "uint8"
				}
			],
			"stateMutability": "view",
			"type": "function"
		},
		{
			"inputs": [
				{
					"internalType": "address",
					"name": "",
					"type": "address"
				}
			],
			"name": "FreelistClaimed",
			"outputs": [
				{
					"internalType": "bool",
					"name": "",
					"type": "bool"
				}
			],
			"stateMutability": "view",
			"type": "function"
		},
		{
			"inputs": [],
			"name": "MAX_FREE_SUPPLY",
			"outputs": [
				{
					"internalType": "uint48",
					"name": "",
					"type": "uint48"
				}
			],
			"stateMutability": "view",
			"type": "function"
		},
		{
			"inputs": [],
			"name": "MAX_SUPPLY",
			"outputs": [
				{
					"internalType": "uint256",
					"name": "",
					"type": "uint256"
				}
			],
			"stateMutability": "view",
			"type": "function"
		},
		{
			"inputs": [],
			"name": "METADATA_URL",
			"outputs": [
				{
					"internalType": "string",
					"name": "",
					"type": "string"
				}
			],
			"stateMutability": "view",
			"type": "function"
		},
		{
			"inputs": [],
			"name": "PUBLIC_PRICE",
			"outputs": [
				{
					"internalType": "uint256",
					"name": "",
					"type": "uint256"
				}
			],
			"stateMutability": "view",
			"type": "function"
		},
		{
			"inputs": [],
			"name": "PUBLIC_SAlES",
			"outputs": [
				{
					"internalType": "uint8",
					"name": "",
					"type": "uint8"
				}
			],
			"stateMutability": "view",
			"type": "function"
		},
		{
			"inputs": [],
			"name": "PUBLIC_SUPPLY",
			"outputs": [
				{
					"internalType": "uint8",
					"name": "",
					"type": "uint8"
				}
			],
			"stateMutability": "view",
			"type": "function"
		},
		{
			"inputs": [],
			"name": "SALES_PHASE",
			"outputs": [
				{
					"internalType": "uint8",
					"name": "",
					"type": "uint8"
				}
			],
			"stateMutability": "view",
			"type": "function"
		},
		{
			"inputs": [],
			"name": "SECTION_BITMASK",
			"outputs": [
				{
					"internalType": "uint48",
					"name": "",
					"type": "uint48"
				}
			],
			"stateMutability": "view",
			"type": "function"
		},
		{
			"inputs": [],
			"name": "SUPPLY",
			"outputs": [
				{
					"internalType": "uint48",
					"name": "",
					"type": "uint48"
				}
			],
			"stateMutability": "view",
			"type": "function"
		},
		{
			"inputs": [],
			"name": "WL_SALES",
			"outputs": [
				{
					"internalType": "uint8",
					"name": "",
					"type": "uint8"
				}
			],
			"stateMutability": "view",
			"type": "function"
		},
		{
			"inputs": [
				{
					"internalType": "address",
					"name": "to",
					"type": "address"
				},
				{
					"internalType": "uint256",
					"name": "tokenId",
					"type": "uint256"
				}
			],
			"name": "approve",
			"outputs": [],
			"stateMutability": "payable",
			"type": "function"
		},
		{
			"inputs": [
				{
					"internalType": "address",
					"name": "owner",
					"type": "address"
				}
			],
			"name": "balanceOf",
			"outputs": [
				{
					"internalType": "uint256",
					"name": "",
					"type": "uint256"
				}
			],
			"stateMutability": "view",
			"type": "function"
		},
		{
			"inputs": [
				{
					"internalType": "uint256",
					"name": "_tokenId",
					"type": "uint256"
				}
			],
			"name": "burn",
			"outputs": [],
			"stateMutability": "nonpayable",
			"type": "function"
		},
		{
			"inputs": [
				{
					"internalType": "uint8",
					"name": "amount",
					"type": "uint8"
				}
			],
			"name": "demoteSalesPhase",
			"outputs": [],
			"stateMutability": "nonpayable",
			"type": "function"
		},
		{
			"inputs": [
				{
					"internalType": "address",
					"name": "_to",
					"type": "address"
				},
				{
					"internalType": "uint48",
					"name": "_numberOfTokens",
					"type": "uint48"
				}
			],
			"name": "devMint",
			"outputs": [],
			"stateMutability": "nonpayable",
			"type": "function"
		},
		{
			"inputs": [
				{
					"internalType": "bytes32[]",
					"name": "_proof",
					"type": "bytes32[]"
				},
				{
					"internalType": "uint48",
					"name": "_inputConfig",
					"type": "uint48"
				}
			],
			"name": "freeMint",
			"outputs": [],
			"stateMutability": "nonpayable",
			"type": "function"
		},
		{
			"inputs": [
				{
					"internalType": "uint256",
					"name": "tokenId",
					"type": "uint256"
				}
			],
			"name": "getApproved",
			"outputs": [
				{
					"internalType": "address",
					"name": "",
					"type": "address"
				}
			],
			"stateMutability": "view",
			"type": "function"
		},
		{
			"inputs": [],
			"name": "getApprovedStartTime",
			"outputs": [
				{
					"internalType": "uint256",
					"name": "",
					"type": "uint256"
				}
			],
			"stateMutability": "view",
			"type": "function"
		},
		{
			"inputs": [],
			"name": "getTime",
			"outputs": [
				{
					"internalType": "uint256",
					"name": "",
					"type": "uint256"
				}
			],
			"stateMutability": "view",
			"type": "function"
		},
		{
			"inputs": [
				{
					"internalType": "address",
					"name": "owner",
					"type": "address"
				},
				{
					"internalType": "address",
					"name": "operator",
					"type": "address"
				}
			],
			"name": "isApprovedForAll",
			"outputs": [
				{
					"internalType": "bool",
					"name": "",
					"type": "bool"
				}
			],
			"stateMutability": "view",
			"type": "function"
		},
		{
			"inputs": [],
			"name": "name",
			"outputs": [
				{
					"internalType": "string",
					"name": "",
					"type": "string"
				}
			],
			"stateMutability": "view",
			"type": "function"
		},
		{
			"inputs": [
				{
					"internalType": "address",
					"name": "owner",
					"type": "address"
				}
			],
			"name": "numberMinted",
			"outputs": [
				{
					"internalType": "uint256",
					"name": "",
					"type": "uint256"
				}
			],
			"stateMutability": "view",
			"type": "function"
		},
		{
			"inputs": [
				{
					"internalType": "address",
					"name": "owner",
					"type": "address"
				}
			],
			"name": "numberMintedFree",
			"outputs": [
				{
					"internalType": "uint64",
					"name": "",
					"type": "uint64"
				}
			],
			"stateMutability": "view",
			"type": "function"
		},
		{
			"inputs": [
				{
					"internalType": "address",
					"name": "owner",
					"type": "address"
				}
			],
			"name": "numberMintedPublic",
			"outputs": [
				{
					"internalType": "uint64",
					"name": "",
					"type": "uint64"
				}
			],
			"stateMutability": "view",
			"type": "function"
		},
		{
			"inputs": [
				{
					"internalType": "address",
					"name": "owner",
					"type": "address"
				}
			],
			"name": "numberMintedWhiteList",
			"outputs": [
				{
					"internalType": "uint64",
					"name": "",
					"type": "uint64"
				}
			],
			"stateMutability": "view",
			"type": "function"
		},
		{
			"inputs": [],
			"name": "owner",
			"outputs": [
				{
					"internalType": "address",
					"name": "",
					"type": "address"
				}
			],
			"stateMutability": "view",
			"type": "function"
		},
		{
			"inputs": [
				{
					"internalType": "uint256",
					"name": "tokenId",
					"type": "uint256"
				}
			],
			"name": "ownerOf",
			"outputs": [
				{
					"internalType": "address",
					"name": "",
					"type": "address"
				}
			],
			"stateMutability": "view",
			"type": "function"
		},
		{
			"inputs": [
				{
					"internalType": "uint8",
					"name": "amount",
					"type": "uint8"
				}
			],
			"name": "promoteSalesPhase",
			"outputs": [],
			"stateMutability": "nonpayable",
			"type": "function"
		},
		{
			"inputs": [
				{
					"internalType": "uint48",
					"name": "_mintAmount",
					"type": "uint48"
				}
			],
			"name": "publicMint",
			"outputs": [],
			"stateMutability": "payable",
			"type": "function"
		},
		{
			"inputs": [],
			"name": "renounceOwnership",
			"outputs": [],
			"stateMutability": "nonpayable",
			"type": "function"
		},
		{
			"inputs": [
				{
					"internalType": "address",
					"name": "from",
					"type": "address"
				},
				{
					"internalType": "address",
					"name": "to",
					"type": "address"
				},
				{
					"internalType": "uint256",
					"name": "tokenId",
					"type": "uint256"
				}
			],
			"name": "safeTransferFrom",
			"outputs": [],
			"stateMutability": "payable",
			"type": "function"
		},
		{
			"inputs": [
				{
					"internalType": "address",
					"name": "from",
					"type": "address"
				},
				{
					"internalType": "address",
					"name": "to",
					"type": "address"
				},
				{
					"internalType": "uint256",
					"name": "tokenId",
					"type": "uint256"
				},
				{
					"internalType": "bytes",
					"name": "_data",
					"type": "bytes"
				}
			],
			"name": "safeTransferFrom",
			"outputs": [],
			"stateMutability": "payable",
			"type": "function"
		},
		{
			"inputs": [
				{
					"internalType": "address",
					"name": "operator",
					"type": "address"
				},
				{
					"internalType": "bool",
					"name": "approved",
					"type": "bool"
				}
			],
			"name": "setApprovalForAll",
			"outputs": [],
			"stateMutability": "nonpayable",
			"type": "function"
		},
		{
			"inputs": [
				{
					"internalType": "uint256",
					"name": "_time",
					"type": "uint256"
				}
			],
			"name": "setApprovalTime",
			"outputs": [],
			"stateMutability": "nonpayable",
			"type": "function"
		},
		{
			"inputs": [
				{
					"internalType": "bytes32",
					"name": "newRoot_",
					"type": "bytes32"
				}
			],
			"name": "setMerkleRoot",
			"outputs": [],
			"stateMutability": "nonpayable",
			"type": "function"
		},
		{
			"inputs": [
				{
					"internalType": "uint256",
					"name": "_mintPrice",
					"type": "uint256"
				}
			],
			"name": "setPublicMintPrice",
			"outputs": [],
			"stateMutability": "nonpayable",
			"type": "function"
		},
		{
			"inputs": [
				{
					"internalType": "string",
					"name": "_uri",
					"type": "string"
				}
			],
			"name": "setURI",
			"outputs": [],
			"stateMutability": "nonpayable",
			"type": "function"
		},
		{
			"inputs": [
				{
					"internalType": "uint256",
					"name": "_mintPrice",
					"type": "uint256"
				}
			],
			"name": "setWlMintPrice",
			"outputs": [],
			"stateMutability": "nonpayable",
			"type": "function"
		},
		{
			"inputs": [
				{
					"internalType": "bytes4",
					"name": "interfaceId",
					"type": "bytes4"
				}
			],
			"name": "supportsInterface",
			"outputs": [
				{
					"internalType": "bool",
					"name": "",
					"type": "bool"
				}
			],
			"stateMutability": "view",
			"type": "function"
		},
		{
			"inputs": [],
			"name": "symbol",
			"outputs": [
				{
					"internalType": "string",
					"name": "",
					"type": "string"
				}
			],
			"stateMutability": "view",
			"type": "function"
		},
		{
			"inputs": [
				{
					"internalType": "uint256",
					"name": "tokenId",
					"type": "uint256"
				}
			],
			"name": "tokenURI",
			"outputs": [
				{
					"internalType": "string",
					"name": "",
					"type": "string"
				}
			],
			"stateMutability": "view",
			"type": "function"
		},
		{
			"inputs": [],
			"name": "totalSupply",
			"outputs": [
				{
					"internalType": "uint256",
					"name": "",
					"type": "uint256"
				}
			],
			"stateMutability": "view",
			"type": "function"
		},
		{
			"inputs": [
				{
					"internalType": "address",
					"name": "from",
					"type": "address"
				},
				{
					"internalType": "address",
					"name": "to",
					"type": "address"
				},
				{
					"internalType": "uint256",
					"name": "tokenId",
					"type": "uint256"
				}
			],
			"name": "transferFrom",
			"outputs": [],
			"stateMutability": "payable",
			"type": "function"
		},
		{
			"inputs": [
				{
					"internalType": "address",
					"name": "newOwner",
					"type": "address"
				}
			],
			"name": "transferOwnership",
			"outputs": [],
			"stateMutability": "nonpayable",
			"type": "function"
		},
		{
			"inputs": [
				{
					"internalType": "bytes32[]",
					"name": "_proof",
					"type": "bytes32[]"
				},
				{
					"internalType": "uint48",
					"name": "_inputConfig",
					"type": "uint48"
				}
			],
			"name": "whitelistMint",
			"outputs": [],
			"stateMutability": "payable",
			"type": "function"
		},
		{
			"inputs": [
				{
					"internalType": "uint256",
					"name": "_amount",
					"type": "uint256"
				},
				{
					"internalType": "address",
					"name": "_to",
					"type": "address"
				}
			],
			"name": "withdraw",
			"outputs": [],
			"stateMutability": "nonpayable",
			"type": "function"
		}
	]
}